{"contracts/UniswapV2Pair.sol":{"UniswapV2Pair":{"abi":[{"inputs":[],"stateMutability":"nonpayable","type":"constructor"},{"anonymous":false,"inputs":[{"indexed":true,"internalType":"address","name":"owner","type":"address"},{"indexed":true,"internalType":"address","name":"spender","type":"address"},{"indexed":false,"internalType":"uint256","name":"value","type":"uint256"}],"name":"Approval","type":"event"},{"anonymous":false,"inputs":[{"indexed":true,"internalType":"address","name":"sender","type":"address"},{"indexed":false,"internalType":"uint256","name":"amount0","type":"uint256"},{"indexed":false,"internalType":"uint256","name":"amount1","type":"uint256"},{"indexed":true,"internalType":"address","name":"to","type":"address"}],"name":"Burn","type":"event"},{"anonymous":false,"inputs":[{"indexed":true,"internalType":"address","name":"sender","type":"address"},{"indexed":false,"internalType":"uint256","name":"amount0","type":"uint256"},{"indexed":false,"internalType":"uint256","name":"amount1","type":"uint256"}],"name":"Mint","type":"event"},{"anonymous":false,"inputs":[{"indexed":true,"internalType":"address","name":"sender","type":"address"},{"indexed":false,"internalType":"uint256","name":"amount0In","type":"uint256"},{"indexed":false,"internalType":"uint256","name":"amount1In","type":"uint256"},{"indexed":false,"internalType":"uint256","name":"amount0Out","type":"uint256"},{"indexed":false,"internalType":"uint256","name":"amount1Out","type":"uint256"},{"indexed":true,"internalType":"address","name":"to","type":"address"}],"name":"Swap","type":"event"},{"anonymous":false,"inputs":[{"indexed":false,"internalType":"uint112","name":"reserve0","type":"uint112"},{"indexed":false,"internalType":"uint112","name":"reserve1","type":"uint112"}],"name":"Sync","type":"event"},{"anonymous":false,"inputs":[{"indexed":true,"internalType":"address","name":"from","type":"address"},{"indexed":true,"internalType":"address","name":"to","type":"address"},{"indexed":false,"internalType":"uint256","name":"value","type":"uint256"}],"name":"Transfer","type":"event"},{"inputs":[],"name":"MINIMUM_LIQUIDITY","outputs":[{"internalType":"uint256","name":"","type":"uint256"}],"stateMutability":"view","type":"function"},{"inputs":[{"internalType":"address","name":"owner","type":"address"},{"internalType":"address","name":"spender","type":"address"}],"name":"allowance","outputs":[{"internalType":"uint256","name":"","type":"uint256"}],"stateMutability":"view","type":"function"},{"inputs":[{"internalType":"address","name":"spender","type":"address"},{"internalType":"uint256","name":"value","type":"uint256"}],"name":"approve","outputs":[{"internalType":"bool","name":"","type":"bool"}],"stateMutability":"nonpayable","type":"function"},{"inputs":[{"internalType":"address","name":"owner","type":"address"}],"name":"balanceOf","outputs":[{"internalType":"uint256","name":"","type":"uint256"}],"stateMutability":"view","type":"function"},{"inputs":[{"internalType":"address","name":"to","type":"address"}],"name":"burn","outputs":[{"internalType":"uint256","name":"amount0","type":"uint256"},{"internalType":"uint256","name":"amount1","type":"uint256"}],"stateMutability":"nonpayable","type":"function"},{"inputs":[],"name":"decimals","outputs":[{"internalType":"uint8","name":"","type":"uint8"}],"stateMutability":"view","type":"function"},{"inputs":[{"internalType":"address","name":"spender","type":"address"},{"internalType":"uint256","name":"subtractedValue","type":"uint256"}],"name":"decreaseAllowance","outputs":[{"internalType":"bool","name":"","type":"bool"}],"stateMutability":"nonpayable","type":"function"},{"inputs":[],"name":"factory","outputs":[{"internalType":"address","name":"","type":"address"}],"stateMutability":"view","type":"function"},{"inputs":[],"name":"getReserves","outputs":[{"internalType":"uint112","name":"_reserve0","type":"uint112"},{"internalType":"uint112","name":"_reserve1","type":"uint112"},{"internalType":"uint32","name":"_blockTimestampLast","type":"uint32"}],"stateMutability":"view","type":"function"},{"inputs":[{"internalType":"address","name":"spender","type":"address"},{"internalType":"uint256","name":"addedValue","type":"uint256"}],"name":"increaseAllowance","outputs":[{"internalType":"bool","name":"","type":"bool"}],"stateMutability":"nonpayable","type":"function"},{"inputs":[{"internalType":"address","name":"_token0","type":"address"},{"internalType":"address","name":"_token1","type":"address"}],"name":"initialize","outputs":[],"stateMutability":"nonpayable","type":"function"},{"inputs":[],"name":"kLast","outputs":[{"internalType":"uint256","name":"","type":"uint256"}],"stateMutability":"view","type":"function"},{"inputs":[{"internalType":"address","name":"to","type":"address"}],"name":"mint","outputs":[{"internalType":"uint256","name":"liquidity","type":"uint256"}],"stateMutability":"nonpayable","type":"function"},{"inputs":[],"name":"name","outputs":[{"internalType":"string","name":"","type":"string"}],"stateMutability":"view","type":"function"},{"inputs":[],"name":"price0CumulativeLast","outputs":[{"internalType":"uint256","name":"","type":"uint256"}],"stateMutability":"view","type":"function"},{"inputs":[],"name":"price1CumulativeLast","outputs":[{"internalType":"uint256","name":"","type":"uint256"}],"stateMutability":"view","type":"function"},{"inputs":[{"internalType":"address","name":"to","type":"address"}],"name":"skim","outputs":[],"stateMutability":"nonpayable","type":"function"},{"inputs":[{"internalType":"uint256","name":"amount0Out","type":"uint256"},{"internalType":"uint256","name":"amount1Out","type":"uint256"},{"internalType":"address","name":"to","type":"address"},{"internalType":"bytes","name":"data","type":"bytes"}],"name":"swap","outputs":[],"stateMutability":"nonpayable","type":"function"},{"inputs":[],"name":"symbol","outputs":[{"internalType":"string","name":"","type":"string"}],"stateMutability":"view","type":"function"},{"inputs":[],"name":"sync","outputs":[],"stateMutability":"nonpayable","type":"function"},{"inputs":[],"name":"token0","outputs":[{"internalType":"address","name":"","type":"address"}],"stateMutability":"view","type":"function"},{"inputs":[],"name":"token1","outputs":[{"internalType":"address","name":"","type":"address"}],"stateMutability":"view","type":"function"},{"inputs":[],"name":"totalSupply","outputs":[{"internalType":"uint256","name":"","type":"uint256"}],"stateMutability":"view","type":"function"},{"inputs":[{"internalType":"address","name":"to","type":"address"},{"internalType":"uint256","name":"value","type":"uint256"}],"name":"transfer","outputs":[{"internalType":"bool","name":"","type":"bool"}],"stateMutability":"nonpayable","type":"function"},{"inputs":[{"internalType":"address","name":"from","type":"address"},{"internalType":"address","name":"to","type":"address"},{"internalType":"uint256","name":"value","type":"uint256"}],"name":"transferFrom","outputs":[{"internalType":"bool","name":"","type":"bool"}],"stateMutability":"nonpayable","type":"function"}],"evm":{"bytecode":{"linkReferences":{},"object":"6080346200033b576001600160401b0390604090808201838111828210176200023b578252600a8152602092692ab734b9bbb0b8102b1960b11b84830152825190838201828110828211176200023b57845260068252652aa72496ab1960d11b8583015282518181116200023b576003908154906001958683811c9316801562000330575b898410146200031a578190601f93848111620002c4575b5089908483116001146200025d5760009262000251575b505060001982851b1c191690861b1782555b83519283116200023b576004938454978689811c9916801562000230575b818a10146200021b578883869798999a11620001bf575b508092851160011462000151575060009362000145575b505082851b92600019911b1c19161790555b600555600680546001600160a01b03191633179055516121849081620003418239f35b01519150388062000110565b929190879550601f1985168760005284600020946000905b828210620001a557505085116200018a575b50505050811b01905562000122565b01519060f884600019921b161c19169055388080806200017b565b8484015187558a9890960195938401939081019062000169565b90919293945086600052816000208480880160051c82019284891062000211575b918a91899897969594930160051c01915b82811062000201575050620000f9565b600081558897508a9101620001f1565b92508192620001e0565b602286634e487b7160e01b6000525260246000fd5b98607f1698620000e2565b634e487b7160e01b600052604160045260246000fd5b015190503880620000b2565b90889350601f19831691866000528b6000209260005b8d828210620002ad575050841162000294575b505050811b018255620000c4565b015160001983871b60f8161c1916905538808062000286565b8385015186558c9790950194938401930162000273565b90915084600052896000208480850160051c8201928c861062000310575b918a91869594930160051c01915b828110620003005750506200009b565b600081558594508a9101620002f0565b92508192620002e2565b634e487b7160e01b600052602260045260246000fd5b92607f169262000084565b600080fdfe6080604052600436101561001257600080fd5b6000803560e01c8063022c0d9f146112ad57806306fdde03146111ef5780630902f1ac14611196578063095ea7b31461116f5780630dfe16811461114657806318160ddd1461112857806323b872dd1461106b578063313ce5671461104f5780633950935114610ff5578063485cc95514610f595780635909c0d514610f3b5780635a3d549314610f1d5780636a62784214610c4e57806370a0823114610c165780637464fc3d14610bf857806389afcb441461071c57806395d89b4114610619578063a457c2d714610571578063a9059cbb1461053f578063ba9a7a5614610522578063bc25cf7714610303578063c45a0155146102da578063d21220a7146102b1578063dd62ed3e146102595763fff6cae91461013057600080fd5b34610256578060031936011261025657610148611cfc565b6007546040516370a0823160e01b808252306004830152916020916001600160a01b039183908290602490829086165afa91821561024b578391869361021a575b50600854169360246040518096819382523060048301525afa91821561020f5784926101d8575b506101d09250600954916001600160701b03808460701c16931691611e2d565b600160055580f35b90915082813d8311610208575b6101ef8183611b16565b81010312610203576101d0915190386101b0565b600080fd5b503d6101e5565b6040513d86823e3d90fd5b8281939294503d8311610244575b6102328183611b16565b81010312610203578290519138610189565b503d610228565b6040513d87823e3d90fd5b80fd5b50346102565760403660031901126102565760206102a961027861197c565b610280611992565b9060018060a01b0380911660005260016020526040600020911660005260205260406000205490565b604051908152f35b50346102565780600319360112610256576008546040516001600160a01b039091168152602090f35b50346102565780600319360112610256576006546040516001600160a01b039091168152602090f35b50346102565760208060031936011261051e5761031e61197c565b610326611cfc565b6007546008546040516370a0823160e01b808252306004830152909390926001600160a01b039081169216908585602481865afa9485156105135787956104e4575b506103806001600160701b0395866009541690611cbc565b60405163a9059cbb60e01b8082526001600160a01b0384166004830152602482019290925290938790829060449082908c905af180156104d9576104bc575b50604051938452306004850152868685602481865afa80156104af5787958291610478575b506103fa906104279760095460701c1690611cbc565b6040519485526001600160a01b039092166004850152602484019190915291938492839182906044820190565b03925af1801561046d5761043f575b82600160055580f35b8161045e92903d10610466575b6104568183611b16565b8101906120e1565b503880610436565b503d61044c565b6040513d85823e3d90fd5b958092508691503d83116104a8575b6104918183611b16565b8101031261020357925185939087906104276103e4565b503d610487565b50604051903d90823e3d90fd5b6104d290873d8911610466576104568183611b16565b50386103bf565b6040513d8a823e3d90fd5b9094508581813d831161050c575b6104fc8183611b16565b8101031261020357519338610368565b503d6104f2565b6040513d89823e3d90fd5b5080fd5b503461025657806003193601126102565760206040516103e88152f35b50346102565760403660031901126102565761056661055c61197c565b6024359033611b4e565b602060405160018152f35b50346102565760403660031901126102565761058b61197c565b3360009081526001602090815260408083206001600160a01b0385168452909152902054906024358083106105c65761056692039033611a14565b60405162461bcd60e51b815260206004820152602560248201527f45524332303a2064656372656173656420616c6c6f77616e63652062656c6f77604482015264207a65726f60d81b6064820152608490fd5b5034610256578060031936011261025657604051600090600454600181811c90808316928315610712575b60209384841081146106fe578386529081156106de5750600114610683575b61067f8461067381880382611b16565b604051918291826119a8565b0390f35b600460009081529294507f8a35acfbc15ff81a39ae7d344fd709f28e8600b4aa8c65c6b64bfe7fe36bd19b5b8284106106cb575050508161067f936106739282010193610663565b80548585018701529285019281016106af565b60ff1916858501525050151560051b82010191506106738161067f610663565b634e487b7160e01b87526022600452602487fd5b91607f1691610644565b50346102565760203660031901126102565761073661197c565b61073e611cfc565b61075d6009546001600160701b0391828216928260701c169160e01c90565b506007546008546040516370a0823160e01b81523060048201526001600160a01b039182169694959190921693909290602083602481885afa9283156104af578193610bc4575b506040516370a0823160e01b815230600482015296602088602481845afa958615610bb9578798839897610b82575b503083528260205261080f6108036108036108086107f68860408920549c611fa9565b986002549384918d611cc9565b611cdc565b9a8a611cc9565b9688151580610b79575b15610b23573015610ad45730845283602052604084205490808210610a84578085923084528360205203604083205580600254036002556040519081527fddf252ad1be2c89b69c2b068fc378daa952ba7f163c4a11628f55a4df523b3ef60203092a360405163a9059cbb60e01b81526001600160a01b03871660048201526024810189905260208160448187865af1801561020f57610a65575b5060405163a9059cbb60e01b81526001600160a01b03871660048201526024810188905260208160448187875af1801561020f579160209160249493610a48575b506040516370a0823160e01b815230600482015293849182905afa91821561046d578392610a13575b506020602491604051928380926370a0823160e01b82523060048301525afa928315610a0757926109cc575b50966109599291604098611e2d565b6109a9575b83519083825282602083015260018060a01b0316907fdccd412f0b1252819cb1fd330b93224ca42612892bb3f4f789976e6d81936496853392a3600160055582519182526020820152f35b6109c46009546001600160701b03808260701c169116611cc9565b600c5561095e565b929150966020833d6020116109ff575b816109e960209383611b16565b810103126102035791519196909190604061094a565b3d91506109dc565b604051903d90823e3d90fd5b9091506020813d602011610a40575b81610a2f60209383611b16565b81010312610203575190602061091e565b3d9150610a22565b610a5e90833d8511610466576104568183611b16565b50386108f5565b610a7d9060203d602011610466576104568183611b16565b50386108b4565b60405162461bcd60e51b815260206004820152602260248201527f45524332303a206275726e20616d6f756e7420657863656564732062616c616e604482015261636560f01b6064820152608490fd5b60405162461bcd60e51b815260206004820152602160248201527f45524332303a206275726e2066726f6d20746865207a65726f206164647265736044820152607360f81b6064820152608490fd5b60405162461bcd60e51b815260206004820152602860248201527f556e697377617056323a20494e53554646494349454e545f4c495155494449546044820152671657d0955493915160c21b6064820152608490fd5b50871515610819565b965096506020863d602011610bb1575b81610b9f60209383611b16565b810103126102035787955196386107d3565b3d9150610b92565b6040513d84823e3d90fd5b9092506020813d602011610bf0575b81610be060209383611b16565b81010312610203575191386107a4565b3d9150610bd3565b50346102565780600319360112610256576020600c54604051908152f35b5034610256576020366003190112610256576020906040906001600160a01b03610c3e61197c565b1681528083522054604051908152f35b50346102565760208060031936011261051e57610c6961197c565b610c71611cfc565b610c906009546001600160701b0391828216928260701c169160e01c90565b506007546040516370a0823160e01b808252306004830152939492916001600160a01b03919087908290602490829086165afa9182156104d95787918993610eec575b50600854169460246040518097819382523060048301525afa938415610513578794610ebd575b506001600160701b039182861695610d128784611cbc565b9584831693610d218583611cbc565b98610d2c8585611fa9565b95600254918215600014610db5578d8d610d4e610d498f8f611cc9565b6120f9565b6103e7198101908111610da15760649250506040519062461bcd60e51b82526004820152601f60248201527f45524332303a206d696e7420746f20746865207a65726f2061646472657373006044820152fd5b634e487b7160e01b83526011600452602483fd5b8d91610803610dcf610dd6939c9e9c6108038f8890611cc9565b948c611cc9565b905080821015610eb657505b988915610e605790610dfa8a610dff96959493611d52565b611e2d565b610e42575b50604051918252838201527f4c209b5fc8ad50758f13e2e1088ba56a560dff690a1c6fef26394f4c03821c4f60403392a26001600555604051908152f35b610e579060095490808260701c169116611cc9565b600c5584610e04565b60405162461bcd60e51b8152600481018c9052602860248201527f556e697377617056323a20494e53554646494349454e545f4c495155494449546044820152671657d3525395115160c21b6064820152608490fd5b9050610de2565b9093508581813d8311610ee5575b610ed58183611b16565b8101031261020357519238610cfa565b503d610ecb565b8281939294503d8311610f16575b610f048183611b16565b81010312610203578690519138610cd3565b503d610efa565b50346102565780600319360112610256576020600b54604051908152f35b50346102565780600319360112610256576020600a54604051908152f35b503461025657604036600319011261025657610f7361197c565b610f7b611992565b6006546001600160a01b03919082163303610fb957816bffffffffffffffffffffffff60a01b93168360075416176007551690600854161760085580f35b60405162461bcd60e51b81526020600482015260146024820152732ab734b9bbb0b82b191d102327a92124a22222a760611b6044820152606490fd5b50346102565760403660031901126102565761056661101261197c565b3360009081526001602090815260408083206001600160a01b038516845290915290205461104890602435906119f1565b6119f1565b9033611a14565b5034610256578060031936011261025657602060405160128152f35b50346102565760603660031901126102565761108561197c565b9061108e611992565b60406044359260018060a01b0385168152600160205220336000526020526040600020549260001984036110c7575b6105669350611b4e565b8284106110e3576110de8361056695033383611a14565b6110bd565b60405162461bcd60e51b815260206004820152601d60248201527f45524332303a20696e73756666696369656e7420616c6c6f77616e63650000006044820152606490fd5b50346102565780600319360112610256576020600254604051908152f35b50346102565780600319360112610256576007546040516001600160a01b039091168152602090f35b50346102565760403660031901126102565761056661118c61197c565b6024359033611a14565b5034610256578060031936011261025657606063ffffffff6111cd6009546001600160701b0391828216928260701c169160e01c90565b909291604051936001600160701b038092168552166020840152166040820152f35b5034610256578060031936011261025657604051600090600354600181811c908083169283156112a3575b60209384841081146106fe578386529081156106de57506001146112485761067f8461067381880382611b16565b600360009081529294507fc2575a0e9e593c00f959f8c92f12db2869c3395a3b0502d05e2516446f71f85b5b828410611290575050508161067f936106739282010193610663565b8054858501870152928501928101611274565b91607f169161121a565b5034610256576080366003190112610256576001600160a01b03604435808216900361051e5767ffffffffffffffff6064351161051e5736602360643501121561051e5767ffffffffffffffff606435600401351161051e573660246064356004013560643501011161051e57611322611cfc565b600435159081158092611971575b1561191e576113546009546001600160701b0391828216928260701c169160e01c90565b506001600160701b0382949216600435108061190a575b156118bb5782600754168360085416928185604435161415806118ad575b156118705761180e575b6024356117ae575b606435600401356116e7575b906020602492604051938480926370a0823160e01b82523060048301525afa9182156116a55786926116b0575b506020602493604051948580926370a0823160e01b82523060048301525afa9283156116a5578693611671575b506114176004356001600160701b038716611cbc565b82111561166a5761143c6114366004356001600160701b038816611cbc565b83611cbc565b945b6114536024356001600160701b038416611cbc565b841115611663576114786114726024356001600160701b038516611cbc565b85611cbc565b935b861515871561165a575b1561160957836103e88102046103e814841517156115f55760038702878104600314881517156115e1576114bc906103e88602611cbc565b6103e882028281046103e814831517156115b9576003870290878204600314881517156115cd576114f792916114f191611cbc565b90611cc9565b6115136001600160701b0385166001600160701b038516611cc9565b90620f4240918281029281840414901517156115b957106115855761153793611e2d565b60405192835260208301526004356040830152602435606083015260443516907fd78ad95fa46c994b6551d0da85fc275fe613ce37657fb8d5e3d130840159d82260803392a3600160055580f35b60405162461bcd60e51b815260206004820152600c60248201526b556e697377617056323a204b60a01b6044820152606490fd5b634e487b7160e01b8a52601160045260248afd5b634e487b7160e01b8b52601160045260248bfd5b634e487b7160e01b89526011600452602489fd5b634e487b7160e01b88526011600452602488fd5b60405162461bcd60e51b8152602060048201526024808201527f556e697377617056323a20494e53554646494349454e545f494e5055545f414d60448201526313d5539560e21b6064820152608490fd5b50841515611484565b869361147a565b859461143e565b9092506020813d60201161169d575b8161168d60209383611b16565b8101031261020357519138611401565b3d9150611680565b6040513d88823e3d90fd5b9291506020833d6020116116df575b816116cc60209383611b16565b81010312610203579151909160206113d4565b3d91506116bf565b83604435163b156117aa576040516304347a1760e21b815233600482015260043560248201526024356044820152608060648201526064356004013560848201526064356004013560246064350160a48301378660a46064356004013583010152868160a481601f19601f60643560040135011681010301818389604435165af1801561051357611779575b506113a7565b67ffffffffffffffff819792971161179657604052946020611773565b634e487b7160e01b82526041600452602482fd5b8580fd5b60405163a9059cbb60e01b8152604480356001600160a01b0316600483015260248035908301526020908290818a885af18015610513576117f0575b5061139b565b6118079060203d8111610466576104568183611b16565b50386117ea565b60405163a9059cbb60e01b8152604480356001600160a01b03166004808401919091523560248301526020908290818a865af1801561051357611852575b50611393565b6118699060203d8111610466576104568183611b16565b503861184c565b60405162461bcd60e51b8152602060048201526015602482015274556e697377617056323a20494e56414c49445f544f60581b6044820152606490fd5b508385604435161415611389565b60405162461bcd60e51b815260206004820152602160248201527f556e697377617056323a20494e53554646494349454e545f4c495155494449546044820152605960f81b6064820152608490fd5b506001600160701b0381166024351061136b565b60405162461bcd60e51b815260206004820152602560248201527f556e697377617056323a20494e53554646494349454e545f4f55545055545f416044820152641353d5539560da1b6064820152608490fd5b506024351515611330565b600435906001600160a01b038216820361020357565b602435906001600160a01b038216820361020357565b6020808252825181830181905290939260005b8281106119dd57505060409293506000838284010152601f8019910116010190565b8181018601518482016040015285016119bb565b919082018092116119fe57565b634e487b7160e01b600052601160045260246000fd5b6001600160a01b03908116918215611ac55716918215611a755760207f8c5be1e5ebec7d5bd14f71427d1e84f3dd0314c0f7b2291e5b200ac8c7c3b925918360005260018252604060002085600052825280604060002055604051908152a3565b60405162461bcd60e51b815260206004820152602260248201527f45524332303a20617070726f766520746f20746865207a65726f206164647265604482015261737360f01b6064820152608490fd5b60405162461bcd60e51b8152602060048201526024808201527f45524332303a20617070726f76652066726f6d20746865207a65726f206164646044820152637265737360e01b6064820152608490fd5b90601f8019910116810190811067ffffffffffffffff821117611b3857604052565b634e487b7160e01b600052604160045260246000fd5b6001600160a01b03908116918215611c695716918215611c1857600082815280602052604081205491808310611bc457604082827fddf252ad1be2c89b69c2b068fc378daa952ba7f163c4a11628f55a4df523b3ef958760209652828652038282205586815220818154019055604051908152a3565b60405162461bcd60e51b815260206004820152602660248201527f45524332303a207472616e7366657220616d6f756e7420657863656564732062604482015265616c616e636560d01b6064820152608490fd5b60405162461bcd60e51b815260206004820152602360248201527f45524332303a207472616e7366657220746f20746865207a65726f206164647260448201526265737360e81b6064820152608490fd5b60405162461bcd60e51b815260206004820152602560248201527f45524332303a207472616e736665722066726f6d20746865207a65726f206164604482015264647265737360d81b6064820152608490fd5b919082039182116119fe57565b818102929181159184041417156119fe57565b8115611ce6570490565b634e487b7160e01b600052601260045260246000fd5b600260055414611d0d576002600555565b60405162461bcd60e51b815260206004820152601f60248201527f5265656e7472616e637947756172643a207265656e7472616e742063616c6c006044820152606490fd5b6001600160a01b0316908115611db0577fddf252ad1be2c89b69c2b068fc378daa952ba7f163c4a11628f55a4df523b3ef602082611d946000946002546119f1565b60025584845283825260408420818154019055604051908152a3565b60405162461bcd60e51b815260206004820152601f60248201527f45524332303a206d696e7420746f20746865207a65726f2061646472657373006044820152606490fd5b60701b9060ff60701b8216916001600160781b0360701b1682036119fe57565b906001600160781b03809116918215611ce657160490565b9291926001600160701b03908181111580611f9f575b15611f64576009549063ffffffff9160e01c824216038281116119fe577f1c411e9a96e071241c2f21f7726b17ae89e3cab4c78be50e062b03a9fffbbad19660409685948593169081151580611f59575b80611f4e575b611ee5575b50505050607093841b6dffffffffffffffffffffffffffff60701b1691169081174260e01b6001600160e01b031916176009819055845191825290921c166020820152a1565b611f1f611f3a93611f35611f429685941691611f2d611f258b611f0786611df5565b9316968793611f1f6001600160781b03998a92611e15565b16611cc9565b600a546119f1565b600a55611df5565b611e15565b600b546119f1565b600b5581388080611e9f565b508381161515611e9a565b508383161515611e94565b60405162461bcd60e51b8152602060048201526013602482015272556e697377617056323a204f564552464c4f5760681b6044820152606490fd5b5081831115611e43565b600654604051622fcfcb60e31b815292939291906001600160a01b03906020908490600490829085165afa9283156120d557600093612097575b508216151593600c5491856000146120865782612001575b50505050565b610d4961201e91612024936001600160701b038091169116611cc9565b916120f9565b90818111612033575b80611ffb565b6120436002546114f18484611cbc565b906005810290808204600514901517156119fe5761206a92612064916119f1565b90611cdc565b80612076575b8061202d565b61207f91611d52565b3880612070565b5050905061209057565b6000600c55565b6020939193813d82116120cd575b816120b260209383611b16565b8101031261051e575190838216820361025657509138611fe3565b3d91506120a5565b6040513d6000823e3d90fd5b90816020910312610203575180151581036102035790565b906000600383111561214157508160019080821c8281018091116119fe5791905b84831061212657505050565b90919350612138846110438184611cdc565b821c919061211a565b9161214857565b6001915056fea2646970667358221220b8d019374bd7dfa89682a9173b44a79597143fb200123ba744c9787471b323fd64736f6c63430008130033","opcodes":"PUSH1 0x80 CALLVALUE PUSH3 0x33B JUMPI PUSH1 0x1 PUSH1 0x1 PUSH1 0x40 SHL SUB SWAP1 PUSH1 0x40 SWAP1 DUP1 DUP3 ADD DUP4 DUP2 GT DUP3 DUP3 LT OR PUSH3 0x23B JUMPI DUP3 MSTORE PUSH1 0xA DUP2 MSTORE PUSH1 0x20 SWAP3 PUSH10 0x2AB734B9BBB0B8102B19 PUSH1 0xB1 SHL DUP5 DUP4 ADD MSTORE DUP3 MLOAD SWAP1 DUP4 DUP3 ADD DUP3 DUP2 LT DUP3 DUP3 GT OR PUSH3 0x23B JUMPI DUP5 MSTORE PUSH1 0x6 DUP3 MSTORE PUSH6 0x2AA72496AB19 PUSH1 0xD1 SHL DUP6 DUP4 ADD MSTORE DUP3 MLOAD DUP2 DUP2 GT PUSH3 0x23B JUMPI PUSH1 0x3 SWAP1 DUP2 SLOAD SWAP1 PUSH1 0x1 SWAP6 DUP7 DUP4 DUP2 SHR SWAP4 AND DUP1 ISZERO PUSH3 0x330 JUMPI JUMPDEST DUP10 DUP5 LT EQ PUSH3 0x31A JUMPI DUP2 SWAP1 PUSH1 0x1F SWAP4 DUP5 DUP2 GT PUSH3 0x2C4 JUMPI JUMPDEST POP DUP10 SWAP1 DUP5 DUP4 GT PUSH1 0x1 EQ PUSH3 0x25D JUMPI PUSH1 0x0 SWAP3 PUSH3 0x251 JUMPI JUMPDEST POP POP PUSH1 0x0 NOT DUP3 DUP6 SHL SHR NOT AND SWAP1 DUP7 SHL OR DUP3 SSTORE JUMPDEST DUP4 MLOAD SWAP3 DUP4 GT PUSH3 0x23B JUMPI PUSH1 0x4 SWAP4 DUP5 SLOAD SWAP8 DUP7 DUP10 DUP2 SHR SWAP10 AND DUP1 ISZERO PUSH3 0x230 JUMPI JUMPDEST DUP2 DUP11 LT EQ PUSH3 0x21B JUMPI DUP9 DUP4 DUP7 SWAP8 SWAP9 SWAP10 SWAP11 GT PUSH3 0x1BF JUMPI JUMPDEST POP DUP1 SWAP3 DUP6 GT PUSH1 0x1 EQ PUSH3 0x151 JUMPI POP PUSH1 0x0 SWAP4 PUSH3 0x145 JUMPI JUMPDEST POP POP DUP3 DUP6 SHL SWAP3 PUSH1 0x0 NOT SWAP2 SHL SHR NOT AND OR SWAP1 SSTORE JUMPDEST PUSH1 0x5 SSTORE PUSH1 0x6 DUP1 SLOAD PUSH1 0x1 PUSH1 0x1 PUSH1 0xA0 SHL SUB NOT AND CALLER OR SWAP1 SSTORE MLOAD PUSH2 0x2184 SWAP1 DUP2 PUSH3 0x341 DUP3 CODECOPY RETURN JUMPDEST ADD MLOAD SWAP2 POP CODESIZE DUP1 PUSH3 0x110 JUMP JUMPDEST SWAP3 SWAP2 SWAP1 DUP8 SWAP6 POP PUSH1 0x1F NOT DUP6 AND DUP8 PUSH1 0x0 MSTORE DUP5 PUSH1 0x0 KECCAK256 SWAP5 PUSH1 0x0 SWAP1 JUMPDEST DUP3 DUP3 LT PUSH3 0x1A5 JUMPI POP POP DUP6 GT PUSH3 0x18A JUMPI JUMPDEST POP POP POP POP DUP2 SHL ADD SWAP1 SSTORE PUSH3 0x122 JUMP JUMPDEST ADD MLOAD SWAP1 PUSH1 0xF8 DUP5 PUSH1 0x0 NOT SWAP3 SHL AND SHR NOT AND SWAP1 SSTORE CODESIZE DUP1 DUP1 DUP1 PUSH3 0x17B JUMP JUMPDEST DUP5 DUP5 ADD MLOAD DUP8 SSTORE DUP11 SWAP9 SWAP1 SWAP7 ADD SWAP6 SWAP4 DUP5 ADD SWAP4 SWAP1 DUP2 ADD SWAP1 PUSH3 0x169 JUMP JUMPDEST SWAP1 SWAP2 SWAP3 SWAP4 SWAP5 POP DUP7 PUSH1 0x0 MSTORE DUP2 PUSH1 0x0 KECCAK256 DUP5 DUP1 DUP9 ADD PUSH1 0x5 SHR DUP3 ADD SWAP3 DUP5 DUP10 LT PUSH3 0x211 JUMPI JUMPDEST SWAP2 DUP11 SWAP2 DUP10 SWAP9 SWAP8 SWAP7 SWAP6 SWAP5 SWAP4 ADD PUSH1 0x5 SHR ADD SWAP2 JUMPDEST DUP3 DUP2 LT PUSH3 0x201 JUMPI POP POP PUSH3 0xF9 JUMP JUMPDEST PUSH1 0x0 DUP2 SSTORE DUP9 SWAP8 POP DUP11 SWAP2 ADD PUSH3 0x1F1 JUMP JUMPDEST SWAP3 POP DUP2 SWAP3 PUSH3 0x1E0 JUMP JUMPDEST PUSH1 0x22 DUP7 PUSH4 0x4E487B71 PUSH1 0xE0 SHL PUSH1 0x0 MSTORE MSTORE PUSH1 0x24 PUSH1 0x0 REVERT JUMPDEST SWAP9 PUSH1 0x7F AND SWAP9 PUSH3 0xE2 JUMP JUMPDEST PUSH4 0x4E487B71 PUSH1 0xE0 SHL PUSH1 0x0 MSTORE PUSH1 0x41 PUSH1 0x4 MSTORE PUSH1 0x24 PUSH1 0x0 REVERT JUMPDEST ADD MLOAD SWAP1 POP CODESIZE DUP1 PUSH3 0xB2 JUMP JUMPDEST SWAP1 DUP9 SWAP4 POP PUSH1 0x1F NOT DUP4 AND SWAP2 DUP7 PUSH1 0x0 MSTORE DUP12 PUSH1 0x0 KECCAK256 SWAP3 PUSH1 0x0 JUMPDEST DUP14 DUP3 DUP3 LT PUSH3 0x2AD JUMPI POP POP DUP5 GT PUSH3 0x294 JUMPI JUMPDEST POP POP POP DUP2 SHL ADD DUP3 SSTORE PUSH3 0xC4 JUMP JUMPDEST ADD MLOAD PUSH1 0x0 NOT DUP4 DUP8 SHL PUSH1 0xF8 AND SHR NOT AND SWAP1 SSTORE CODESIZE DUP1 DUP1 PUSH3 0x286 JUMP JUMPDEST DUP4 DUP6 ADD MLOAD DUP7 SSTORE DUP13 SWAP8 SWAP1 SWAP6 ADD SWAP5 SWAP4 DUP5 ADD SWAP4 ADD PUSH3 0x273 JUMP JUMPDEST SWAP1 SWAP2 POP DUP5 PUSH1 0x0 MSTORE DUP10 PUSH1 0x0 KECCAK256 DUP5 DUP1 DUP6 ADD PUSH1 0x5 SHR DUP3 ADD SWAP3 DUP13 DUP7 LT PUSH3 0x310 JUMPI JUMPDEST SWAP2 DUP11 SWAP2 DUP7 SWAP6 SWAP5 SWAP4 ADD PUSH1 0x5 SHR ADD SWAP2 JUMPDEST DUP3 DUP2 LT PUSH3 0x300 JUMPI POP POP PUSH3 0x9B JUMP JUMPDEST PUSH1 0x0 DUP2 SSTORE DUP6 SWAP5 POP DUP11 SWAP2 ADD PUSH3 0x2F0 JUMP JUMPDEST SWAP3 POP DUP2 SWAP3 PUSH3 0x2E2 JUMP JUMPDEST PUSH4 0x4E487B71 PUSH1 0xE0 SHL PUSH1 0x0 MSTORE PUSH1 0x22 PUSH1 0x4 MSTORE PUSH1 0x24 PUSH1 0x0 REVERT JUMPDEST SWAP3 PUSH1 0x7F AND SWAP3 PUSH3 0x84 JUMP JUMPDEST PUSH1 0x0 DUP1 REVERT INVALID PUSH1 0x80 PUSH1 0x40 MSTORE PUSH1 0x4 CALLDATASIZE LT ISZERO PUSH2 0x12 JUMPI PUSH1 0x0 DUP1 REVERT JUMPDEST PUSH1 0x0 DUP1 CALLDATALOAD PUSH1 0xE0 SHR DUP1 PUSH4 0x22C0D9F EQ PUSH2 0x12AD JUMPI DUP1 PUSH4 0x6FDDE03 EQ PUSH2 0x11EF JUMPI DUP1 PUSH4 0x902F1AC EQ PUSH2 0x1196 JUMPI DUP1 PUSH4 0x95EA7B3 EQ PUSH2 0x116F JUMPI DUP1 PUSH4 0xDFE1681 EQ PUSH2 0x1146 JUMPI DUP1 PUSH4 0x18160DDD EQ PUSH2 0x1128 JUMPI DUP1 PUSH4 0x23B872DD EQ PUSH2 0x106B JUMPI DUP1 PUSH4 0x313CE567 EQ PUSH2 0x104F JUMPI DUP1 PUSH4 0x39509351 EQ PUSH2 0xFF5 JUMPI DUP1 PUSH4 0x485CC955 EQ PUSH2 0xF59 JUMPI DUP1 PUSH4 0x5909C0D5 EQ PUSH2 0xF3B JUMPI DUP1 PUSH4 0x5A3D5493 EQ PUSH2 0xF1D JUMPI DUP1 PUSH4 0x6A627842 EQ PUSH2 0xC4E JUMPI DUP1 PUSH4 0x70A08231 EQ PUSH2 0xC16 JUMPI DUP1 PUSH4 0x7464FC3D EQ PUSH2 0xBF8 JUMPI DUP1 PUSH4 0x89AFCB44 EQ PUSH2 0x71C JUMPI DUP1 PUSH4 0x95D89B41 EQ PUSH2 0x619 JUMPI DUP1 PUSH4 0xA457C2D7 EQ PUSH2 0x571 JUMPI DUP1 PUSH4 0xA9059CBB EQ PUSH2 0x53F JUMPI DUP1 PUSH4 0xBA9A7A56 EQ PUSH2 0x522 JUMPI DUP1 PUSH4 0xBC25CF77 EQ PUSH2 0x303 JUMPI DUP1 PUSH4 0xC45A0155 EQ PUSH2 0x2DA JUMPI DUP1 PUSH4 0xD21220A7 EQ PUSH2 0x2B1 JUMPI DUP1 PUSH4 0xDD62ED3E EQ PUSH2 0x259 JUMPI PUSH4 0xFFF6CAE9 EQ PUSH2 0x130 JUMPI PUSH1 0x0 DUP1 REVERT JUMPDEST CALLVALUE PUSH2 0x256 JUMPI DUP1 PUSH1 0x3 NOT CALLDATASIZE ADD SLT PUSH2 0x256 JUMPI PUSH2 0x148 PUSH2 0x1CFC JUMP JUMPDEST PUSH1 0x7 SLOAD PUSH1 0x40 MLOAD PUSH4 0x70A08231 PUSH1 0xE0 SHL DUP1 DUP3 MSTORE ADDRESS PUSH1 0x4 DUP4 ADD MSTORE SWAP2 PUSH1 0x20 SWAP2 PUSH1 0x1 PUSH1 0x1 PUSH1 0xA0 SHL SUB SWAP2 DUP4 SWAP1 DUP3 SWAP1 PUSH1 0x24 SWAP1 DUP3 SWAP1 DUP7 AND GAS STATICCALL SWAP2 DUP3 ISZERO PUSH2 0x24B JUMPI DUP4 SWAP2 DUP7 SWAP4 PUSH2 0x21A JUMPI JUMPDEST POP PUSH1 0x8 SLOAD AND SWAP4 PUSH1 0x24 PUSH1 0x40 MLOAD DUP1 SWAP7 DUP2 SWAP4 DUP3 MSTORE ADDRESS PUSH1 0x4 DUP4 ADD MSTORE GAS STATICCALL SWAP2 DUP3 ISZERO PUSH2 0x20F JUMPI DUP5 SWAP3 PUSH2 0x1D8 JUMPI JUMPDEST POP PUSH2 0x1D0 SWAP3 POP PUSH1 0x9 SLOAD SWAP2 PUSH1 0x1 PUSH1 0x1 PUSH1 0x70 SHL SUB DUP1 DUP5 PUSH1 0x70 SHR AND SWAP4 AND SWAP2 PUSH2 0x1E2D JUMP JUMPDEST PUSH1 0x1 PUSH1 0x5 SSTORE DUP1 RETURN JUMPDEST SWAP1 SWAP2 POP DUP3 DUP2 RETURNDATASIZE DUP4 GT PUSH2 0x208 JUMPI JUMPDEST PUSH2 0x1EF DUP2 DUP4 PUSH2 0x1B16 JUMP JUMPDEST DUP2 ADD SUB SLT PUSH2 0x203 JUMPI PUSH2 0x1D0 SWAP2 MLOAD SWAP1 CODESIZE PUSH2 0x1B0 JUMP JUMPDEST PUSH1 0x0 DUP1 REVERT JUMPDEST POP RETURNDATASIZE PUSH2 0x1E5 JUMP JUMPDEST PUSH1 0x40 MLOAD RETURNDATASIZE DUP7 DUP3 RETURNDATACOPY RETURNDATASIZE SWAP1 REVERT JUMPDEST DUP3 DUP2 SWAP4 SWAP3 SWAP5 POP RETURNDATASIZE DUP4 GT PUSH2 0x244 JUMPI JUMPDEST PUSH2 0x232 DUP2 DUP4 PUSH2 0x1B16 JUMP JUMPDEST DUP2 ADD SUB SLT PUSH2 0x203 JUMPI DUP3 SWAP1 MLOAD SWAP2 CODESIZE PUSH2 0x189 JUMP JUMPDEST POP RETURNDATASIZE PUSH2 0x228 JUMP JUMPDEST PUSH1 0x40 MLOAD RETURNDATASIZE DUP8 DUP3 RETURNDATACOPY RETURNDATASIZE SWAP1 REVERT JUMPDEST DUP1 REVERT JUMPDEST POP CALLVALUE PUSH2 0x256 JUMPI PUSH1 0x40 CALLDATASIZE PUSH1 0x3 NOT ADD SLT PUSH2 0x256 JUMPI PUSH1 0x20 PUSH2 0x2A9 PUSH2 0x278 PUSH2 0x197C JUMP JUMPDEST PUSH2 0x280 PUSH2 0x1992 JUMP JUMPDEST SWAP1 PUSH1 0x1 DUP1 PUSH1 0xA0 SHL SUB DUP1 SWAP2 AND PUSH1 0x0 MSTORE PUSH1 0x1 PUSH1 0x20 MSTORE PUSH1 0x40 PUSH1 0x0 KECCAK256 SWAP2 AND PUSH1 0x0 MSTORE PUSH1 0x20 MSTORE PUSH1 0x40 PUSH1 0x0 KECCAK256 SLOAD SWAP1 JUMP JUMPDEST PUSH1 0x40 MLOAD SWAP1 DUP2 MSTORE RETURN JUMPDEST POP CALLVALUE PUSH2 0x256 JUMPI DUP1 PUSH1 0x3 NOT CALLDATASIZE ADD SLT PUSH2 0x256 JUMPI PUSH1 0x8 SLOAD PUSH1 0x40 MLOAD PUSH1 0x1 PUSH1 0x1 PUSH1 0xA0 SHL SUB SWAP1 SWAP2 AND DUP2 MSTORE PUSH1 0x20 SWAP1 RETURN JUMPDEST POP CALLVALUE PUSH2 0x256 JUMPI DUP1 PUSH1 0x3 NOT CALLDATASIZE ADD SLT PUSH2 0x256 JUMPI PUSH1 0x6 SLOAD PUSH1 0x40 MLOAD PUSH1 0x1 PUSH1 0x1 PUSH1 0xA0 SHL SUB SWAP1 SWAP2 AND DUP2 MSTORE PUSH1 0x20 SWAP1 RETURN JUMPDEST POP CALLVALUE PUSH2 0x256 JUMPI PUSH1 0x20 DUP1 PUSH1 0x3 NOT CALLDATASIZE ADD SLT PUSH2 0x51E JUMPI PUSH2 0x31E PUSH2 0x197C JUMP JUMPDEST PUSH2 0x326 PUSH2 0x1CFC JUMP JUMPDEST PUSH1 0x7 SLOAD PUSH1 0x8 SLOAD PUSH1 0x40 MLOAD PUSH4 0x70A08231 PUSH1 0xE0 SHL DUP1 DUP3 MSTORE ADDRESS PUSH1 0x4 DUP4 ADD MSTORE SWAP1 SWAP4 SWAP1 SWAP3 PUSH1 0x1 PUSH1 0x1 PUSH1 0xA0 SHL SUB SWAP1 DUP2 AND SWAP3 AND SWAP1 DUP6 DUP6 PUSH1 0x24 DUP2 DUP7 GAS STATICCALL SWAP5 DUP6 ISZERO PUSH2 0x513 JUMPI DUP8 SWAP6 PUSH2 0x4E4 JUMPI JUMPDEST POP PUSH2 0x380 PUSH1 0x1 PUSH1 0x1 PUSH1 0x70 SHL SUB SWAP6 DUP7 PUSH1 0x9 SLOAD AND SWAP1 PUSH2 0x1CBC JUMP JUMPDEST PUSH1 0x40 MLOAD PUSH4 0xA9059CBB PUSH1 0xE0 SHL DUP1 DUP3 MSTORE PUSH1 0x1 PUSH1 0x1 PUSH1 0xA0 SHL SUB DUP5 AND PUSH1 0x4 DUP4 ADD MSTORE PUSH1 0x24 DUP3 ADD SWAP3 SWAP1 SWAP3 MSTORE SWAP1 SWAP4 DUP8 SWAP1 DUP3 SWAP1 PUSH1 0x44 SWAP1 DUP3 SWAP1 DUP13 SWAP1 GAS CALL DUP1 ISZERO PUSH2 0x4D9 JUMPI PUSH2 0x4BC JUMPI JUMPDEST POP PUSH1 0x40 MLOAD SWAP4 DUP5 MSTORE ADDRESS PUSH1 0x4 DUP6 ADD MSTORE DUP7 DUP7 DUP6 PUSH1 0x24 DUP2 DUP7 GAS STATICCALL DUP1 ISZERO PUSH2 0x4AF JUMPI DUP8 SWAP6 DUP3 SWAP2 PUSH2 0x478 JUMPI JUMPDEST POP PUSH2 0x3FA SWAP1 PUSH2 0x427 SWAP8 PUSH1 0x9 SLOAD PUSH1 0x70 SHR AND SWAP1 PUSH2 0x1CBC JUMP JUMPDEST PUSH1 0x40 MLOAD SWAP5 DUP6 MSTORE PUSH1 0x1 PUSH1 0x1 PUSH1 0xA0 SHL SUB SWAP1 SWAP3 AND PUSH1 0x4 DUP6 ADD MSTORE PUSH1 0x24 DUP5 ADD SWAP2 SWAP1 SWAP2 MSTORE SWAP2 SWAP4 DUP5 SWAP3 DUP4 SWAP2 DUP3 SWAP1 PUSH1 0x44 DUP3 ADD SWAP1 JUMP JUMPDEST SUB SWAP3 GAS CALL DUP1 ISZERO PUSH2 0x46D JUMPI PUSH2 0x43F JUMPI JUMPDEST DUP3 PUSH1 0x1 PUSH1 0x5 SSTORE DUP1 RETURN JUMPDEST DUP2 PUSH2 0x45E SWAP3 SWAP1 RETURNDATASIZE LT PUSH2 0x466 JUMPI JUMPDEST PUSH2 0x456 DUP2 DUP4 PUSH2 0x1B16 JUMP JUMPDEST DUP2 ADD SWAP1 PUSH2 0x20E1 JUMP JUMPDEST POP CODESIZE DUP1 PUSH2 0x436 JUMP JUMPDEST POP RETURNDATASIZE PUSH2 0x44C JUMP JUMPDEST PUSH1 0x40 MLOAD RETURNDATASIZE DUP6 DUP3 RETURNDATACOPY RETURNDATASIZE SWAP1 REVERT JUMPDEST SWAP6 DUP1 SWAP3 POP DUP7 SWAP2 POP RETURNDATASIZE DUP4 GT PUSH2 0x4A8 JUMPI JUMPDEST PUSH2 0x491 DUP2 DUP4 PUSH2 0x1B16 JUMP JUMPDEST DUP2 ADD SUB SLT PUSH2 0x203 JUMPI SWAP3 MLOAD DUP6 SWAP4 SWAP1 DUP8 SWAP1 PUSH2 0x427 PUSH2 0x3E4 JUMP JUMPDEST POP RETURNDATASIZE PUSH2 0x487 JUMP JUMPDEST POP PUSH1 0x40 MLOAD SWAP1 RETURNDATASIZE SWAP1 DUP3 RETURNDATACOPY RETURNDATASIZE SWAP1 REVERT JUMPDEST PUSH2 0x4D2 SWAP1 DUP8 RETURNDATASIZE DUP10 GT PUSH2 0x466 JUMPI PUSH2 0x456 DUP2 DUP4 PUSH2 0x1B16 JUMP JUMPDEST POP CODESIZE PUSH2 0x3BF JUMP JUMPDEST PUSH1 0x40 MLOAD RETURNDATASIZE DUP11 DUP3 RETURNDATACOPY RETURNDATASIZE SWAP1 REVERT JUMPDEST SWAP1 SWAP5 POP DUP6 DUP2 DUP2 RETURNDATASIZE DUP4 GT PUSH2 0x50C JUMPI JUMPDEST PUSH2 0x4FC DUP2 DUP4 PUSH2 0x1B16 JUMP JUMPDEST DUP2 ADD SUB SLT PUSH2 0x203 JUMPI MLOAD SWAP4 CODESIZE PUSH2 0x368 JUMP JUMPDEST POP RETURNDATASIZE PUSH2 0x4F2 JUMP JUMPDEST PUSH1 0x40 MLOAD RETURNDATASIZE DUP10 DUP3 RETURNDATACOPY RETURNDATASIZE SWAP1 REVERT JUMPDEST POP DUP1 REVERT JUMPDEST POP CALLVALUE PUSH2 0x256 JUMPI DUP1 PUSH1 0x3 NOT CALLDATASIZE ADD SLT PUSH2 0x256 JUMPI PUSH1 0x20 PUSH1 0x40 MLOAD PUSH2 0x3E8 DUP2 MSTORE RETURN JUMPDEST POP CALLVALUE PUSH2 0x256 JUMPI PUSH1 0x40 CALLDATASIZE PUSH1 0x3 NOT ADD SLT PUSH2 0x256 JUMPI PUSH2 0x566 PUSH2 0x55C PUSH2 0x197C JUMP JUMPDEST PUSH1 0x24 CALLDATALOAD SWAP1 CALLER PUSH2 0x1B4E JUMP JUMPDEST PUSH1 0x20 PUSH1 0x40 MLOAD PUSH1 0x1 DUP2 MSTORE RETURN JUMPDEST POP CALLVALUE PUSH2 0x256 JUMPI PUSH1 0x40 CALLDATASIZE PUSH1 0x3 NOT ADD SLT PUSH2 0x256 JUMPI PUSH2 0x58B PUSH2 0x197C JUMP JUMPDEST CALLER PUSH1 0x0 SWAP1 DUP2 MSTORE PUSH1 0x1 PUSH1 0x20 SWAP1 DUP2 MSTORE PUSH1 0x40 DUP1 DUP4 KECCAK256 PUSH1 0x1 PUSH1 0x1 PUSH1 0xA0 SHL SUB DUP6 AND DUP5 MSTORE SWAP1 SWAP2 MSTORE SWAP1 KECCAK256 SLOAD SWAP1 PUSH1 0x24 CALLDATALOAD DUP1 DUP4 LT PUSH2 0x5C6 JUMPI PUSH2 0x566 SWAP3 SUB SWAP1 CALLER PUSH2 0x1A14 JUMP JUMPDEST PUSH1 0x40 MLOAD PUSH3 0x461BCD PUSH1 0xE5 SHL DUP2 MSTORE PUSH1 0x20 PUSH1 0x4 DUP3 ADD MSTORE PUSH1 0x25 PUSH1 0x24 DUP3 ADD MSTORE PUSH32 0x45524332303A2064656372656173656420616C6C6F77616E63652062656C6F77 PUSH1 0x44 DUP3 ADD MSTORE PUSH5 0x207A65726F PUSH1 0xD8 SHL PUSH1 0x64 DUP3 ADD MSTORE PUSH1 0x84 SWAP1 REVERT JUMPDEST POP CALLVALUE PUSH2 0x256 JUMPI DUP1 PUSH1 0x3 NOT CALLDATASIZE ADD SLT PUSH2 0x256 JUMPI PUSH1 0x40 MLOAD PUSH1 0x0 SWAP1 PUSH1 0x4 SLOAD PUSH1 0x1 DUP2 DUP2 SHR SWAP1 DUP1 DUP4 AND SWAP3 DUP4 ISZERO PUSH2 0x712 JUMPI JUMPDEST PUSH1 0x20 SWAP4 DUP5 DUP5 LT DUP2 EQ PUSH2 0x6FE JUMPI DUP4 DUP7 MSTORE SWAP1 DUP2 ISZERO PUSH2 0x6DE JUMPI POP PUSH1 0x1 EQ PUSH2 0x683 JUMPI JUMPDEST PUSH2 0x67F DUP5 PUSH2 0x673 DUP2 DUP9 SUB DUP3 PUSH2 0x1B16 JUMP JUMPDEST PUSH1 0x40 MLOAD SWAP2 DUP3 SWAP2 DUP3 PUSH2 0x19A8 JUMP JUMPDEST SUB SWAP1 RETURN JUMPDEST PUSH1 0x4 PUSH1 0x0 SWAP1 DUP2 MSTORE SWAP3 SWAP5 POP PUSH32 0x8A35ACFBC15FF81A39AE7D344FD709F28E8600B4AA8C65C6B64BFE7FE36BD19B JUMPDEST DUP3 DUP5 LT PUSH2 0x6CB JUMPI POP POP POP DUP2 PUSH2 0x67F SWAP4 PUSH2 0x673 SWAP3 DUP3 ADD ADD SWAP4 PUSH2 0x663 JUMP JUMPDEST DUP1 SLOAD DUP6 DUP6 ADD DUP8 ADD MSTORE SWAP3 DUP6 ADD SWAP3 DUP2 ADD PUSH2 0x6AF JUMP JUMPDEST PUSH1 0xFF NOT AND DUP6 DUP6 ADD MSTORE POP POP ISZERO ISZERO PUSH1 0x5 SHL DUP3 ADD ADD SWAP2 POP PUSH2 0x673 DUP2 PUSH2 0x67F PUSH2 0x663 JUMP JUMPDEST PUSH4 0x4E487B71 PUSH1 0xE0 SHL DUP8 MSTORE PUSH1 0x22 PUSH1 0x4 MSTORE PUSH1 0x24 DUP8 REVERT JUMPDEST SWAP2 PUSH1 0x7F AND SWAP2 PUSH2 0x644 JUMP JUMPDEST POP CALLVALUE PUSH2 0x256 JUMPI PUSH1 0x20 CALLDATASIZE PUSH1 0x3 NOT ADD SLT PUSH2 0x256 JUMPI PUSH2 0x736 PUSH2 0x197C JUMP JUMPDEST PUSH2 0x73E PUSH2 0x1CFC JUMP JUMPDEST PUSH2 0x75D PUSH1 0x9 SLOAD PUSH1 0x1 PUSH1 0x1 PUSH1 0x70 SHL SUB SWAP2 DUP3 DUP3 AND SWAP3 DUP3 PUSH1 0x70 SHR AND SWAP2 PUSH1 0xE0 SHR SWAP1 JUMP JUMPDEST POP PUSH1 0x7 SLOAD PUSH1 0x8 SLOAD PUSH1 0x40 MLOAD PUSH4 0x70A08231 PUSH1 0xE0 SHL DUP2 MSTORE ADDRESS PUSH1 0x4 DUP3 ADD MSTORE PUSH1 0x1 PUSH1 0x1 PUSH1 0xA0 SHL SUB SWAP2 DUP3 AND SWAP7 SWAP5 SWAP6 SWAP2 SWAP1 SWAP3 AND SWAP4 SWAP1 SWAP3 SWAP1 PUSH1 0x20 DUP4 PUSH1 0x24 DUP2 DUP9 GAS STATICCALL SWAP3 DUP4 ISZERO PUSH2 0x4AF JUMPI DUP2 SWAP4 PUSH2 0xBC4 JUMPI JUMPDEST POP PUSH1 0x40 MLOAD PUSH4 0x70A08231 PUSH1 0xE0 SHL DUP2 MSTORE ADDRESS PUSH1 0x4 DUP3 ADD MSTORE SWAP7 PUSH1 0x20 DUP9 PUSH1 0x24 DUP2 DUP5 GAS STATICCALL SWAP6 DUP7 ISZERO PUSH2 0xBB9 JUMPI DUP8 SWAP9 DUP4 SWAP9 SWAP8 PUSH2 0xB82 JUMPI JUMPDEST POP ADDRESS DUP4 MSTORE DUP3 PUSH1 0x20 MSTORE PUSH2 0x80F PUSH2 0x803 PUSH2 0x803 PUSH2 0x808 PUSH2 0x7F6 DUP9 PUSH1 0x40 DUP10 KECCAK256 SLOAD SWAP13 PUSH2 0x1FA9 JUMP JUMPDEST SWAP9 PUSH1 0x2 SLOAD SWAP4 DUP5 SWAP2 DUP14 PUSH2 0x1CC9 JUMP JUMPDEST PUSH2 0x1CDC JUMP JUMPDEST SWAP11 DUP11 PUSH2 0x1CC9 JUMP JUMPDEST SWAP7 DUP9 ISZERO ISZERO DUP1 PUSH2 0xB79 JUMPI JUMPDEST ISZERO PUSH2 0xB23 JUMPI ADDRESS ISZERO PUSH2 0xAD4 JUMPI ADDRESS DUP5 MSTORE DUP4 PUSH1 0x20 MSTORE PUSH1 0x40 DUP5 KECCAK256 SLOAD SWAP1 DUP1 DUP3 LT PUSH2 0xA84 JUMPI DUP1 DUP6 SWAP3 ADDRESS DUP5 MSTORE DUP4 PUSH1 0x20 MSTORE SUB PUSH1 0x40 DUP4 KECCAK256 SSTORE DUP1 PUSH1 0x2 SLOAD SUB PUSH1 0x2 SSTORE PUSH1 0x40 MLOAD SWAP1 DUP2 MSTORE PUSH32 0xDDF252AD1BE2C89B69C2B068FC378DAA952BA7F163C4A11628F55A4DF523B3EF PUSH1 0x20 ADDRESS SWAP3 LOG3 PUSH1 0x40 MLOAD PUSH4 0xA9059CBB PUSH1 0xE0 SHL DUP2 MSTORE PUSH1 0x1 PUSH1 0x1 PUSH1 0xA0 SHL SUB DUP8 AND PUSH1 0x4 DUP3 ADD MSTORE PUSH1 0x24 DUP2 ADD DUP10 SWAP1 MSTORE PUSH1 0x20 DUP2 PUSH1 0x44 DUP2 DUP8 DUP7 GAS CALL DUP1 ISZERO PUSH2 0x20F JUMPI PUSH2 0xA65 JUMPI JUMPDEST POP PUSH1 0x40 MLOAD PUSH4 0xA9059CBB PUSH1 0xE0 SHL DUP2 MSTORE PUSH1 0x1 PUSH1 0x1 PUSH1 0xA0 SHL SUB DUP8 AND PUSH1 0x4 DUP3 ADD MSTORE PUSH1 0x24 DUP2 ADD DUP9 SWAP1 MSTORE PUSH1 0x20 DUP2 PUSH1 0x44 DUP2 DUP8 DUP8 GAS CALL DUP1 ISZERO PUSH2 0x20F JUMPI SWAP2 PUSH1 0x20 SWAP2 PUSH1 0x24 SWAP5 SWAP4 PUSH2 0xA48 JUMPI JUMPDEST POP PUSH1 0x40 MLOAD PUSH4 0x70A08231 PUSH1 0xE0 SHL DUP2 MSTORE ADDRESS PUSH1 0x4 DUP3 ADD MSTORE SWAP4 DUP5 SWAP2 DUP3 SWAP1 GAS STATICCALL SWAP2 DUP3 ISZERO PUSH2 0x46D JUMPI DUP4 SWAP3 PUSH2 0xA13 JUMPI JUMPDEST POP PUSH1 0x20 PUSH1 0x24 SWAP2 PUSH1 0x40 MLOAD SWAP3 DUP4 DUP1 SWAP3 PUSH4 0x70A08231 PUSH1 0xE0 SHL DUP3 MSTORE ADDRESS PUSH1 0x4 DUP4 ADD MSTORE GAS STATICCALL SWAP3 DUP4 ISZERO PUSH2 0xA07 JUMPI SWAP3 PUSH2 0x9CC JUMPI JUMPDEST POP SWAP7 PUSH2 0x959 SWAP3 SWAP2 PUSH1 0x40 SWAP9 PUSH2 0x1E2D JUMP JUMPDEST PUSH2 0x9A9 JUMPI JUMPDEST DUP4 MLOAD SWAP1 DUP4 DUP3 MSTORE DUP3 PUSH1 0x20 DUP4 ADD MSTORE PUSH1 0x1 DUP1 PUSH1 0xA0 SHL SUB AND SWAP1 PUSH32 0xDCCD412F0B1252819CB1FD330B93224CA42612892BB3F4F789976E6D81936496 DUP6 CALLER SWAP3 LOG3 PUSH1 0x1 PUSH1 0x5 SSTORE DUP3 MLOAD SWAP2 DUP3 MSTORE PUSH1 0x20 DUP3 ADD MSTORE RETURN JUMPDEST PUSH2 0x9C4 PUSH1 0x9 SLOAD PUSH1 0x1 PUSH1 0x1 PUSH1 0x70 SHL SUB DUP1 DUP3 PUSH1 0x70 SHR AND SWAP2 AND PUSH2 0x1CC9 JUMP JUMPDEST PUSH1 0xC SSTORE PUSH2 0x95E JUMP JUMPDEST SWAP3 SWAP2 POP SWAP7 PUSH1 0x20 DUP4 RETURNDATASIZE PUSH1 0x20 GT PUSH2 0x9FF JUMPI JUMPDEST DUP2 PUSH2 0x9E9 PUSH1 0x20 SWAP4 DUP4 PUSH2 0x1B16 JUMP JUMPDEST DUP2 ADD SUB SLT PUSH2 0x203 JUMPI SWAP2 MLOAD SWAP2 SWAP7 SWAP1 SWAP2 SWAP1 PUSH1 0x40 PUSH2 0x94A JUMP JUMPDEST RETURNDATASIZE SWAP2 POP PUSH2 0x9DC JUMP JUMPDEST PUSH1 0x40 MLOAD SWAP1 RETURNDATASIZE SWAP1 DUP3 RETURNDATACOPY RETURNDATASIZE SWAP1 REVERT JUMPDEST SWAP1 SWAP2 POP PUSH1 0x20 DUP2 RETURNDATASIZE PUSH1 0x20 GT PUSH2 0xA40 JUMPI JUMPDEST DUP2 PUSH2 0xA2F PUSH1 0x20 SWAP4 DUP4 PUSH2 0x1B16 JUMP JUMPDEST DUP2 ADD SUB SLT PUSH2 0x203 JUMPI MLOAD SWAP1 PUSH1 0x20 PUSH2 0x91E JUMP JUMPDEST RETURNDATASIZE SWAP2 POP PUSH2 0xA22 JUMP JUMPDEST PUSH2 0xA5E SWAP1 DUP4 RETURNDATASIZE DUP6 GT PUSH2 0x466 JUMPI PUSH2 0x456 DUP2 DUP4 PUSH2 0x1B16 JUMP JUMPDEST POP CODESIZE PUSH2 0x8F5 JUMP JUMPDEST PUSH2 0xA7D SWAP1 PUSH1 0x20 RETURNDATASIZE PUSH1 0x20 GT PUSH2 0x466 JUMPI PUSH2 0x456 DUP2 DUP4 PUSH2 0x1B16 JUMP JUMPDEST POP CODESIZE PUSH2 0x8B4 JUMP JUMPDEST PUSH1 0x40 MLOAD PUSH3 0x461BCD PUSH1 0xE5 SHL DUP2 MSTORE PUSH1 0x20 PUSH1 0x4 DUP3 ADD MSTORE PUSH1 0x22 PUSH1 0x24 DUP3 ADD MSTORE PUSH32 0x45524332303A206275726E20616D6F756E7420657863656564732062616C616E PUSH1 0x44 DUP3 ADD MSTORE PUSH2 0x6365 PUSH1 0xF0 SHL PUSH1 0x64 DUP3 ADD MSTORE PUSH1 0x84 SWAP1 REVERT JUMPDEST PUSH1 0x40 MLOAD PUSH3 0x461BCD PUSH1 0xE5 SHL DUP2 MSTORE PUSH1 0x20 PUSH1 0x4 DUP3 ADD MSTORE PUSH1 0x21 PUSH1 0x24 DUP3 ADD MSTORE PUSH32 0x45524332303A206275726E2066726F6D20746865207A65726F20616464726573 PUSH1 0x44 DUP3 ADD MSTORE PUSH1 0x73 PUSH1 0xF8 SHL PUSH1 0x64 DUP3 ADD MSTORE PUSH1 0x84 SWAP1 REVERT JUMPDEST PUSH1 0x40 MLOAD PUSH3 0x461BCD PUSH1 0xE5 SHL DUP2 MSTORE PUSH1 0x20 PUSH1 0x4 DUP3 ADD MSTORE PUSH1 0x28 PUSH1 0x24 DUP3 ADD MSTORE PUSH32 0x556E697377617056323A20494E53554646494349454E545F4C49515549444954 PUSH1 0x44 DUP3 ADD MSTORE PUSH8 0x1657D09554939151 PUSH1 0xC2 SHL PUSH1 0x64 DUP3 ADD MSTORE PUSH1 0x84 SWAP1 REVERT JUMPDEST POP DUP8 ISZERO ISZERO PUSH2 0x819 JUMP JUMPDEST SWAP7 POP SWAP7 POP PUSH1 0x20 DUP7 RETURNDATASIZE PUSH1 0x20 GT PUSH2 0xBB1 JUMPI JUMPDEST DUP2 PUSH2 0xB9F PUSH1 0x20 SWAP4 DUP4 PUSH2 0x1B16 JUMP JUMPDEST DUP2 ADD SUB SLT PUSH2 0x203 JUMPI DUP8 SWAP6 MLOAD SWAP7 CODESIZE PUSH2 0x7D3 JUMP JUMPDEST RETURNDATASIZE SWAP2 POP PUSH2 0xB92 JUMP JUMPDEST PUSH1 0x40 MLOAD RETURNDATASIZE DUP5 DUP3 RETURNDATACOPY RETURNDATASIZE SWAP1 REVERT JUMPDEST SWAP1 SWAP3 POP PUSH1 0x20 DUP2 RETURNDATASIZE PUSH1 0x20 GT PUSH2 0xBF0 JUMPI JUMPDEST DUP2 PUSH2 0xBE0 PUSH1 0x20 SWAP4 DUP4 PUSH2 0x1B16 JUMP JUMPDEST DUP2 ADD SUB SLT PUSH2 0x203 JUMPI MLOAD SWAP2 CODESIZE PUSH2 0x7A4 JUMP JUMPDEST RETURNDATASIZE SWAP2 POP PUSH2 0xBD3 JUMP JUMPDEST POP CALLVALUE PUSH2 0x256 JUMPI DUP1 PUSH1 0x3 NOT CALLDATASIZE ADD SLT PUSH2 0x256 JUMPI PUSH1 0x20 PUSH1 0xC SLOAD PUSH1 0x40 MLOAD SWAP1 DUP2 MSTORE RETURN JUMPDEST POP CALLVALUE PUSH2 0x256 JUMPI PUSH1 0x20 CALLDATASIZE PUSH1 0x3 NOT ADD SLT PUSH2 0x256 JUMPI PUSH1 0x20 SWAP1 PUSH1 0x40 SWAP1 PUSH1 0x1 PUSH1 0x1 PUSH1 0xA0 SHL SUB PUSH2 0xC3E PUSH2 0x197C JUMP JUMPDEST AND DUP2 MSTORE DUP1 DUP4 MSTORE KECCAK256 SLOAD PUSH1 0x40 MLOAD SWAP1 DUP2 MSTORE RETURN JUMPDEST POP CALLVALUE PUSH2 0x256 JUMPI PUSH1 0x20 DUP1 PUSH1 0x3 NOT CALLDATASIZE ADD SLT PUSH2 0x51E JUMPI PUSH2 0xC69 PUSH2 0x197C JUMP JUMPDEST PUSH2 0xC71 PUSH2 0x1CFC JUMP JUMPDEST PUSH2 0xC90 PUSH1 0x9 SLOAD PUSH1 0x1 PUSH1 0x1 PUSH1 0x70 SHL SUB SWAP2 DUP3 DUP3 AND SWAP3 DUP3 PUSH1 0x70 SHR AND SWAP2 PUSH1 0xE0 SHR SWAP1 JUMP JUMPDEST POP PUSH1 0x7 SLOAD PUSH1 0x40 MLOAD PUSH4 0x70A08231 PUSH1 0xE0 SHL DUP1 DUP3 MSTORE ADDRESS PUSH1 0x4 DUP4 ADD MSTORE SWAP4 SWAP5 SWAP3 SWAP2 PUSH1 0x1 PUSH1 0x1 PUSH1 0xA0 SHL SUB SWAP2 SWAP1 DUP8 SWAP1 DUP3 SWAP1 PUSH1 0x24 SWAP1 DUP3 SWAP1 DUP7 AND GAS STATICCALL SWAP2 DUP3 ISZERO PUSH2 0x4D9 JUMPI DUP8 SWAP2 DUP10 SWAP4 PUSH2 0xEEC JUMPI JUMPDEST POP PUSH1 0x8 SLOAD AND SWAP5 PUSH1 0x24 PUSH1 0x40 MLOAD DUP1 SWAP8 DUP2 SWAP4 DUP3 MSTORE ADDRESS PUSH1 0x4 DUP4 ADD MSTORE GAS STATICCALL SWAP4 DUP5 ISZERO PUSH2 0x513 JUMPI DUP8 SWAP5 PUSH2 0xEBD JUMPI JUMPDEST POP PUSH1 0x1 PUSH1 0x1 PUSH1 0x70 SHL SUB SWAP2 DUP3 DUP7 AND SWAP6 PUSH2 0xD12 DUP8 DUP5 PUSH2 0x1CBC JUMP JUMPDEST SWAP6 DUP5 DUP4 AND SWAP4 PUSH2 0xD21 DUP6 DUP4 PUSH2 0x1CBC JUMP JUMPDEST SWAP9 PUSH2 0xD2C DUP6 DUP6 PUSH2 0x1FA9 JUMP JUMPDEST SWAP6 PUSH1 0x2 SLOAD SWAP2 DUP3 ISZERO PUSH1 0x0 EQ PUSH2 0xDB5 JUMPI DUP14 DUP14 PUSH2 0xD4E PUSH2 0xD49 DUP16 DUP16 PUSH2 0x1CC9 JUMP JUMPDEST PUSH2 0x20F9 JUMP JUMPDEST PUSH2 0x3E7 NOT DUP2 ADD SWAP1 DUP2 GT PUSH2 0xDA1 JUMPI PUSH1 0x64 SWAP3 POP POP PUSH1 0x40 MLOAD SWAP1 PUSH3 0x461BCD PUSH1 0xE5 SHL DUP3 MSTORE PUSH1 0x4 DUP3 ADD MSTORE PUSH1 0x1F PUSH1 0x24 DUP3 ADD MSTORE PUSH32 0x45524332303A206D696E7420746F20746865207A65726F206164647265737300 PUSH1 0x44 DUP3 ADD MSTORE REVERT JUMPDEST PUSH4 0x4E487B71 PUSH1 0xE0 SHL DUP4 MSTORE PUSH1 0x11 PUSH1 0x4 MSTORE PUSH1 0x24 DUP4 REVERT JUMPDEST DUP14 SWAP2 PUSH2 0x803 PUSH2 0xDCF PUSH2 0xDD6 SWAP4 SWAP13 SWAP15 SWAP13 PUSH2 0x803 DUP16 DUP9 SWAP1 PUSH2 0x1CC9 JUMP JUMPDEST SWAP5 DUP13 PUSH2 0x1CC9 JUMP JUMPDEST SWAP1 POP DUP1 DUP3 LT ISZERO PUSH2 0xEB6 JUMPI POP JUMPDEST SWAP9 DUP10 ISZERO PUSH2 0xE60 JUMPI SWAP1 PUSH2 0xDFA DUP11 PUSH2 0xDFF SWAP7 SWAP6 SWAP5 SWAP4 PUSH2 0x1D52 JUMP JUMPDEST PUSH2 0x1E2D JUMP JUMPDEST PUSH2 0xE42 JUMPI JUMPDEST POP PUSH1 0x40 MLOAD SWAP2 DUP3 MSTORE DUP4 DUP3 ADD MSTORE PUSH32 0x4C209B5FC8AD50758F13E2E1088BA56A560DFF690A1C6FEF26394F4C03821C4F PUSH1 0x40 CALLER SWAP3 LOG2 PUSH1 0x1 PUSH1 0x5 SSTORE PUSH1 0x40 MLOAD SWAP1 DUP2 MSTORE RETURN JUMPDEST PUSH2 0xE57 SWAP1 PUSH1 0x9 SLOAD SWAP1 DUP1 DUP3 PUSH1 0x70 SHR AND SWAP2 AND PUSH2 0x1CC9 JUMP JUMPDEST PUSH1 0xC SSTORE DUP5 PUSH2 0xE04 JUMP JUMPDEST PUSH1 0x40 MLOAD PUSH3 0x461BCD PUSH1 0xE5 SHL DUP2 MSTORE PUSH1 0x4 DUP2 ADD DUP13 SWAP1 MSTORE PUSH1 0x28 PUSH1 0x24 DUP3 ADD MSTORE PUSH32 0x556E697377617056323A20494E53554646494349454E545F4C49515549444954 PUSH1 0x44 DUP3 ADD MSTORE PUSH8 0x1657D35253951151 PUSH1 0xC2 SHL PUSH1 0x64 DUP3 ADD MSTORE PUSH1 0x84 SWAP1 REVERT JUMPDEST SWAP1 POP PUSH2 0xDE2 JUMP JUMPDEST SWAP1 SWAP4 POP DUP6 DUP2 DUP2 RETURNDATASIZE DUP4 GT PUSH2 0xEE5 JUMPI JUMPDEST PUSH2 0xED5 DUP2 DUP4 PUSH2 0x1B16 JUMP JUMPDEST DUP2 ADD SUB SLT PUSH2 0x203 JUMPI MLOAD SWAP3 CODESIZE PUSH2 0xCFA JUMP JUMPDEST POP RETURNDATASIZE PUSH2 0xECB JUMP JUMPDEST DUP3 DUP2 SWAP4 SWAP3 SWAP5 POP RETURNDATASIZE DUP4 GT PUSH2 0xF16 JUMPI JUMPDEST PUSH2 0xF04 DUP2 DUP4 PUSH2 0x1B16 JUMP JUMPDEST DUP2 ADD SUB SLT PUSH2 0x203 JUMPI DUP7 SWAP1 MLOAD SWAP2 CODESIZE PUSH2 0xCD3 JUMP JUMPDEST POP RETURNDATASIZE PUSH2 0xEFA JUMP JUMPDEST POP CALLVALUE PUSH2 0x256 JUMPI DUP1 PUSH1 0x3 NOT CALLDATASIZE ADD SLT PUSH2 0x256 JUMPI PUSH1 0x20 PUSH1 0xB SLOAD PUSH1 0x40 MLOAD SWAP1 DUP2 MSTORE RETURN JUMPDEST POP CALLVALUE PUSH2 0x256 JUMPI DUP1 PUSH1 0x3 NOT CALLDATASIZE ADD SLT PUSH2 0x256 JUMPI PUSH1 0x20 PUSH1 0xA SLOAD PUSH1 0x40 MLOAD SWAP1 DUP2 MSTORE RETURN JUMPDEST POP CALLVALUE PUSH2 0x256 JUMPI PUSH1 0x40 CALLDATASIZE PUSH1 0x3 NOT ADD SLT PUSH2 0x256 JUMPI PUSH2 0xF73 PUSH2 0x197C JUMP JUMPDEST PUSH2 0xF7B PUSH2 0x1992 JUMP JUMPDEST PUSH1 0x6 SLOAD PUSH1 0x1 PUSH1 0x1 PUSH1 0xA0 SHL SUB SWAP2 SWAP1 DUP3 AND CALLER SUB PUSH2 0xFB9 JUMPI DUP2 PUSH12 0xFFFFFFFFFFFFFFFFFFFFFFFF PUSH1 0xA0 SHL SWAP4 AND DUP4 PUSH1 0x7 SLOAD AND OR PUSH1 0x7 SSTORE AND SWAP1 PUSH1 0x8 SLOAD AND OR PUSH1 0x8 SSTORE DUP1 RETURN JUMPDEST PUSH1 0x40 MLOAD PUSH3 0x461BCD PUSH1 0xE5 SHL DUP2 MSTORE PUSH1 0x20 PUSH1 0x4 DUP3 ADD MSTORE PUSH1 0x14 PUSH1 0x24 DUP3 ADD MSTORE PUSH20 0x2AB734B9BBB0B82B191D102327A92124A22222A7 PUSH1 0x61 SHL PUSH1 0x44 DUP3 ADD MSTORE PUSH1 0x64 SWAP1 REVERT JUMPDEST POP CALLVALUE PUSH2 0x256 JUMPI PUSH1 0x40 CALLDATASIZE PUSH1 0x3 NOT ADD SLT PUSH2 0x256 JUMPI PUSH2 0x566 PUSH2 0x1012 PUSH2 0x197C JUMP JUMPDEST CALLER PUSH1 0x0 SWAP1 DUP2 MSTORE PUSH1 0x1 PUSH1 0x20 SWAP1 DUP2 MSTORE PUSH1 0x40 DUP1 DUP4 KECCAK256 PUSH1 0x1 PUSH1 0x1 PUSH1 0xA0 SHL SUB DUP6 AND DUP5 MSTORE SWAP1 SWAP2 MSTORE SWAP1 KECCAK256 SLOAD PUSH2 0x1048 SWAP1 PUSH1 0x24 CALLDATALOAD SWAP1 PUSH2 0x19F1 JUMP JUMPDEST PUSH2 0x19F1 JUMP JUMPDEST SWAP1 CALLER PUSH2 0x1A14 JUMP JUMPDEST POP CALLVALUE PUSH2 0x256 JUMPI DUP1 PUSH1 0x3 NOT CALLDATASIZE ADD SLT PUSH2 0x256 JUMPI PUSH1 0x20 PUSH1 0x40 MLOAD PUSH1 0x12 DUP2 MSTORE RETURN JUMPDEST POP CALLVALUE PUSH2 0x256 JUMPI PUSH1 0x60 CALLDATASIZE PUSH1 0x3 NOT ADD SLT PUSH2 0x256 JUMPI PUSH2 0x1085 PUSH2 0x197C JUMP JUMPDEST SWAP1 PUSH2 0x108E PUSH2 0x1992 JUMP JUMPDEST PUSH1 0x40 PUSH1 0x44 CALLDATALOAD SWAP3 PUSH1 0x1 DUP1 PUSH1 0xA0 SHL SUB DUP6 AND DUP2 MSTORE PUSH1 0x1 PUSH1 0x20 MSTORE KECCAK256 CALLER PUSH1 0x0 MSTORE PUSH1 0x20 MSTORE PUSH1 0x40 PUSH1 0x0 KECCAK256 SLOAD SWAP3 PUSH1 0x0 NOT DUP5 SUB PUSH2 0x10C7 JUMPI JUMPDEST PUSH2 0x566 SWAP4 POP PUSH2 0x1B4E JUMP JUMPDEST DUP3 DUP5 LT PUSH2 0x10E3 JUMPI PUSH2 0x10DE DUP4 PUSH2 0x566 SWAP6 SUB CALLER DUP4 PUSH2 0x1A14 JUMP JUMPDEST PUSH2 0x10BD JUMP JUMPDEST PUSH1 0x40 MLOAD PUSH3 0x461BCD PUSH1 0xE5 SHL DUP2 MSTORE PUSH1 0x20 PUSH1 0x4 DUP3 ADD MSTORE PUSH1 0x1D PUSH1 0x24 DUP3 ADD MSTORE PUSH32 0x45524332303A20696E73756666696369656E7420616C6C6F77616E6365000000 PUSH1 0x44 DUP3 ADD MSTORE PUSH1 0x64 SWAP1 REVERT JUMPDEST POP CALLVALUE PUSH2 0x256 JUMPI DUP1 PUSH1 0x3 NOT CALLDATASIZE ADD SLT PUSH2 0x256 JUMPI PUSH1 0x20 PUSH1 0x2 SLOAD PUSH1 0x40 MLOAD SWAP1 DUP2 MSTORE RETURN JUMPDEST POP CALLVALUE PUSH2 0x256 JUMPI DUP1 PUSH1 0x3 NOT CALLDATASIZE ADD SLT PUSH2 0x256 JUMPI PUSH1 0x7 SLOAD PUSH1 0x40 MLOAD PUSH1 0x1 PUSH1 0x1 PUSH1 0xA0 SHL SUB SWAP1 SWAP2 AND DUP2 MSTORE PUSH1 0x20 SWAP1 RETURN JUMPDEST POP CALLVALUE PUSH2 0x256 JUMPI PUSH1 0x40 CALLDATASIZE PUSH1 0x3 NOT ADD SLT PUSH2 0x256 JUMPI PUSH2 0x566 PUSH2 0x118C PUSH2 0x197C JUMP JUMPDEST PUSH1 0x24 CALLDATALOAD SWAP1 CALLER PUSH2 0x1A14 JUMP JUMPDEST POP CALLVALUE PUSH2 0x256 JUMPI DUP1 PUSH1 0x3 NOT CALLDATASIZE ADD SLT PUSH2 0x256 JUMPI PUSH1 0x60 PUSH4 0xFFFFFFFF PUSH2 0x11CD PUSH1 0x9 SLOAD PUSH1 0x1 PUSH1 0x1 PUSH1 0x70 SHL SUB SWAP2 DUP3 DUP3 AND SWAP3 DUP3 PUSH1 0x70 SHR AND SWAP2 PUSH1 0xE0 SHR SWAP1 JUMP JUMPDEST SWAP1 SWAP3 SWAP2 PUSH1 0x40 MLOAD SWAP4 PUSH1 0x1 PUSH1 0x1 PUSH1 0x70 SHL SUB DUP1 SWAP3 AND DUP6 MSTORE AND PUSH1 0x20 DUP5 ADD MSTORE AND PUSH1 0x40 DUP3 ADD MSTORE RETURN JUMPDEST POP CALLVALUE PUSH2 0x256 JUMPI DUP1 PUSH1 0x3 NOT CALLDATASIZE ADD SLT PUSH2 0x256 JUMPI PUSH1 0x40 MLOAD PUSH1 0x0 SWAP1 PUSH1 0x3 SLOAD PUSH1 0x1 DUP2 DUP2 SHR SWAP1 DUP1 DUP4 AND SWAP3 DUP4 ISZERO PUSH2 0x12A3 JUMPI JUMPDEST PUSH1 0x20 SWAP4 DUP5 DUP5 LT DUP2 EQ PUSH2 0x6FE JUMPI DUP4 DUP7 MSTORE SWAP1 DUP2 ISZERO PUSH2 0x6DE JUMPI POP PUSH1 0x1 EQ PUSH2 0x1248 JUMPI PUSH2 0x67F DUP5 PUSH2 0x673 DUP2 DUP9 SUB DUP3 PUSH2 0x1B16 JUMP JUMPDEST PUSH1 0x3 PUSH1 0x0 SWAP1 DUP2 MSTORE SWAP3 SWAP5 POP PUSH32 0xC2575A0E9E593C00F959F8C92F12DB2869C3395A3B0502D05E2516446F71F85B JUMPDEST DUP3 DUP5 LT PUSH2 0x1290 JUMPI POP POP POP DUP2 PUSH2 0x67F SWAP4 PUSH2 0x673 SWAP3 DUP3 ADD ADD SWAP4 PUSH2 0x663 JUMP JUMPDEST DUP1 SLOAD DUP6 DUP6 ADD DUP8 ADD MSTORE SWAP3 DUP6 ADD SWAP3 DUP2 ADD PUSH2 0x1274 JUMP JUMPDEST SWAP2 PUSH1 0x7F AND SWAP2 PUSH2 0x121A JUMP JUMPDEST POP CALLVALUE PUSH2 0x256 JUMPI PUSH1 0x80 CALLDATASIZE PUSH1 0x3 NOT ADD SLT PUSH2 0x256 JUMPI PUSH1 0x1 PUSH1 0x1 PUSH1 0xA0 SHL SUB PUSH1 0x44 CALLDATALOAD DUP1 DUP3 AND SWAP1 SUB PUSH2 0x51E JUMPI PUSH8 0xFFFFFFFFFFFFFFFF PUSH1 0x64 CALLDATALOAD GT PUSH2 0x51E JUMPI CALLDATASIZE PUSH1 0x23 PUSH1 0x64 CALLDATALOAD ADD SLT ISZERO PUSH2 0x51E JUMPI PUSH8 0xFFFFFFFFFFFFFFFF PUSH1 0x64 CALLDATALOAD PUSH1 0x4 ADD CALLDATALOAD GT PUSH2 0x51E JUMPI CALLDATASIZE PUSH1 0x24 PUSH1 0x64 CALLDATALOAD PUSH1 0x4 ADD CALLDATALOAD PUSH1 0x64 CALLDATALOAD ADD ADD GT PUSH2 0x51E JUMPI PUSH2 0x1322 PUSH2 0x1CFC JUMP JUMPDEST PUSH1 0x4 CALLDATALOAD ISZERO SWAP1 DUP2 ISZERO DUP1 SWAP3 PUSH2 0x1971 JUMPI JUMPDEST ISZERO PUSH2 0x191E JUMPI PUSH2 0x1354 PUSH1 0x9 SLOAD PUSH1 0x1 PUSH1 0x1 PUSH1 0x70 SHL SUB SWAP2 DUP3 DUP3 AND SWAP3 DUP3 PUSH1 0x70 SHR AND SWAP2 PUSH1 0xE0 SHR SWAP1 JUMP JUMPDEST POP PUSH1 0x1 PUSH1 0x1 PUSH1 0x70 SHL SUB DUP3 SWAP5 SWAP3 AND PUSH1 0x4 CALLDATALOAD LT DUP1 PUSH2 0x190A JUMPI JUMPDEST ISZERO PUSH2 0x18BB JUMPI DUP3 PUSH1 0x7 SLOAD AND DUP4 PUSH1 0x8 SLOAD AND SWAP3 DUP2 DUP6 PUSH1 0x44 CALLDATALOAD AND EQ ISZERO DUP1 PUSH2 0x18AD JUMPI JUMPDEST ISZERO PUSH2 0x1870 JUMPI PUSH2 0x180E JUMPI JUMPDEST PUSH1 0x24 CALLDATALOAD PUSH2 0x17AE JUMPI JUMPDEST PUSH1 0x64 CALLDATALOAD PUSH1 0x4 ADD CALLDATALOAD PUSH2 0x16E7 JUMPI JUMPDEST SWAP1 PUSH1 0x20 PUSH1 0x24 SWAP3 PUSH1 0x40 MLOAD SWAP4 DUP5 DUP1 SWAP3 PUSH4 0x70A08231 PUSH1 0xE0 SHL DUP3 MSTORE ADDRESS PUSH1 0x4 DUP4 ADD MSTORE GAS STATICCALL SWAP2 DUP3 ISZERO PUSH2 0x16A5 JUMPI DUP7 SWAP3 PUSH2 0x16B0 JUMPI JUMPDEST POP PUSH1 0x20 PUSH1 0x24 SWAP4 PUSH1 0x40 MLOAD SWAP5 DUP6 DUP1 SWAP3 PUSH4 0x70A08231 PUSH1 0xE0 SHL DUP3 MSTORE ADDRESS PUSH1 0x4 DUP4 ADD MSTORE GAS STATICCALL SWAP3 DUP4 ISZERO PUSH2 0x16A5 JUMPI DUP7 SWAP4 PUSH2 0x1671 JUMPI JUMPDEST POP PUSH2 0x1417 PUSH1 0x4 CALLDATALOAD PUSH1 0x1 PUSH1 0x1 PUSH1 0x70 SHL SUB DUP8 AND PUSH2 0x1CBC JUMP JUMPDEST DUP3 GT ISZERO PUSH2 0x166A JUMPI PUSH2 0x143C PUSH2 0x1436 PUSH1 0x4 CALLDATALOAD PUSH1 0x1 PUSH1 0x1 PUSH1 0x70 SHL SUB DUP9 AND PUSH2 0x1CBC JUMP JUMPDEST DUP4 PUSH2 0x1CBC JUMP JUMPDEST SWAP5 JUMPDEST PUSH2 0x1453 PUSH1 0x24 CALLDATALOAD PUSH1 0x1 PUSH1 0x1 PUSH1 0x70 SHL SUB DUP5 AND PUSH2 0x1CBC JUMP JUMPDEST DUP5 GT ISZERO PUSH2 0x1663 JUMPI PUSH2 0x1478 PUSH2 0x1472 PUSH1 0x24 CALLDATALOAD PUSH1 0x1 PUSH1 0x1 PUSH1 0x70 SHL SUB DUP6 AND PUSH2 0x1CBC JUMP JUMPDEST DUP6 PUSH2 0x1CBC JUMP JUMPDEST SWAP4 JUMPDEST DUP7 ISZERO ISZERO DUP8 ISZERO PUSH2 0x165A JUMPI JUMPDEST ISZERO PUSH2 0x1609 JUMPI DUP4 PUSH2 0x3E8 DUP2 MUL DIV PUSH2 0x3E8 EQ DUP5 ISZERO OR ISZERO PUSH2 0x15F5 JUMPI PUSH1 0x3 DUP8 MUL DUP8 DUP2 DIV PUSH1 0x3 EQ DUP9 ISZERO OR ISZERO PUSH2 0x15E1 JUMPI PUSH2 0x14BC SWAP1 PUSH2 0x3E8 DUP7 MUL PUSH2 0x1CBC JUMP JUMPDEST PUSH2 0x3E8 DUP3 MUL DUP3 DUP2 DIV PUSH2 0x3E8 EQ DUP4 ISZERO OR ISZERO PUSH2 0x15B9 JUMPI PUSH1 0x3 DUP8 MUL SWAP1 DUP8 DUP3 DIV PUSH1 0x3 EQ DUP9 ISZERO OR ISZERO PUSH2 0x15CD JUMPI PUSH2 0x14F7 SWAP3 SWAP2 PUSH2 0x14F1 SWAP2 PUSH2 0x1CBC JUMP JUMPDEST SWAP1 PUSH2 0x1CC9 JUMP JUMPDEST PUSH2 0x1513 PUSH1 0x1 PUSH1 0x1 PUSH1 0x70 SHL SUB DUP6 AND PUSH1 0x1 PUSH1 0x1 PUSH1 0x70 SHL SUB DUP6 AND PUSH2 0x1CC9 JUMP JUMPDEST SWAP1 PUSH3 0xF4240 SWAP2 DUP3 DUP2 MUL SWAP3 DUP2 DUP5 DIV EQ SWAP1 ISZERO OR ISZERO PUSH2 0x15B9 JUMPI LT PUSH2 0x1585 JUMPI PUSH2 0x1537 SWAP4 PUSH2 0x1E2D JUMP JUMPDEST PUSH1 0x40 MLOAD SWAP3 DUP4 MSTORE PUSH1 0x20 DUP4 ADD MSTORE PUSH1 0x4 CALLDATALOAD PUSH1 0x40 DUP4 ADD MSTORE PUSH1 0x24 CALLDATALOAD PUSH1 0x60 DUP4 ADD MSTORE PUSH1 0x44 CALLDATALOAD AND SWAP1 PUSH32 0xD78AD95FA46C994B6551D0DA85FC275FE613CE37657FB8D5E3D130840159D822 PUSH1 0x80 CALLER SWAP3 LOG3 PUSH1 0x1 PUSH1 0x5 SSTORE DUP1 RETURN JUMPDEST PUSH1 0x40 MLOAD PUSH3 0x461BCD PUSH1 0xE5 SHL DUP2 MSTORE PUSH1 0x20 PUSH1 0x4 DUP3 ADD MSTORE PUSH1 0xC PUSH1 0x24 DUP3 ADD MSTORE PUSH12 0x556E697377617056323A204B PUSH1 0xA0 SHL PUSH1 0x44 DUP3 ADD MSTORE PUSH1 0x64 SWAP1 REVERT JUMPDEST PUSH4 0x4E487B71 PUSH1 0xE0 SHL DUP11 MSTORE PUSH1 0x11 PUSH1 0x4 MSTORE PUSH1 0x24 DUP11 REVERT JUMPDEST PUSH4 0x4E487B71 PUSH1 0xE0 SHL DUP12 MSTORE PUSH1 0x11 PUSH1 0x4 MSTORE PUSH1 0x24 DUP12 REVERT JUMPDEST PUSH4 0x4E487B71 PUSH1 0xE0 SHL DUP10 MSTORE PUSH1 0x11 PUSH1 0x4 MSTORE PUSH1 0x24 DUP10 REVERT JUMPDEST PUSH4 0x4E487B71 PUSH1 0xE0 SHL DUP9 MSTORE PUSH1 0x11 PUSH1 0x4 MSTORE PUSH1 0x24 DUP9 REVERT JUMPDEST PUSH1 0x40 MLOAD PUSH3 0x461BCD PUSH1 0xE5 SHL DUP2 MSTORE PUSH1 0x20 PUSH1 0x4 DUP3 ADD MSTORE PUSH1 0x24 DUP1 DUP3 ADD MSTORE PUSH32 0x556E697377617056323A20494E53554646494349454E545F494E5055545F414D PUSH1 0x44 DUP3 ADD MSTORE PUSH4 0x13D55395 PUSH1 0xE2 SHL PUSH1 0x64 DUP3 ADD MSTORE PUSH1 0x84 SWAP1 REVERT JUMPDEST POP DUP5 ISZERO ISZERO PUSH2 0x1484 JUMP JUMPDEST DUP7 SWAP4 PUSH2 0x147A JUMP JUMPDEST DUP6 SWAP5 PUSH2 0x143E JUMP JUMPDEST SWAP1 SWAP3 POP PUSH1 0x20 DUP2 RETURNDATASIZE PUSH1 0x20 GT PUSH2 0x169D JUMPI JUMPDEST DUP2 PUSH2 0x168D PUSH1 0x20 SWAP4 DUP4 PUSH2 0x1B16 JUMP JUMPDEST DUP2 ADD SUB SLT PUSH2 0x203 JUMPI MLOAD SWAP2 CODESIZE PUSH2 0x1401 JUMP JUMPDEST RETURNDATASIZE SWAP2 POP PUSH2 0x1680 JUMP JUMPDEST PUSH1 0x40 MLOAD RETURNDATASIZE DUP9 DUP3 RETURNDATACOPY RETURNDATASIZE SWAP1 REVERT JUMPDEST SWAP3 SWAP2 POP PUSH1 0x20 DUP4 RETURNDATASIZE PUSH1 0x20 GT PUSH2 0x16DF JUMPI JUMPDEST DUP2 PUSH2 0x16CC PUSH1 0x20 SWAP4 DUP4 PUSH2 0x1B16 JUMP JUMPDEST DUP2 ADD SUB SLT PUSH2 0x203 JUMPI SWAP2 MLOAD SWAP1 SWAP2 PUSH1 0x20 PUSH2 0x13D4 JUMP JUMPDEST RETURNDATASIZE SWAP2 POP PUSH2 0x16BF JUMP JUMPDEST DUP4 PUSH1 0x44 CALLDATALOAD AND EXTCODESIZE ISZERO PUSH2 0x17AA JUMPI PUSH1 0x40 MLOAD PUSH4 0x4347A17 PUSH1 0xE2 SHL DUP2 MSTORE CALLER PUSH1 0x4 DUP3 ADD MSTORE PUSH1 0x4 CALLDATALOAD PUSH1 0x24 DUP3 ADD MSTORE PUSH1 0x24 CALLDATALOAD PUSH1 0x44 DUP3 ADD MSTORE PUSH1 0x80 PUSH1 0x64 DUP3 ADD MSTORE PUSH1 0x64 CALLDATALOAD PUSH1 0x4 ADD CALLDATALOAD PUSH1 0x84 DUP3 ADD MSTORE PUSH1 0x64 CALLDATALOAD PUSH1 0x4 ADD CALLDATALOAD PUSH1 0x24 PUSH1 0x64 CALLDATALOAD ADD PUSH1 0xA4 DUP4 ADD CALLDATACOPY DUP7 PUSH1 0xA4 PUSH1 0x64 CALLDATALOAD PUSH1 0x4 ADD CALLDATALOAD DUP4 ADD ADD MSTORE DUP7 DUP2 PUSH1 0xA4 DUP2 PUSH1 0x1F NOT PUSH1 0x1F PUSH1 0x64 CALLDATALOAD PUSH1 0x4 ADD CALLDATALOAD ADD AND DUP2 ADD SUB ADD DUP2 DUP4 DUP10 PUSH1 0x44 CALLDATALOAD AND GAS CALL DUP1 ISZERO PUSH2 0x513 JUMPI PUSH2 0x1779 JUMPI JUMPDEST POP PUSH2 0x13A7 JUMP JUMPDEST PUSH8 0xFFFFFFFFFFFFFFFF DUP2 SWAP8 SWAP3 SWAP8 GT PUSH2 0x1796 JUMPI PUSH1 0x40 MSTORE SWAP5 PUSH1 0x20 PUSH2 0x1773 JUMP JUMPDEST PUSH4 0x4E487B71 PUSH1 0xE0 SHL DUP3 MSTORE PUSH1 0x41 PUSH1 0x4 MSTORE PUSH1 0x24 DUP3 REVERT JUMPDEST DUP6 DUP1 REVERT JUMPDEST PUSH1 0x40 MLOAD PUSH4 0xA9059CBB PUSH1 0xE0 SHL DUP2 MSTORE PUSH1 0x44 DUP1 CALLDATALOAD PUSH1 0x1 PUSH1 0x1 PUSH1 0xA0 SHL SUB AND PUSH1 0x4 DUP4 ADD MSTORE PUSH1 0x24 DUP1 CALLDATALOAD SWAP1 DUP4 ADD MSTORE PUSH1 0x20 SWAP1 DUP3 SWAP1 DUP2 DUP11 DUP9 GAS CALL DUP1 ISZERO PUSH2 0x513 JUMPI PUSH2 0x17F0 JUMPI JUMPDEST POP PUSH2 0x139B JUMP JUMPDEST PUSH2 0x1807 SWAP1 PUSH1 0x20 RETURNDATASIZE DUP2 GT PUSH2 0x466 JUMPI PUSH2 0x456 DUP2 DUP4 PUSH2 0x1B16 JUMP JUMPDEST POP CODESIZE PUSH2 0x17EA JUMP JUMPDEST PUSH1 0x40 MLOAD PUSH4 0xA9059CBB PUSH1 0xE0 SHL DUP2 MSTORE PUSH1 0x44 DUP1 CALLDATALOAD PUSH1 0x1 PUSH1 0x1 PUSH1 0xA0 SHL SUB AND PUSH1 0x4 DUP1 DUP5 ADD SWAP2 SWAP1 SWAP2 MSTORE CALLDATALOAD PUSH1 0x24 DUP4 ADD MSTORE PUSH1 0x20 SWAP1 DUP3 SWAP1 DUP2 DUP11 DUP7 GAS CALL DUP1 ISZERO PUSH2 0x513 JUMPI PUSH2 0x1852 JUMPI JUMPDEST POP PUSH2 0x1393 JUMP JUMPDEST PUSH2 0x1869 SWAP1 PUSH1 0x20 RETURNDATASIZE DUP2 GT PUSH2 0x466 JUMPI PUSH2 0x456 DUP2 DUP4 PUSH2 0x1B16 JUMP JUMPDEST POP CODESIZE PUSH2 0x184C JUMP JUMPDEST PUSH1 0x40 MLOAD PUSH3 0x461BCD PUSH1 0xE5 SHL DUP2 MSTORE PUSH1 0x20 PUSH1 0x4 DUP3 ADD MSTORE PUSH1 0x15 PUSH1 0x24 DUP3 ADD MSTORE PUSH21 0x556E697377617056323A20494E56414C49445F544F PUSH1 0x58 SHL PUSH1 0x44 DUP3 ADD MSTORE PUSH1 0x64 SWAP1 REVERT JUMPDEST POP DUP4 DUP6 PUSH1 0x44 CALLDATALOAD AND EQ ISZERO PUSH2 0x1389 JUMP JUMPDEST PUSH1 0x40 MLOAD PUSH3 0x461BCD PUSH1 0xE5 SHL DUP2 MSTORE PUSH1 0x20 PUSH1 0x4 DUP3 ADD MSTORE PUSH1 0x21 PUSH1 0x24 DUP3 ADD MSTORE PUSH32 0x556E697377617056323A20494E53554646494349454E545F4C49515549444954 PUSH1 0x44 DUP3 ADD MSTORE PUSH1 0x59 PUSH1 0xF8 SHL PUSH1 0x64 DUP3 ADD MSTORE PUSH1 0x84 SWAP1 REVERT JUMPDEST POP PUSH1 0x1 PUSH1 0x1 PUSH1 0x70 SHL SUB DUP2 AND PUSH1 0x24 CALLDATALOAD LT PUSH2 0x136B JUMP JUMPDEST PUSH1 0x40 MLOAD PUSH3 0x461BCD PUSH1 0xE5 SHL DUP2 MSTORE PUSH1 0x20 PUSH1 0x4 DUP3 ADD MSTORE PUSH1 0x25 PUSH1 0x24 DUP3 ADD MSTORE PUSH32 0x556E697377617056323A20494E53554646494349454E545F4F55545055545F41 PUSH1 0x44 DUP3 ADD MSTORE PUSH5 0x1353D55395 PUSH1 0xDA SHL PUSH1 0x64 DUP3 ADD MSTORE PUSH1 0x84 SWAP1 REVERT JUMPDEST POP PUSH1 0x24 CALLDATALOAD ISZERO ISZERO PUSH2 0x1330 JUMP JUMPDEST PUSH1 0x4 CALLDATALOAD SWAP1 PUSH1 0x1 PUSH1 0x1 PUSH1 0xA0 SHL SUB DUP3 AND DUP3 SUB PUSH2 0x203 JUMPI JUMP JUMPDEST PUSH1 0x24 CALLDATALOAD SWAP1 PUSH1 0x1 PUSH1 0x1 PUSH1 0xA0 SHL SUB DUP3 AND DUP3 SUB PUSH2 0x203 JUMPI JUMP JUMPDEST PUSH1 0x20 DUP1 DUP3 MSTORE DUP3 MLOAD DUP2 DUP4 ADD DUP2 SWAP1 MSTORE SWAP1 SWAP4 SWAP3 PUSH1 0x0 JUMPDEST DUP3 DUP2 LT PUSH2 0x19DD JUMPI POP POP PUSH1 0x40 SWAP3 SWAP4 POP PUSH1 0x0 DUP4 DUP3 DUP5 ADD ADD MSTORE PUSH1 0x1F DUP1 NOT SWAP2 ADD AND ADD ADD SWAP1 JUMP JUMPDEST DUP2 DUP2 ADD DUP7 ADD MLOAD DUP5 DUP3 ADD PUSH1 0x40 ADD MSTORE DUP6 ADD PUSH2 0x19BB JUMP JUMPDEST SWAP2 SWAP1 DUP3 ADD DUP1 SWAP3 GT PUSH2 0x19FE JUMPI JUMP JUMPDEST PUSH4 0x4E487B71 PUSH1 0xE0 SHL PUSH1 0x0 MSTORE PUSH1 0x11 PUSH1 0x4 MSTORE PUSH1 0x24 PUSH1 0x0 REVERT JUMPDEST PUSH1 0x1 PUSH1 0x1 PUSH1 0xA0 SHL SUB SWAP1 DUP2 AND SWAP2 DUP3 ISZERO PUSH2 0x1AC5 JUMPI AND SWAP2 DUP3 ISZERO PUSH2 0x1A75 JUMPI PUSH1 0x20 PUSH32 0x8C5BE1E5EBEC7D5BD14F71427D1E84F3DD0314C0F7B2291E5B200AC8C7C3B925 SWAP2 DUP4 PUSH1 0x0 MSTORE PUSH1 0x1 DUP3 MSTORE PUSH1 0x40 PUSH1 0x0 KECCAK256 DUP6 PUSH1 0x0 MSTORE DUP3 MSTORE DUP1 PUSH1 0x40 PUSH1 0x0 KECCAK256 SSTORE PUSH1 0x40 MLOAD SWAP1 DUP2 MSTORE LOG3 JUMP JUMPDEST PUSH1 0x40 MLOAD PUSH3 0x461BCD PUSH1 0xE5 SHL DUP2 MSTORE PUSH1 0x20 PUSH1 0x4 DUP3 ADD MSTORE PUSH1 0x22 PUSH1 0x24 DUP3 ADD MSTORE PUSH32 0x45524332303A20617070726F766520746F20746865207A65726F206164647265 PUSH1 0x44 DUP3 ADD MSTORE PUSH2 0x7373 PUSH1 0xF0 SHL PUSH1 0x64 DUP3 ADD MSTORE PUSH1 0x84 SWAP1 REVERT JUMPDEST PUSH1 0x40 MLOAD PUSH3 0x461BCD PUSH1 0xE5 SHL DUP2 MSTORE PUSH1 0x20 PUSH1 0x4 DUP3 ADD MSTORE PUSH1 0x24 DUP1 DUP3 ADD MSTORE PUSH32 0x45524332303A20617070726F76652066726F6D20746865207A65726F20616464 PUSH1 0x44 DUP3 ADD MSTORE PUSH4 0x72657373 PUSH1 0xE0 SHL PUSH1 0x64 DUP3 ADD MSTORE PUSH1 0x84 SWAP1 REVERT JUMPDEST SWAP1 PUSH1 0x1F DUP1 NOT SWAP2 ADD AND DUP2 ADD SWAP1 DUP2 LT PUSH8 0xFFFFFFFFFFFFFFFF DUP3 GT OR PUSH2 0x1B38 JUMPI PUSH1 0x40 MSTORE JUMP JUMPDEST PUSH4 0x4E487B71 PUSH1 0xE0 SHL PUSH1 0x0 MSTORE PUSH1 0x41 PUSH1 0x4 MSTORE PUSH1 0x24 PUSH1 0x0 REVERT JUMPDEST PUSH1 0x1 PUSH1 0x1 PUSH1 0xA0 SHL SUB SWAP1 DUP2 AND SWAP2 DUP3 ISZERO PUSH2 0x1C69 JUMPI AND SWAP2 DUP3 ISZERO PUSH2 0x1C18 JUMPI PUSH1 0x0 DUP3 DUP2 MSTORE DUP1 PUSH1 0x20 MSTORE PUSH1 0x40 DUP2 KECCAK256 SLOAD SWAP2 DUP1 DUP4 LT PUSH2 0x1BC4 JUMPI PUSH1 0x40 DUP3 DUP3 PUSH32 0xDDF252AD1BE2C89B69C2B068FC378DAA952BA7F163C4A11628F55A4DF523B3EF SWAP6 DUP8 PUSH1 0x20 SWAP7 MSTORE DUP3 DUP7 MSTORE SUB DUP3 DUP3 KECCAK256 SSTORE DUP7 DUP2 MSTORE KECCAK256 DUP2 DUP2 SLOAD ADD SWAP1 SSTORE PUSH1 0x40 MLOAD SWAP1 DUP2 MSTORE LOG3 JUMP JUMPDEST PUSH1 0x40 MLOAD PUSH3 0x461BCD PUSH1 0xE5 SHL DUP2 MSTORE PUSH1 0x20 PUSH1 0x4 DUP3 ADD MSTORE PUSH1 0x26 PUSH1 0x24 DUP3 ADD MSTORE PUSH32 0x45524332303A207472616E7366657220616D6F756E7420657863656564732062 PUSH1 0x44 DUP3 ADD MSTORE PUSH6 0x616C616E6365 PUSH1 0xD0 SHL PUSH1 0x64 DUP3 ADD MSTORE PUSH1 0x84 SWAP1 REVERT JUMPDEST PUSH1 0x40 MLOAD PUSH3 0x461BCD PUSH1 0xE5 SHL DUP2 MSTORE PUSH1 0x20 PUSH1 0x4 DUP3 ADD MSTORE PUSH1 0x23 PUSH1 0x24 DUP3 ADD MSTORE PUSH32 0x45524332303A207472616E7366657220746F20746865207A65726F2061646472 PUSH1 0x44 DUP3 ADD MSTORE PUSH3 0x657373 PUSH1 0xE8 SHL PUSH1 0x64 DUP3 ADD MSTORE PUSH1 0x84 SWAP1 REVERT JUMPDEST PUSH1 0x40 MLOAD PUSH3 0x461BCD PUSH1 0xE5 SHL DUP2 MSTORE PUSH1 0x20 PUSH1 0x4 DUP3 ADD MSTORE PUSH1 0x25 PUSH1 0x24 DUP3 ADD MSTORE PUSH32 0x45524332303A207472616E736665722066726F6D20746865207A65726F206164 PUSH1 0x44 DUP3 ADD MSTORE PUSH5 0x6472657373 PUSH1 0xD8 SHL PUSH1 0x64 DUP3 ADD MSTORE PUSH1 0x84 SWAP1 REVERT JUMPDEST SWAP2 SWAP1 DUP3 SUB SWAP2 DUP3 GT PUSH2 0x19FE JUMPI JUMP JUMPDEST DUP2 DUP2 MUL SWAP3 SWAP2 DUP2 ISZERO SWAP2 DUP5 DIV EQ OR ISZERO PUSH2 0x19FE JUMPI JUMP JUMPDEST DUP2 ISZERO PUSH2 0x1CE6 JUMPI DIV SWAP1 JUMP JUMPDEST PUSH4 0x4E487B71 PUSH1 0xE0 SHL PUSH1 0x0 MSTORE PUSH1 0x12 PUSH1 0x4 MSTORE PUSH1 0x24 PUSH1 0x0 REVERT JUMPDEST PUSH1 0x2 PUSH1 0x5 SLOAD EQ PUSH2 0x1D0D JUMPI PUSH1 0x2 PUSH1 0x5 SSTORE JUMP JUMPDEST PUSH1 0x40 MLOAD PUSH3 0x461BCD PUSH1 0xE5 SHL DUP2 MSTORE PUSH1 0x20 PUSH1 0x4 DUP3 ADD MSTORE PUSH1 0x1F PUSH1 0x24 DUP3 ADD MSTORE PUSH32 0x5265656E7472616E637947756172643A207265656E7472616E742063616C6C00 PUSH1 0x44 DUP3 ADD MSTORE PUSH1 0x64 SWAP1 REVERT JUMPDEST PUSH1 0x1 PUSH1 0x1 PUSH1 0xA0 SHL SUB AND SWAP1 DUP2 ISZERO PUSH2 0x1DB0 JUMPI PUSH32 0xDDF252AD1BE2C89B69C2B068FC378DAA952BA7F163C4A11628F55A4DF523B3EF PUSH1 0x20 DUP3 PUSH2 0x1D94 PUSH1 0x0 SWAP5 PUSH1 0x2 SLOAD PUSH2 0x19F1 JUMP JUMPDEST PUSH1 0x2 SSTORE DUP5 DUP5 MSTORE DUP4 DUP3 MSTORE PUSH1 0x40 DUP5 KECCAK256 DUP2 DUP2 SLOAD ADD SWAP1 SSTORE PUSH1 0x40 MLOAD SWAP1 DUP2 MSTORE LOG3 JUMP JUMPDEST PUSH1 0x40 MLOAD PUSH3 0x461BCD PUSH1 0xE5 SHL DUP2 MSTORE PUSH1 0x20 PUSH1 0x4 DUP3 ADD MSTORE PUSH1 0x1F PUSH1 0x24 DUP3 ADD MSTORE PUSH32 0x45524332303A206D696E7420746F20746865207A65726F206164647265737300 PUSH1 0x44 DUP3 ADD MSTORE PUSH1 0x64 SWAP1 REVERT JUMPDEST PUSH1 0x70 SHL SWAP1 PUSH1 0xFF PUSH1 0x70 SHL DUP3 AND SWAP2 PUSH1 0x1 PUSH1 0x1 PUSH1 0x78 SHL SUB PUSH1 0x70 SHL AND DUP3 SUB PUSH2 0x19FE JUMPI JUMP JUMPDEST SWAP1 PUSH1 0x1 PUSH1 0x1 PUSH1 0x78 SHL SUB DUP1 SWAP2 AND SWAP2 DUP3 ISZERO PUSH2 0x1CE6 JUMPI AND DIV SWAP1 JUMP JUMPDEST SWAP3 SWAP2 SWAP3 PUSH1 0x1 PUSH1 0x1 PUSH1 0x70 SHL SUB SWAP1 DUP2 DUP2 GT ISZERO DUP1 PUSH2 0x1F9F JUMPI JUMPDEST ISZERO PUSH2 0x1F64 JUMPI PUSH1 0x9 SLOAD SWAP1 PUSH4 0xFFFFFFFF SWAP2 PUSH1 0xE0 SHR DUP3 TIMESTAMP AND SUB DUP3 DUP2 GT PUSH2 0x19FE JUMPI PUSH32 0x1C411E9A96E071241C2F21F7726B17AE89E3CAB4C78BE50E062B03A9FFFBBAD1 SWAP7 PUSH1 0x40 SWAP7 DUP6 SWAP5 DUP6 SWAP4 AND SWAP1 DUP2 ISZERO ISZERO DUP1 PUSH2 0x1F59 JUMPI JUMPDEST DUP1 PUSH2 0x1F4E JUMPI JUMPDEST PUSH2 0x1EE5 JUMPI JUMPDEST POP POP POP POP PUSH1 0x70 SWAP4 DUP5 SHL PUSH14 0xFFFFFFFFFFFFFFFFFFFFFFFFFFFF PUSH1 0x70 SHL AND SWAP2 AND SWAP1 DUP2 OR TIMESTAMP PUSH1 0xE0 SHL PUSH1 0x1 PUSH1 0x1 PUSH1 0xE0 SHL SUB NOT AND OR PUSH1 0x9 DUP2 SWAP1 SSTORE DUP5 MLOAD SWAP2 DUP3 MSTORE SWAP1 SWAP3 SHR AND PUSH1 0x20 DUP3 ADD MSTORE LOG1 JUMP JUMPDEST PUSH2 0x1F1F PUSH2 0x1F3A SWAP4 PUSH2 0x1F35 PUSH2 0x1F42 SWAP7 DUP6 SWAP5 AND SWAP2 PUSH2 0x1F2D PUSH2 0x1F25 DUP12 PUSH2 0x1F07 DUP7 PUSH2 0x1DF5 JUMP JUMPDEST SWAP4 AND SWAP7 DUP8 SWAP4 PUSH2 0x1F1F PUSH1 0x1 PUSH1 0x1 PUSH1 0x78 SHL SUB SWAP10 DUP11 SWAP3 PUSH2 0x1E15 JUMP JUMPDEST AND PUSH2 0x1CC9 JUMP JUMPDEST PUSH1 0xA SLOAD PUSH2 0x19F1 JUMP JUMPDEST PUSH1 0xA SSTORE PUSH2 0x1DF5 JUMP JUMPDEST PUSH2 0x1E15 JUMP JUMPDEST PUSH1 0xB SLOAD PUSH2 0x19F1 JUMP JUMPDEST PUSH1 0xB SSTORE DUP2 CODESIZE DUP1 DUP1 PUSH2 0x1E9F JUMP JUMPDEST POP DUP4 DUP2 AND ISZERO ISZERO PUSH2 0x1E9A JUMP JUMPDEST POP DUP4 DUP4 AND ISZERO ISZERO PUSH2 0x1E94 JUMP JUMPDEST PUSH1 0x40 MLOAD PUSH3 0x461BCD PUSH1 0xE5 SHL DUP2 MSTORE PUSH1 0x20 PUSH1 0x4 DUP3 ADD MSTORE PUSH1 0x13 PUSH1 0x24 DUP3 ADD MSTORE PUSH19 0x556E697377617056323A204F564552464C4F57 PUSH1 0x68 SHL PUSH1 0x44 DUP3 ADD MSTORE PUSH1 0x64 SWAP1 REVERT JUMPDEST POP DUP2 DUP4 GT ISZERO PUSH2 0x1E43 JUMP JUMPDEST PUSH1 0x6 SLOAD PUSH1 0x40 MLOAD PUSH3 0x2FCFCB PUSH1 0xE3 SHL DUP2 MSTORE SWAP3 SWAP4 SWAP3 SWAP2 SWAP1 PUSH1 0x1 PUSH1 0x1 PUSH1 0xA0 SHL SUB SWAP1 PUSH1 0x20 SWAP1 DUP5 SWAP1 PUSH1 0x4 SWAP1 DUP3 SWAP1 DUP6 AND GAS STATICCALL SWAP3 DUP4 ISZERO PUSH2 0x20D5 JUMPI PUSH1 0x0 SWAP4 PUSH2 0x2097 JUMPI JUMPDEST POP DUP3 AND ISZERO ISZERO SWAP4 PUSH1 0xC SLOAD SWAP2 DUP6 PUSH1 0x0 EQ PUSH2 0x2086 JUMPI DUP3 PUSH2 0x2001 JUMPI JUMPDEST POP POP POP POP JUMP JUMPDEST PUSH2 0xD49 PUSH2 0x201E SWAP2 PUSH2 0x2024 SWAP4 PUSH1 0x1 PUSH1 0x1 PUSH1 0x70 SHL SUB DUP1 SWAP2 AND SWAP2 AND PUSH2 0x1CC9 JUMP JUMPDEST SWAP2 PUSH2 0x20F9 JUMP JUMPDEST SWAP1 DUP2 DUP2 GT PUSH2 0x2033 JUMPI JUMPDEST DUP1 PUSH2 0x1FFB JUMP JUMPDEST PUSH2 0x2043 PUSH1 0x2 SLOAD PUSH2 0x14F1 DUP5 DUP5 PUSH2 0x1CBC JUMP JUMPDEST SWAP1 PUSH1 0x5 DUP2 MUL SWAP1 DUP1 DUP3 DIV PUSH1 0x5 EQ SWAP1 ISZERO OR ISZERO PUSH2 0x19FE JUMPI PUSH2 0x206A SWAP3 PUSH2 0x2064 SWAP2 PUSH2 0x19F1 JUMP JUMPDEST SWAP1 PUSH2 0x1CDC JUMP JUMPDEST DUP1 PUSH2 0x2076 JUMPI JUMPDEST DUP1 PUSH2 0x202D JUMP JUMPDEST PUSH2 0x207F SWAP2 PUSH2 0x1D52 JUMP JUMPDEST CODESIZE DUP1 PUSH2 0x2070 JUMP JUMPDEST POP POP SWAP1 POP PUSH2 0x2090 JUMPI JUMP JUMPDEST PUSH1 0x0 PUSH1 0xC SSTORE JUMP JUMPDEST PUSH1 0x20 SWAP4 SWAP2 SWAP4 DUP2 RETURNDATASIZE DUP3 GT PUSH2 0x20CD JUMPI JUMPDEST DUP2 PUSH2 0x20B2 PUSH1 0x20 SWAP4 DUP4 PUSH2 0x1B16 JUMP JUMPDEST DUP2 ADD SUB SLT PUSH2 0x51E JUMPI MLOAD SWAP1 DUP4 DUP3 AND DUP3 SUB PUSH2 0x256 JUMPI POP SWAP2 CODESIZE PUSH2 0x1FE3 JUMP JUMPDEST RETURNDATASIZE SWAP2 POP PUSH2 0x20A5 JUMP JUMPDEST PUSH1 0x40 MLOAD RETURNDATASIZE PUSH1 0x0 DUP3 RETURNDATACOPY RETURNDATASIZE SWAP1 REVERT JUMPDEST SWAP1 DUP2 PUSH1 0x20 SWAP2 SUB SLT PUSH2 0x203 JUMPI MLOAD DUP1 ISZERO ISZERO DUP2 SUB PUSH2 0x203 JUMPI SWAP1 JUMP JUMPDEST SWAP1 PUSH1 0x0 PUSH1 0x3 DUP4 GT ISZERO PUSH2 0x2141 JUMPI POP DUP2 PUSH1 0x1 SWAP1 DUP1 DUP3 SHR DUP3 DUP2 ADD DUP1 SWAP2 GT PUSH2 0x19FE JUMPI SWAP2 SWAP1 JUMPDEST DUP5 DUP4 LT PUSH2 0x2126 JUMPI POP POP POP JUMP JUMPDEST SWAP1 SWAP2 SWAP4 POP PUSH2 0x2138 DUP5 PUSH2 0x1043 DUP2 DUP5 PUSH2 0x1CDC JUMP JUMPDEST DUP3 SHR SWAP2 SWAP1 PUSH2 0x211A JUMP JUMPDEST SWAP2 PUSH2 0x2148 JUMPI JUMP JUMPDEST PUSH1 0x1 SWAP2 POP JUMP INVALID LOG2 PUSH5 0x6970667358 0x22 SLT KECCAK256 0xB8 0xD0 NOT CALLDATACOPY 0x4B 0xD7 0xDF 0xA8 SWAP7 DUP3 0xA9 OR EXTCODESIZE PREVRANDAO 0xA7 SWAP6 SWAP8 EQ EXTCODEHASH 0xB2 STOP SLT EXTCODESIZE 0xA7 PREVRANDAO 0xC9 PUSH25 0x7471B323FD64736F6C63430008130033000000000000000000 "},"methodIdentifiers":{"MINIMUM_LIQUIDITY()":"ba9a7a56","allowance(address,address)":"dd62ed3e","approve(address,uint256)":"095ea7b3","balanceOf(address)":"70a08231","burn(address)":"89afcb44","decimals()":"313ce567","decreaseAllowance(address,uint256)":"a457c2d7","factory()":"c45a0155","getReserves()":"0902f1ac","increaseAllowance(address,uint256)":"39509351","initialize(address,address)":"485cc955","kLast()":"7464fc3d","mint(address)":"6a627842","name()":"06fdde03","price0CumulativeLast()":"5909c0d5","price1CumulativeLast()":"5a3d5493","skim(address)":"bc25cf77","swap(uint256,uint256,address,bytes)":"022c0d9f","symbol()":"95d89b41","sync()":"fff6cae9","token0()":"0dfe1681","token1()":"d21220a7","totalSupply()":"18160ddd","transfer(address,uint256)":"a9059cbb","transferFrom(address,address,uint256)":"23b872dd"}}}}}