{"contracts/TokenSwap.sol":{"TokenSwap":{"abi":[{"inputs":[{"internalType":"address","name":"_token1","type":"address"},{"internalType":"address","name":"_token2","type":"address"},{"internalType":"uint256","name":"_rate","type":"uint256"}],"stateMutability":"nonpayable","type":"constructor"},{"anonymous":false,"inputs":[{"indexed":true,"internalType":"address","name":"user","type":"address"},{"indexed":false,"internalType":"uint256","name":"token1Amount","type":"uint256"},{"indexed":false,"internalType":"uint256","name":"token2Amount","type":"uint256"}],"name":"Swap","type":"event"},{"inputs":[],"name":"getSwapRate","outputs":[{"internalType":"uint256","name":"","type":"uint256"}],"stateMutability":"view","type":"function"},{"inputs":[],"name":"rate","outputs":[{"internalType":"uint256","name":"","type":"uint256"}],"stateMutability":"view","type":"function"},{"inputs":[{"internalType":"uint256","name":"amount","type":"uint256"}],"name":"swap","outputs":[],"stateMutability":"nonpayable","type":"function"},{"inputs":[],"name":"token1","outputs":[{"internalType":"contract IERC20","name":"","type":"address"}],"stateMutability":"view","type":"function"},{"inputs":[],"name":"token2","outputs":[{"internalType":"contract IERC20","name":"","type":"address"}],"stateMutability":"view","type":"function"}],"evm":{"bytecode":{"linkReferences":{},"object":"60803461013157601f61054e38819003918201601f19168301916001600160401b0383118484101761013657808492606094604052833981010312610131576100478161014c565b9060406100566020830161014c565b9101516001600055916001600160a01b039081169182151580610126575b156100e15783156100ad5760018060a01b031992836001541617600155169060025416176002556003556040516103ed90816101618239f35b60405162461bcd60e51b815260206004820152600c60248201526b496e76616c6964207261746560a01b6044820152606490fd5b60405162461bcd60e51b815260206004820152601760248201527f496e76616c696420746f6b656e206164647265737365730000000000000000006044820152606490fd5b508181161515610074565b600080fd5b634e487b7160e01b600052604160045260246000fd5b51906001600160a01b03821682036101315756fe608060408181526004918236101561001657600080fd5b600092833560e01c918263068eb48f146103465750816325be124e1461031d5781632c4e722e146102fe57816394b918de14610087575063d21220a71461005c57600080fd5b3461008357816003193601126100835760015490516001600160a01b039091168152602090f35b5080fd5b8391503461008357602092836003193601126102fa5781359160028454146102b957600284558215610278576003549081840291848304036102655760015483516323b872dd60e01b81523383820152306024820152604481018690526001600160a01b03918890829060649082908b9087165af190811561025b57879161023e575b50156101fb5786869160025416604486518094819363a9059cbb60e01b835233888401528860248401525af19081156101f15786916101c4575b501561018157507f77f92a1b6a1a11de8ca49515ad4c1fad45632dd3442167d74b90b304a3c7a75892939482519485528401523392a26001815580f35b825162461bcd60e51b8152908101869052601960248201527f5472616e73666572206f6620746f6b656e32206661696c6564000000000000006044820152606490fd5b6101e49150873d89116101ea575b6101dc8183610362565b81019061039a565b87610144565b503d6101d2565b84513d88823e3d90fd5b835162461bcd60e51b8152808301889052601960248201527f5472616e73666572206f6620746f6b656e31206661696c6564000000000000006044820152606490fd5b6102559150883d8a116101ea576101dc8183610362565b8861010a565b85513d89823e3d90fd5b634e487b7160e01b855260119052602484fd5b84606492519162461bcd60e51b8352820152601d60248201527f416d6f756e74206d7573742062652067726561746572207468616e20300000006044820152fd5b84606492519162461bcd60e51b8352820152601f60248201527f5265656e7472616e637947756172643a207265656e7472616e742063616c6c006044820152fd5b8280fd5b5050346100835781600319360112610083576020906003549051908152f35b50503461008357816003193601126100835760025490516001600160a01b039091168152602090f35b8490346100835781600319360112610083576020906003548152f35b90601f8019910116810190811067ffffffffffffffff82111761038457604052565b634e487b7160e01b600052604160045260246000fd5b908160209103126103b2575180151581036103b25790565b600080fdfea2646970667358221220830bb6e1fddaeb47cf41c0385b57f748d0e77adc9a06bcf6ef6a0cb06fca696664736f6c63430008130033","opcodes":"PUSH1 0x80 CALLVALUE PUSH2 0x131 JUMPI PUSH1 0x1F PUSH2 0x54E CODESIZE DUP2 SWAP1 SUB SWAP2 DUP3 ADD PUSH1 0x1F NOT AND DUP4 ADD SWAP2 PUSH1 0x1 PUSH1 0x1 PUSH1 0x40 SHL SUB DUP4 GT DUP5 DUP5 LT OR PUSH2 0x136 JUMPI DUP1 DUP5 SWAP3 PUSH1 0x60 SWAP5 PUSH1 0x40 MSTORE DUP4 CODECOPY DUP2 ADD SUB SLT PUSH2 0x131 JUMPI PUSH2 0x47 DUP2 PUSH2 0x14C JUMP JUMPDEST SWAP1 PUSH1 0x40 PUSH2 0x56 PUSH1 0x20 DUP4 ADD PUSH2 0x14C JUMP JUMPDEST SWAP2 ADD MLOAD PUSH1 0x1 PUSH1 0x0 SSTORE SWAP2 PUSH1 0x1 PUSH1 0x1 PUSH1 0xA0 SHL SUB SWAP1 DUP2 AND SWAP2 DUP3 ISZERO ISZERO DUP1 PUSH2 0x126 JUMPI JUMPDEST ISZERO PUSH2 0xE1 JUMPI DUP4 ISZERO PUSH2 0xAD JUMPI PUSH1 0x1 DUP1 PUSH1 0xA0 SHL SUB NOT SWAP3 DUP4 PUSH1 0x1 SLOAD AND OR PUSH1 0x1 SSTORE AND SWAP1 PUSH1 0x2 SLOAD AND OR PUSH1 0x2 SSTORE PUSH1 0x3 SSTORE PUSH1 0x40 MLOAD PUSH2 0x3ED SWAP1 DUP2 PUSH2 0x161 DUP3 CODECOPY RETURN JUMPDEST PUSH1 0x40 MLOAD PUSH3 0x461BCD PUSH1 0xE5 SHL DUP2 MSTORE PUSH1 0x20 PUSH1 0x4 DUP3 ADD MSTORE PUSH1 0xC PUSH1 0x24 DUP3 ADD MSTORE PUSH12 0x496E76616C69642072617465 PUSH1 0xA0 SHL PUSH1 0x44 DUP3 ADD MSTORE PUSH1 0x64 SWAP1 REVERT JUMPDEST PUSH1 0x40 MLOAD PUSH3 0x461BCD PUSH1 0xE5 SHL DUP2 MSTORE PUSH1 0x20 PUSH1 0x4 DUP3 ADD MSTORE PUSH1 0x17 PUSH1 0x24 DUP3 ADD MSTORE PUSH32 0x496E76616C696420746F6B656E20616464726573736573000000000000000000 PUSH1 0x44 DUP3 ADD MSTORE PUSH1 0x64 SWAP1 REVERT JUMPDEST POP DUP2 DUP2 AND ISZERO ISZERO PUSH2 0x74 JUMP JUMPDEST PUSH1 0x0 DUP1 REVERT JUMPDEST PUSH4 0x4E487B71 PUSH1 0xE0 SHL PUSH1 0x0 MSTORE PUSH1 0x41 PUSH1 0x4 MSTORE PUSH1 0x24 PUSH1 0x0 REVERT JUMPDEST MLOAD SWAP1 PUSH1 0x1 PUSH1 0x1 PUSH1 0xA0 SHL SUB DUP3 AND DUP3 SUB PUSH2 0x131 JUMPI JUMP INVALID PUSH1 0x80 PUSH1 0x40 DUP2 DUP2 MSTORE PUSH1 0x4 SWAP2 DUP3 CALLDATASIZE LT ISZERO PUSH2 0x16 JUMPI PUSH1 0x0 DUP1 REVERT JUMPDEST PUSH1 0x0 SWAP3 DUP4 CALLDATALOAD PUSH1 0xE0 SHR SWAP2 DUP3 PUSH4 0x68EB48F EQ PUSH2 0x346 JUMPI POP DUP2 PUSH4 0x25BE124E EQ PUSH2 0x31D JUMPI DUP2 PUSH4 0x2C4E722E EQ PUSH2 0x2FE JUMPI DUP2 PUSH4 0x94B918DE EQ PUSH2 0x87 JUMPI POP PUSH4 0xD21220A7 EQ PUSH2 0x5C JUMPI PUSH1 0x0 DUP1 REVERT JUMPDEST CALLVALUE PUSH2 0x83 JUMPI DUP2 PUSH1 0x3 NOT CALLDATASIZE ADD SLT PUSH2 0x83 JUMPI PUSH1 0x1 SLOAD SWAP1 MLOAD PUSH1 0x1 PUSH1 0x1 PUSH1 0xA0 SHL SUB SWAP1 SWAP2 AND DUP2 MSTORE PUSH1 0x20 SWAP1 RETURN JUMPDEST POP DUP1 REVERT JUMPDEST DUP4 SWAP2 POP CALLVALUE PUSH2 0x83 JUMPI PUSH1 0x20 SWAP3 DUP4 PUSH1 0x3 NOT CALLDATASIZE ADD SLT PUSH2 0x2FA JUMPI DUP2 CALLDATALOAD SWAP2 PUSH1 0x2 DUP5 SLOAD EQ PUSH2 0x2B9 JUMPI PUSH1 0x2 DUP5 SSTORE DUP3 ISZERO PUSH2 0x278 JUMPI PUSH1 0x3 SLOAD SWAP1 DUP2 DUP5 MUL SWAP2 DUP5 DUP4 DIV SUB PUSH2 0x265 JUMPI PUSH1 0x1 SLOAD DUP4 MLOAD PUSH4 0x23B872DD PUSH1 0xE0 SHL DUP2 MSTORE CALLER DUP4 DUP3 ADD MSTORE ADDRESS PUSH1 0x24 DUP3 ADD MSTORE PUSH1 0x44 DUP2 ADD DUP7 SWAP1 MSTORE PUSH1 0x1 PUSH1 0x1 PUSH1 0xA0 SHL SUB SWAP2 DUP9 SWAP1 DUP3 SWAP1 PUSH1 0x64 SWAP1 DUP3 SWAP1 DUP12 SWAP1 DUP8 AND GAS CALL SWAP1 DUP2 ISZERO PUSH2 0x25B JUMPI DUP8 SWAP2 PUSH2 0x23E JUMPI JUMPDEST POP ISZERO PUSH2 0x1FB JUMPI DUP7 DUP7 SWAP2 PUSH1 0x2 SLOAD AND PUSH1 0x44 DUP7 MLOAD DUP1 SWAP5 DUP2 SWAP4 PUSH4 0xA9059CBB PUSH1 0xE0 SHL DUP4 MSTORE CALLER DUP9 DUP5 ADD MSTORE DUP9 PUSH1 0x24 DUP5 ADD MSTORE GAS CALL SWAP1 DUP2 ISZERO PUSH2 0x1F1 JUMPI DUP7 SWAP2 PUSH2 0x1C4 JUMPI JUMPDEST POP ISZERO PUSH2 0x181 JUMPI POP PUSH32 0x77F92A1B6A1A11DE8CA49515AD4C1FAD45632DD3442167D74B90B304A3C7A758 SWAP3 SWAP4 SWAP5 DUP3 MLOAD SWAP5 DUP6 MSTORE DUP5 ADD MSTORE CALLER SWAP3 LOG2 PUSH1 0x1 DUP2 SSTORE DUP1 RETURN JUMPDEST DUP3 MLOAD PUSH3 0x461BCD PUSH1 0xE5 SHL DUP2 MSTORE SWAP1 DUP2 ADD DUP7 SWAP1 MSTORE PUSH1 0x19 PUSH1 0x24 DUP3 ADD MSTORE PUSH32 0x5472616E73666572206F6620746F6B656E32206661696C656400000000000000 PUSH1 0x44 DUP3 ADD MSTORE PUSH1 0x64 SWAP1 REVERT JUMPDEST PUSH2 0x1E4 SWAP2 POP DUP8 RETURNDATASIZE DUP10 GT PUSH2 0x1EA JUMPI JUMPDEST PUSH2 0x1DC DUP2 DUP4 PUSH2 0x362 JUMP JUMPDEST DUP2 ADD SWAP1 PUSH2 0x39A JUMP JUMPDEST DUP8 PUSH2 0x144 JUMP JUMPDEST POP RETURNDATASIZE PUSH2 0x1D2 JUMP JUMPDEST DUP5 MLOAD RETURNDATASIZE DUP9 DUP3 RETURNDATACOPY RETURNDATASIZE SWAP1 REVERT JUMPDEST DUP4 MLOAD PUSH3 0x461BCD PUSH1 0xE5 SHL DUP2 MSTORE DUP1 DUP4 ADD DUP9 SWAP1 MSTORE PUSH1 0x19 PUSH1 0x24 DUP3 ADD MSTORE PUSH32 0x5472616E73666572206F6620746F6B656E31206661696C656400000000000000 PUSH1 0x44 DUP3 ADD MSTORE PUSH1 0x64 SWAP1 REVERT JUMPDEST PUSH2 0x255 SWAP2 POP DUP9 RETURNDATASIZE DUP11 GT PUSH2 0x1EA JUMPI PUSH2 0x1DC DUP2 DUP4 PUSH2 0x362 JUMP JUMPDEST DUP9 PUSH2 0x10A JUMP JUMPDEST DUP6 MLOAD RETURNDATASIZE DUP10 DUP3 RETURNDATACOPY RETURNDATASIZE SWAP1 REVERT JUMPDEST PUSH4 0x4E487B71 PUSH1 0xE0 SHL DUP6 MSTORE PUSH1 0x11 SWAP1 MSTORE PUSH1 0x24 DUP5 REVERT JUMPDEST DUP5 PUSH1 0x64 SWAP3 MLOAD SWAP2 PUSH3 0x461BCD PUSH1 0xE5 SHL DUP4 MSTORE DUP3 ADD MSTORE PUSH1 0x1D PUSH1 0x24 DUP3 ADD MSTORE PUSH32 0x416D6F756E74206D7573742062652067726561746572207468616E2030000000 PUSH1 0x44 DUP3 ADD MSTORE REVERT JUMPDEST DUP5 PUSH1 0x64 SWAP3 MLOAD SWAP2 PUSH3 0x461BCD PUSH1 0xE5 SHL DUP4 MSTORE DUP3 ADD MSTORE PUSH1 0x1F PUSH1 0x24 DUP3 ADD MSTORE PUSH32 0x5265656E7472616E637947756172643A207265656E7472616E742063616C6C00 PUSH1 0x44 DUP3 ADD MSTORE REVERT JUMPDEST DUP3 DUP1 REVERT JUMPDEST POP POP CALLVALUE PUSH2 0x83 JUMPI DUP2 PUSH1 0x3 NOT CALLDATASIZE ADD SLT PUSH2 0x83 JUMPI PUSH1 0x20 SWAP1 PUSH1 0x3 SLOAD SWAP1 MLOAD SWAP1 DUP2 MSTORE RETURN JUMPDEST POP POP CALLVALUE PUSH2 0x83 JUMPI DUP2 PUSH1 0x3 NOT CALLDATASIZE ADD SLT PUSH2 0x83 JUMPI PUSH1 0x2 SLOAD SWAP1 MLOAD PUSH1 0x1 PUSH1 0x1 PUSH1 0xA0 SHL SUB SWAP1 SWAP2 AND DUP2 MSTORE PUSH1 0x20 SWAP1 RETURN JUMPDEST DUP5 SWAP1 CALLVALUE PUSH2 0x83 JUMPI DUP2 PUSH1 0x3 NOT CALLDATASIZE ADD SLT PUSH2 0x83 JUMPI PUSH1 0x20 SWAP1 PUSH1 0x3 SLOAD DUP2 MSTORE RETURN JUMPDEST SWAP1 PUSH1 0x1F DUP1 NOT SWAP2 ADD AND DUP2 ADD SWAP1 DUP2 LT PUSH8 0xFFFFFFFFFFFFFFFF DUP3 GT OR PUSH2 0x384 JUMPI PUSH1 0x40 MSTORE JUMP JUMPDEST PUSH4 0x4E487B71 PUSH1 0xE0 SHL PUSH1 0x0 MSTORE PUSH1 0x41 PUSH1 0x4 MSTORE PUSH1 0x24 PUSH1 0x0 REVERT JUMPDEST SWAP1 DUP2 PUSH1 0x20 SWAP2 SUB SLT PUSH2 0x3B2 JUMPI MLOAD DUP1 ISZERO ISZERO DUP2 SUB PUSH2 0x3B2 JUMPI SWAP1 JUMP JUMPDEST PUSH1 0x0 DUP1 REVERT INVALID LOG2 PUSH5 0x6970667358 0x22 SLT KECCAK256 DUP4 SIGNEXTEND 0xB6 0xE1 REVERT 0xDA 0xEB SELFBALANCE 0xCF COINBASE 0xC0 CODESIZE JUMPDEST JUMPI 0xF7 BASEFEE 0xD0 0xE7 PUSH27 0xDC9A06BCF6EF6A0CB06FCA696664736F6C63430008130033000000 "},"methodIdentifiers":{"getSwapRate()":"068eb48f","rate()":"2c4e722e","swap(uint256)":"94b918de","token1()":"d21220a7","token2()":"25be124e"}}}}}