{"contracts/UniswapV2Router.sol":{"UniswapV2Router":{"abi":[{"inputs":[{"internalType":"address","name":"_factory","type":"address"},{"internalType":"address","name":"_WETH","type":"address"}],"stateMutability":"nonpayable","type":"constructor"},{"inputs":[],"name":"WETH","outputs":[{"internalType":"address","name":"","type":"address"}],"stateMutability":"view","type":"function"},{"inputs":[{"internalType":"address","name":"tokenA","type":"address"},{"internalType":"address","name":"tokenB","type":"address"},{"internalType":"uint256","name":"amountADesired","type":"uint256"},{"internalType":"uint256","name":"amountBDesired","type":"uint256"},{"internalType":"uint256","name":"amountAMin","type":"uint256"},{"internalType":"uint256","name":"amountBMin","type":"uint256"},{"internalType":"address","name":"to","type":"address"},{"internalType":"uint256","name":"deadline","type":"uint256"}],"name":"addLiquidity","outputs":[{"internalType":"uint256","name":"amountA","type":"uint256"},{"internalType":"uint256","name":"amountB","type":"uint256"},{"internalType":"uint256","name":"liquidity","type":"uint256"}],"stateMutability":"nonpayable","type":"function"},{"inputs":[],"name":"factory","outputs":[{"internalType":"address","name":"","type":"address"}],"stateMutability":"view","type":"function"},{"inputs":[{"internalType":"address","name":"tokenA","type":"address"},{"internalType":"address","name":"tokenB","type":"address"},{"internalType":"uint256","name":"liquidity","type":"uint256"},{"internalType":"uint256","name":"amountAMin","type":"uint256"},{"internalType":"uint256","name":"amountBMin","type":"uint256"},{"internalType":"address","name":"to","type":"address"},{"internalType":"uint256","name":"deadline","type":"uint256"}],"name":"removeLiquidity","outputs":[{"internalType":"uint256","name":"amountA","type":"uint256"},{"internalType":"uint256","name":"amountB","type":"uint256"}],"stateMutability":"nonpayable","type":"function"},{"inputs":[{"internalType":"uint256","name":"amountIn","type":"uint256"},{"internalType":"uint256","name":"amountOutMin","type":"uint256"},{"internalType":"address[]","name":"path","type":"address[]"},{"internalType":"address","name":"to","type":"address"},{"internalType":"uint256","name":"deadline","type":"uint256"}],"name":"swapExactTokensForTokens","outputs":[{"internalType":"uint256[]","name":"amounts","type":"uint256[]"}],"stateMutability":"nonpayable","type":"function"}],"evm":{"bytecode":{"linkReferences":{},"object":"60c0346100a357601f61147e38819003918201601f19168301916001600160401b038311848410176100a85780849260409485528339810103126100a357610052602061004b836100be565b92016100be565b9060805260a0526040516113ab90816100d3823960805181818160cc0152818161032f015281816103af0152818161067b01528181610815015281816109210152610952015260a051816105200152f35b600080fd5b634e487b7160e01b600052604160045260246000fd5b51906001600160a01b03821682036100a35756fe6080604052600436101561001257600080fd5b60003560e01c806338ed17391461054f578063ad5c46481461050a578063baa2abde1461035e578063c45a0155146103195763e8e337001461005357600080fd5b346101d0576101003660031901126101d05761006d610b46565b610075610b5c565b6001600160a01b0391906044359060c43584811690606435908290036101d0576100a34260e4351015610b72565b60405163e6a4390560e01b81526001600160a01b038681166004830152841660248201526020947f000000000000000000000000000000000000000000000000000000000000000093888516929091908781604481875afa80156101dc5788958a958c8a9381956000916102fc575b501615610284575b5061012682878a611193565b9080158061027c575b156101e85750509061015f60249697986101536101689695949b8c969e8f936110ba565b80998195339116610be0565b8b339116610be0565b600060405198899485936335313c2160e11b85526004850152165af19182156101dc576000926101a7575b606094506040519384528301526040820152f35b80925084813d83116101d5575b6101be8183610bbe565b810103126101d0576060935191610193565b600080fd5b503d6101b4565b6040513d6000823e3d90fd5b6101f68282889594956112ec565b9282841161022c575050509061015f602496979861015361016896959461022160a435821015610ede565b9b8c969e8f936110ba565b9350935095505061023f929550846112ec565b928311610266576101688793898761015f8a98610153602498610221608435881015610e83565b634e487b7160e01b600052600160045260246000fd5b50811561012f565b6040516364e329cb60e11b81526001600160a01b039788166004820152969092166024870152949591508590816000816044810103925af19384156101dc578689948b928a971561011a576102ee90883d8a116102f5575b6102e68183610bbe565b810190610e64565b503861011a565b503d6102dc565b61031391508a3d8c116102f5576102e68183610bbe565b38610112565b346101d05760003660031901126101d0576040517f00000000000000000000000000000000000000000000000000000000000000006001600160a01b03168152602090f35b346101d05760e03660031901126101d057610377610b46565b61037f610b5c565b6001600160a01b039160a43583811691908290036101d0576103a54260c4351015610b72565b6104106103d384837f00000000000000000000000000000000000000000000000000000000000000006110ba565b6040516323b872dd60e01b81523360048201526001600160a01b038216602482015260448035908201529190861690602090839081906064820190565b03816000855af180156101dc576000946040936024926104dc575b508351958693849263226bf2d160e21b845260048401525af19283156101dc576000926000946104a0575b50938061046560409684610ff3565b501691161460001461049b57905b610481606435831015610e83565b61048f608435821015610ede565b82519182526020820152f35b610473565b925092506040823d6040116104d4575b816104bd60409383610bbe565b810103126101d05781516020909201519284610456565b3d91506104b0565b6104fc9060203d8111610503575b6104f48183610bbe565b810190610d6f565b508861042b565b503d6104ea565b346101d05760003660031901126101d0576040517f00000000000000000000000000000000000000000000000000000000000000006001600160a01b03168152602090f35b346101d05760a03660031901126101d05767ffffffffffffffff604435116101d0573660236044350112156101d05767ffffffffffffffff60443560040135116101d0573660246044356004013560051b6044350101116101d0576064356001600160a01b03811690036101d0576105cb426084351015610b72565b6105e13660443560040135602460443501610f51565b6002815110610b01578051906105f682610f39565b916106046040519384610bbe565b808352610613601f1991610f39565b0136602084013760043561062683610faf565b5260005b8151600019810190811161072057811015610798576001600160a01b036106518284610fbc565b51166001820182116107205761069f906001600160a01b036106766001850186610fbc565b5116907f0000000000000000000000000000000000000000000000000000000000000000611193565b91906106ab8286610fbc565b5192831561073f57811590811580610736575b6106c79061125c565b6103e580860295860403610720576106df90856112b9565b906103e88084029384041417156107205783820182116107205761071b936107089201906112cc565b6107156001830186610fbc565b52610fe4565b61062a565b634e487b7160e01b600052601160045260246000fd5b508015156106be565b60405162461bcd60e51b815260206004820152602b60248201527f556e697377617056324c6962726172793a20494e53554646494349454e545f4960448201526a1394155517d05353d5539560aa1b6064820152608490fd5b82805180600019810111610720576107b7602435916000190183610fbc565b5110610aa8576044356004013515610a92576001600160a01b036107df604435602401610fd0565b166107ee602460443501610fd0565b906044356004013560011015610a925761083961084b926108126044803501610fd0565b907f00000000000000000000000000000000000000000000000000000000000000006110ba565b61084284610faf565b51913390610be0565b6108613660443560040135602460443501610f51565b9060005b8251600019810190811161072057811015610a4c576001600160a01b0361088c8285610fbc565b511690600181018111610720576001600160a01b036108ae6001830186610fbc565b51166108ba8184610ff3565b50906108c96001840186610fbc565b51916001600160a01b03168403610a4457600091935b8651806001198101116107205760011901841015610a3857600284018411610720576109766109456001600160a01b0361091c600288018b610fbc565b5116847f00000000000000000000000000000000000000000000000000000000000000006110ba565b925b6001600160a01b03927f00000000000000000000000000000000000000000000000000000000000000006110ba565b166040519485602081011067ffffffffffffffff602088011117610a22576020860160405260008652813b156101d057600080946109e96040519889968795869463022c0d9f60e01b86526004860152602485015260018060a01b03166044840152608060648401526084830190610e24565b03925af180156101dc57610a07575b610a029150610fe4565b610865565b67ffffffffffffffff8211610a2257610a02916040526109f8565b634e487b7160e01b600052604160045260246000fd5b61097660643592610947565b6000936108df565b5060405180916020820160208352815180915260206040840192019060005b818110610a79575050500390f35b8251845285945060209384019390920191600101610a6b565b634e487b7160e01b600052603260045260246000fd5b60405162461bcd60e51b815260206004820152602b60248201527f556e69737761705632526f757465723a20494e53554646494349454e545f4f5560448201526a1514155517d05353d5539560aa1b6064820152608490fd5b60405162461bcd60e51b815260206004820152601e60248201527f556e697377617056324c6962726172793a20494e56414c49445f5041544800006044820152606490fd5b600435906001600160a01b03821682036101d057565b602435906001600160a01b03821682036101d057565b15610b7957565b60405162461bcd60e51b815260206004820152601860248201527f556e69737761705632526f757465723a204558504952454400000000000000006044820152606490fd5b90601f8019910116810190811067ffffffffffffffff821117610a2257604052565b604080516323b872dd60e01b60208083019182526001600160a01b03958616602484015295909416604482015260648082019690965294855293949391601f1991610c2c608488610bbe565b835167ffffffffffffffff979093916001600160a01b03169084860189811186821017610a225786528685527f5361666545524332303a206c6f772d6c6576656c2063616c6c206661696c656487860152600080948192519082855af1913d15610d5c573d988911610d4857869798610cb28798610cc0985193601f8401160183610bbe565b81528093883d92013e610d87565b805190838215928315610d30575b50505015610cda575050565b60849250519062461bcd60e51b82526004820152602a60248201527f5361666545524332303a204552433230206f7065726174696f6e20646964206e6044820152691bdd081cdd58d8d9595960b21b6064820152fd5b610d409350820181019101610d6f565b388381610cce565b634e487b7160e01b84526041600452602484fd5b509150610cc09394959650606091610d87565b908160209103126101d0575180151581036101d05790565b91929015610de95750815115610d9b575090565b3b15610da45790565b60405162461bcd60e51b815260206004820152601d60248201527f416464726573733a2063616c6c20746f206e6f6e2d636f6e74726163740000006044820152606490fd5b825190915015610dfc5750805190602001fd5b60405162461bcd60e51b815260206004820152908190610e20906024830190610e24565b0390fd5b919082519283825260005b848110610e50575050826000602080949584010152601f8019910116010190565b602081830181015184830182015201610e2f565b908160209103126101d057516001600160a01b03811681036101d05790565b15610e8a57565b60405162461bcd60e51b815260206004820152602660248201527f556e69737761705632526f757465723a20494e53554646494349454e545f415f604482015265105353d5539560d21b6064820152608490fd5b15610ee557565b60405162461bcd60e51b815260206004820152602660248201527f556e69737761705632526f757465723a20494e53554646494349454e545f425f604482015265105353d5539560d21b6064820152608490fd5b67ffffffffffffffff8111610a225760051b60200190565b9291610f5c82610f39565b91610f6a6040519384610bbe565b829481845260208094019160051b81019283116101d057905b828210610f905750505050565b81356001600160a01b03811681036101d0578152908301908301610f83565b805115610a925760200190565b8051821015610a925760209160051b010190565b356001600160a01b03811681036101d05790565b60001981146107205760010190565b90916001600160a01b039182841683821680821461106757101561106257925b9183161561101d57565b60405162461bcd60e51b815260206004820152601e60248201527f556e697377617056324c6962726172793a205a45524f5f4144445245535300006044820152606490fd5b611013565b60405162461bcd60e51b815260206004820152602560248201527f556e697377617056324c6962726172793a204944454e544943414c5f41444452604482015264455353455360d81b6064820152608490fd5b916110c491610ff3565b6040929192519260208401906bffffffffffffffffffffffff199283809260601b16835260601b16603485015260288452606084019367ffffffffffffffff9281861084871117610a225760e092866040528251902090608083019560ff60f81b875260601b16608183015260958201527f96e8ac4277198ff8b6f785478aa9a39f403cb768dd02cbee326c3e7da348845f60b582015260558552019083821090821117610a2257604052905190206001600160a01b031690565b51906001600160701b03821682036101d057565b908060606004936111b96111a78785610ff3565b50966001600160a01b039485936110ba565b1660405194858092630240bc6b60e21b82525afa9283156101dc576000908194611201575b5081906001600160701b03809116941694169116146000146111fd5791565b9091565b93506060843d8211611254575b8161121b60609383610bbe565b810103126112515761122c8461117f565b90604061123b6020870161117f565b95015163ffffffff8116036112515750816111de565b80fd5b3d915061120e565b1561126357565b60405162461bcd60e51b815260206004820152602860248201527f556e697377617056324c6962726172793a20494e53554646494349454e545f4c604482015267495155494449545960c01b6064820152608490fd5b8181029291811591840414171561072057565b81156112d6570490565b634e487b7160e01b600052601260045260246000fd5b801561132257611316926113119183151580611319575b61130c9061125c565b6112b9565b6112cc565b90565b50811515611303565b60405162461bcd60e51b815260206004820152602560248201527f556e697377617056324c6962726172793a20494e53554646494349454e545f416044820152641353d5539560da1b6064820152608490fdfea2646970667358221220261d9a6edecd50069e6689ea4b70e72b7e3ded731597a9ca3918ea30ef75bd5c64736f6c63430008130033","opcodes":"PUSH1 0xC0 CALLVALUE PUSH2 0xA3 JUMPI PUSH1 0x1F PUSH2 0x147E CODESIZE DUP2 SWAP1 SUB SWAP2 DUP3 ADD PUSH1 0x1F NOT AND DUP4 ADD SWAP2 PUSH1 0x1 PUSH1 0x1 PUSH1 0x40 SHL SUB DUP4 GT DUP5 DUP5 LT OR PUSH2 0xA8 JUMPI DUP1 DUP5 SWAP3 PUSH1 0x40 SWAP5 DUP6 MSTORE DUP4 CODECOPY DUP2 ADD SUB SLT PUSH2 0xA3 JUMPI PUSH2 0x52 PUSH1 0x20 PUSH2 0x4B DUP4 PUSH2 0xBE JUMP JUMPDEST SWAP3 ADD PUSH2 0xBE JUMP JUMPDEST SWAP1 PUSH1 0x80 MSTORE PUSH1 0xA0 MSTORE PUSH1 0x40 MLOAD PUSH2 0x13AB SWAP1 DUP2 PUSH2 0xD3 DUP3 CODECOPY PUSH1 0x80 MLOAD DUP2 DUP2 DUP2 PUSH1 0xCC ADD MSTORE DUP2 DUP2 PUSH2 0x32F ADD MSTORE DUP2 DUP2 PUSH2 0x3AF ADD MSTORE DUP2 DUP2 PUSH2 0x67B ADD MSTORE DUP2 DUP2 PUSH2 0x815 ADD MSTORE DUP2 DUP2 PUSH2 0x921 ADD MSTORE PUSH2 0x952 ADD MSTORE PUSH1 0xA0 MLOAD DUP2 PUSH2 0x520 ADD MSTORE RETURN JUMPDEST PUSH1 0x0 DUP1 REVERT JUMPDEST PUSH4 0x4E487B71 PUSH1 0xE0 SHL PUSH1 0x0 MSTORE PUSH1 0x41 PUSH1 0x4 MSTORE PUSH1 0x24 PUSH1 0x0 REVERT JUMPDEST MLOAD SWAP1 PUSH1 0x1 PUSH1 0x1 PUSH1 0xA0 SHL SUB DUP3 AND DUP3 SUB PUSH2 0xA3 JUMPI JUMP INVALID PUSH1 0x80 PUSH1 0x40 MSTORE PUSH1 0x4 CALLDATASIZE LT ISZERO PUSH2 0x12 JUMPI PUSH1 0x0 DUP1 REVERT JUMPDEST PUSH1 0x0 CALLDATALOAD PUSH1 0xE0 SHR DUP1 PUSH4 0x38ED1739 EQ PUSH2 0x54F JUMPI DUP1 PUSH4 0xAD5C4648 EQ PUSH2 0x50A JUMPI DUP1 PUSH4 0xBAA2ABDE EQ PUSH2 0x35E JUMPI DUP1 PUSH4 0xC45A0155 EQ PUSH2 0x319 JUMPI PUSH4 0xE8E33700 EQ PUSH2 0x53 JUMPI PUSH1 0x0 DUP1 REVERT JUMPDEST CALLVALUE PUSH2 0x1D0 JUMPI PUSH2 0x100 CALLDATASIZE PUSH1 0x3 NOT ADD SLT PUSH2 0x1D0 JUMPI PUSH2 0x6D PUSH2 0xB46 JUMP JUMPDEST PUSH2 0x75 PUSH2 0xB5C JUMP JUMPDEST PUSH1 0x1 PUSH1 0x1 PUSH1 0xA0 SHL SUB SWAP2 SWAP1 PUSH1 0x44 CALLDATALOAD SWAP1 PUSH1 0xC4 CALLDATALOAD DUP5 DUP2 AND SWAP1 PUSH1 0x64 CALLDATALOAD SWAP1 DUP3 SWAP1 SUB PUSH2 0x1D0 JUMPI PUSH2 0xA3 TIMESTAMP PUSH1 0xE4 CALLDATALOAD LT ISZERO PUSH2 0xB72 JUMP JUMPDEST PUSH1 0x40 MLOAD PUSH4 0xE6A43905 PUSH1 0xE0 SHL DUP2 MSTORE PUSH1 0x1 PUSH1 0x1 PUSH1 0xA0 SHL SUB DUP7 DUP2 AND PUSH1 0x4 DUP4 ADD MSTORE DUP5 AND PUSH1 0x24 DUP3 ADD MSTORE PUSH1 0x20 SWAP5 PUSH32 0x0 SWAP4 DUP9 DUP6 AND SWAP3 SWAP1 SWAP2 SWAP1 DUP8 DUP2 PUSH1 0x44 DUP2 DUP8 GAS STATICCALL DUP1 ISZERO PUSH2 0x1DC JUMPI DUP9 SWAP6 DUP11 SWAP6 DUP13 DUP11 SWAP4 DUP2 SWAP6 PUSH1 0x0 SWAP2 PUSH2 0x2FC JUMPI JUMPDEST POP AND ISZERO PUSH2 0x284 JUMPI JUMPDEST POP PUSH2 0x126 DUP3 DUP8 DUP11 PUSH2 0x1193 JUMP JUMPDEST SWAP1 DUP1 ISZERO DUP1 PUSH2 0x27C JUMPI JUMPDEST ISZERO PUSH2 0x1E8 JUMPI POP POP SWAP1 PUSH2 0x15F PUSH1 0x24 SWAP7 SWAP8 SWAP9 PUSH2 0x153 PUSH2 0x168 SWAP7 SWAP6 SWAP5 SWAP12 DUP13 SWAP7 SWAP15 DUP16 SWAP4 PUSH2 0x10BA JUMP JUMPDEST DUP1 SWAP10 DUP2 SWAP6 CALLER SWAP2 AND PUSH2 0xBE0 JUMP JUMPDEST DUP12 CALLER SWAP2 AND PUSH2 0xBE0 JUMP JUMPDEST PUSH1 0x0 PUSH1 0x40 MLOAD SWAP9 DUP10 SWAP5 DUP6 SWAP4 PUSH4 0x35313C21 PUSH1 0xE1 SHL DUP6 MSTORE PUSH1 0x4 DUP6 ADD MSTORE AND GAS CALL SWAP2 DUP3 ISZERO PUSH2 0x1DC JUMPI PUSH1 0x0 SWAP3 PUSH2 0x1A7 JUMPI JUMPDEST PUSH1 0x60 SWAP5 POP PUSH1 0x40 MLOAD SWAP4 DUP5 MSTORE DUP4 ADD MSTORE PUSH1 0x40 DUP3 ADD MSTORE RETURN JUMPDEST DUP1 SWAP3 POP DUP5 DUP2 RETURNDATASIZE DUP4 GT PUSH2 0x1D5 JUMPI JUMPDEST PUSH2 0x1BE DUP2 DUP4 PUSH2 0xBBE JUMP JUMPDEST DUP2 ADD SUB SLT PUSH2 0x1D0 JUMPI PUSH1 0x60 SWAP4 MLOAD SWAP2 PUSH2 0x193 JUMP JUMPDEST PUSH1 0x0 DUP1 REVERT JUMPDEST POP RETURNDATASIZE PUSH2 0x1B4 JUMP JUMPDEST PUSH1 0x40 MLOAD RETURNDATASIZE PUSH1 0x0 DUP3 RETURNDATACOPY RETURNDATASIZE SWAP1 REVERT JUMPDEST PUSH2 0x1F6 DUP3 DUP3 DUP9 SWAP6 SWAP5 SWAP6 PUSH2 0x12EC JUMP JUMPDEST SWAP3 DUP3 DUP5 GT PUSH2 0x22C JUMPI POP POP POP SWAP1 PUSH2 0x15F PUSH1 0x24 SWAP7 SWAP8 SWAP9 PUSH2 0x153 PUSH2 0x168 SWAP7 SWAP6 SWAP5 PUSH2 0x221 PUSH1 0xA4 CALLDATALOAD DUP3 LT ISZERO PUSH2 0xEDE JUMP JUMPDEST SWAP12 DUP13 SWAP7 SWAP15 DUP16 SWAP4 PUSH2 0x10BA JUMP JUMPDEST SWAP4 POP SWAP4 POP SWAP6 POP POP PUSH2 0x23F SWAP3 SWAP6 POP DUP5 PUSH2 0x12EC JUMP JUMPDEST SWAP3 DUP4 GT PUSH2 0x266 JUMPI PUSH2 0x168 DUP8 SWAP4 DUP10 DUP8 PUSH2 0x15F DUP11 SWAP9 PUSH2 0x153 PUSH1 0x24 SWAP9 PUSH2 0x221 PUSH1 0x84 CALLDATALOAD DUP9 LT ISZERO PUSH2 0xE83 JUMP JUMPDEST PUSH4 0x4E487B71 PUSH1 0xE0 SHL PUSH1 0x0 MSTORE PUSH1 0x1 PUSH1 0x4 MSTORE PUSH1 0x24 PUSH1 0x0 REVERT JUMPDEST POP DUP2 ISZERO PUSH2 0x12F JUMP JUMPDEST PUSH1 0x40 MLOAD PUSH4 0x64E329CB PUSH1 0xE1 SHL DUP2 MSTORE PUSH1 0x1 PUSH1 0x1 PUSH1 0xA0 SHL SUB SWAP8 DUP9 AND PUSH1 0x4 DUP3 ADD MSTORE SWAP7 SWAP1 SWAP3 AND PUSH1 0x24 DUP8 ADD MSTORE SWAP5 SWAP6 SWAP2 POP DUP6 SWAP1 DUP2 PUSH1 0x0 DUP2 PUSH1 0x44 DUP2 ADD SUB SWAP3 GAS CALL SWAP4 DUP5 ISZERO PUSH2 0x1DC JUMPI DUP7 DUP10 SWAP5 DUP12 SWAP3 DUP11 SWAP8 ISZERO PUSH2 0x11A JUMPI PUSH2 0x2EE SWAP1 DUP9 RETURNDATASIZE DUP11 GT PUSH2 0x2F5 JUMPI JUMPDEST PUSH2 0x2E6 DUP2 DUP4 PUSH2 0xBBE JUMP JUMPDEST DUP2 ADD SWAP1 PUSH2 0xE64 JUMP JUMPDEST POP CODESIZE PUSH2 0x11A JUMP JUMPDEST POP RETURNDATASIZE PUSH2 0x2DC JUMP JUMPDEST PUSH2 0x313 SWAP2 POP DUP11 RETURNDATASIZE DUP13 GT PUSH2 0x2F5 JUMPI PUSH2 0x2E6 DUP2 DUP4 PUSH2 0xBBE JUMP JUMPDEST CODESIZE PUSH2 0x112 JUMP JUMPDEST CALLVALUE PUSH2 0x1D0 JUMPI PUSH1 0x0 CALLDATASIZE PUSH1 0x3 NOT ADD SLT PUSH2 0x1D0 JUMPI PUSH1 0x40 MLOAD PUSH32 0x0 PUSH1 0x1 PUSH1 0x1 PUSH1 0xA0 SHL SUB AND DUP2 MSTORE PUSH1 0x20 SWAP1 RETURN JUMPDEST CALLVALUE PUSH2 0x1D0 JUMPI PUSH1 0xE0 CALLDATASIZE PUSH1 0x3 NOT ADD SLT PUSH2 0x1D0 JUMPI PUSH2 0x377 PUSH2 0xB46 JUMP JUMPDEST PUSH2 0x37F PUSH2 0xB5C JUMP JUMPDEST PUSH1 0x1 PUSH1 0x1 PUSH1 0xA0 SHL SUB SWAP2 PUSH1 0xA4 CALLDATALOAD DUP4 DUP2 AND SWAP2 SWAP1 DUP3 SWAP1 SUB PUSH2 0x1D0 JUMPI PUSH2 0x3A5 TIMESTAMP PUSH1 0xC4 CALLDATALOAD LT ISZERO PUSH2 0xB72 JUMP JUMPDEST PUSH2 0x410 PUSH2 0x3D3 DUP5 DUP4 PUSH32 0x0 PUSH2 0x10BA JUMP JUMPDEST PUSH1 0x40 MLOAD PUSH4 0x23B872DD PUSH1 0xE0 SHL DUP2 MSTORE CALLER PUSH1 0x4 DUP3 ADD MSTORE PUSH1 0x1 PUSH1 0x1 PUSH1 0xA0 SHL SUB DUP3 AND PUSH1 0x24 DUP3 ADD MSTORE PUSH1 0x44 DUP1 CALLDATALOAD SWAP1 DUP3 ADD MSTORE SWAP2 SWAP1 DUP7 AND SWAP1 PUSH1 0x20 SWAP1 DUP4 SWAP1 DUP2 SWAP1 PUSH1 0x64 DUP3 ADD SWAP1 JUMP JUMPDEST SUB DUP2 PUSH1 0x0 DUP6 GAS CALL DUP1 ISZERO PUSH2 0x1DC JUMPI PUSH1 0x0 SWAP5 PUSH1 0x40 SWAP4 PUSH1 0x24 SWAP3 PUSH2 0x4DC JUMPI JUMPDEST POP DUP4 MLOAD SWAP6 DUP7 SWAP4 DUP5 SWAP3 PUSH4 0x226BF2D1 PUSH1 0xE2 SHL DUP5 MSTORE PUSH1 0x4 DUP5 ADD MSTORE GAS CALL SWAP3 DUP4 ISZERO PUSH2 0x1DC JUMPI PUSH1 0x0 SWAP3 PUSH1 0x0 SWAP5 PUSH2 0x4A0 JUMPI JUMPDEST POP SWAP4 DUP1 PUSH2 0x465 PUSH1 0x40 SWAP7 DUP5 PUSH2 0xFF3 JUMP JUMPDEST POP AND SWAP2 AND EQ PUSH1 0x0 EQ PUSH2 0x49B JUMPI SWAP1 JUMPDEST PUSH2 0x481 PUSH1 0x64 CALLDATALOAD DUP4 LT ISZERO PUSH2 0xE83 JUMP JUMPDEST PUSH2 0x48F PUSH1 0x84 CALLDATALOAD DUP3 LT ISZERO PUSH2 0xEDE JUMP JUMPDEST DUP3 MLOAD SWAP2 DUP3 MSTORE PUSH1 0x20 DUP3 ADD MSTORE RETURN JUMPDEST PUSH2 0x473 JUMP JUMPDEST SWAP3 POP SWAP3 POP PUSH1 0x40 DUP3 RETURNDATASIZE PUSH1 0x40 GT PUSH2 0x4D4 JUMPI JUMPDEST DUP2 PUSH2 0x4BD PUSH1 0x40 SWAP4 DUP4 PUSH2 0xBBE JUMP JUMPDEST DUP2 ADD SUB SLT PUSH2 0x1D0 JUMPI DUP2 MLOAD PUSH1 0x20 SWAP1 SWAP3 ADD MLOAD SWAP3 DUP5 PUSH2 0x456 JUMP JUMPDEST RETURNDATASIZE SWAP2 POP PUSH2 0x4B0 JUMP JUMPDEST PUSH2 0x4FC SWAP1 PUSH1 0x20 RETURNDATASIZE DUP2 GT PUSH2 0x503 JUMPI JUMPDEST PUSH2 0x4F4 DUP2 DUP4 PUSH2 0xBBE JUMP JUMPDEST DUP2 ADD SWAP1 PUSH2 0xD6F JUMP JUMPDEST POP DUP9 PUSH2 0x42B JUMP JUMPDEST POP RETURNDATASIZE PUSH2 0x4EA JUMP JUMPDEST CALLVALUE PUSH2 0x1D0 JUMPI PUSH1 0x0 CALLDATASIZE PUSH1 0x3 NOT ADD SLT PUSH2 0x1D0 JUMPI PUSH1 0x40 MLOAD PUSH32 0x0 PUSH1 0x1 PUSH1 0x1 PUSH1 0xA0 SHL SUB AND DUP2 MSTORE PUSH1 0x20 SWAP1 RETURN JUMPDEST CALLVALUE PUSH2 0x1D0 JUMPI PUSH1 0xA0 CALLDATASIZE PUSH1 0x3 NOT ADD SLT PUSH2 0x1D0 JUMPI PUSH8 0xFFFFFFFFFFFFFFFF PUSH1 0x44 CALLDATALOAD GT PUSH2 0x1D0 JUMPI CALLDATASIZE PUSH1 0x23 PUSH1 0x44 CALLDATALOAD ADD SLT ISZERO PUSH2 0x1D0 JUMPI PUSH8 0xFFFFFFFFFFFFFFFF PUSH1 0x44 CALLDATALOAD PUSH1 0x4 ADD CALLDATALOAD GT PUSH2 0x1D0 JUMPI CALLDATASIZE PUSH1 0x24 PUSH1 0x44 CALLDATALOAD PUSH1 0x4 ADD CALLDATALOAD PUSH1 0x5 SHL PUSH1 0x44 CALLDATALOAD ADD ADD GT PUSH2 0x1D0 JUMPI PUSH1 0x64 CALLDATALOAD PUSH1 0x1 PUSH1 0x1 PUSH1 0xA0 SHL SUB DUP2 AND SWAP1 SUB PUSH2 0x1D0 JUMPI PUSH2 0x5CB TIMESTAMP PUSH1 0x84 CALLDATALOAD LT ISZERO PUSH2 0xB72 JUMP JUMPDEST PUSH2 0x5E1 CALLDATASIZE PUSH1 0x44 CALLDATALOAD PUSH1 0x4 ADD CALLDATALOAD PUSH1 0x24 PUSH1 0x44 CALLDATALOAD ADD PUSH2 0xF51 JUMP JUMPDEST PUSH1 0x2 DUP2 MLOAD LT PUSH2 0xB01 JUMPI DUP1 MLOAD SWAP1 PUSH2 0x5F6 DUP3 PUSH2 0xF39 JUMP JUMPDEST SWAP2 PUSH2 0x604 PUSH1 0x40 MLOAD SWAP4 DUP5 PUSH2 0xBBE JUMP JUMPDEST DUP1 DUP4 MSTORE PUSH2 0x613 PUSH1 0x1F NOT SWAP2 PUSH2 0xF39 JUMP JUMPDEST ADD CALLDATASIZE PUSH1 0x20 DUP5 ADD CALLDATACOPY PUSH1 0x4 CALLDATALOAD PUSH2 0x626 DUP4 PUSH2 0xFAF JUMP JUMPDEST MSTORE PUSH1 0x0 JUMPDEST DUP2 MLOAD PUSH1 0x0 NOT DUP2 ADD SWAP1 DUP2 GT PUSH2 0x720 JUMPI DUP2 LT ISZERO PUSH2 0x798 JUMPI PUSH1 0x1 PUSH1 0x1 PUSH1 0xA0 SHL SUB PUSH2 0x651 DUP3 DUP5 PUSH2 0xFBC JUMP JUMPDEST MLOAD AND PUSH1 0x1 DUP3 ADD DUP3 GT PUSH2 0x720 JUMPI PUSH2 0x69F SWAP1 PUSH1 0x1 PUSH1 0x1 PUSH1 0xA0 SHL SUB PUSH2 0x676 PUSH1 0x1 DUP6 ADD DUP7 PUSH2 0xFBC JUMP JUMPDEST MLOAD AND SWAP1 PUSH32 0x0 PUSH2 0x1193 JUMP JUMPDEST SWAP2 SWAP1 PUSH2 0x6AB DUP3 DUP7 PUSH2 0xFBC JUMP JUMPDEST MLOAD SWAP3 DUP4 ISZERO PUSH2 0x73F JUMPI DUP2 ISZERO SWAP1 DUP2 ISZERO DUP1 PUSH2 0x736 JUMPI JUMPDEST PUSH2 0x6C7 SWAP1 PUSH2 0x125C JUMP JUMPDEST PUSH2 0x3E5 DUP1 DUP7 MUL SWAP6 DUP7 DIV SUB PUSH2 0x720 JUMPI PUSH2 0x6DF SWAP1 DUP6 PUSH2 0x12B9 JUMP JUMPDEST SWAP1 PUSH2 0x3E8 DUP1 DUP5 MUL SWAP4 DUP5 DIV EQ OR ISZERO PUSH2 0x720 JUMPI DUP4 DUP3 ADD DUP3 GT PUSH2 0x720 JUMPI PUSH2 0x71B SWAP4 PUSH2 0x708 SWAP3 ADD SWAP1 PUSH2 0x12CC JUMP JUMPDEST PUSH2 0x715 PUSH1 0x1 DUP4 ADD DUP7 PUSH2 0xFBC JUMP JUMPDEST MSTORE PUSH2 0xFE4 JUMP JUMPDEST PUSH2 0x62A JUMP JUMPDEST PUSH4 0x4E487B71 PUSH1 0xE0 SHL PUSH1 0x0 MSTORE PUSH1 0x11 PUSH1 0x4 MSTORE PUSH1 0x24 PUSH1 0x0 REVERT JUMPDEST POP DUP1 ISZERO ISZERO PUSH2 0x6BE JUMP JUMPDEST PUSH1 0x40 MLOAD PUSH3 0x461BCD PUSH1 0xE5 SHL DUP2 MSTORE PUSH1 0x20 PUSH1 0x4 DUP3 ADD MSTORE PUSH1 0x2B PUSH1 0x24 DUP3 ADD MSTORE PUSH32 0x556E697377617056324C6962726172793A20494E53554646494349454E545F49 PUSH1 0x44 DUP3 ADD MSTORE PUSH11 0x1394155517D05353D55395 PUSH1 0xAA SHL PUSH1 0x64 DUP3 ADD MSTORE PUSH1 0x84 SWAP1 REVERT JUMPDEST DUP3 DUP1 MLOAD DUP1 PUSH1 0x0 NOT DUP2 ADD GT PUSH2 0x720 JUMPI PUSH2 0x7B7 PUSH1 0x24 CALLDATALOAD SWAP2 PUSH1 0x0 NOT ADD DUP4 PUSH2 0xFBC JUMP JUMPDEST MLOAD LT PUSH2 0xAA8 JUMPI PUSH1 0x44 CALLDATALOAD PUSH1 0x4 ADD CALLDATALOAD ISZERO PUSH2 0xA92 JUMPI PUSH1 0x1 PUSH1 0x1 PUSH1 0xA0 SHL SUB PUSH2 0x7DF PUSH1 0x44 CALLDATALOAD PUSH1 0x24 ADD PUSH2 0xFD0 JUMP JUMPDEST AND PUSH2 0x7EE PUSH1 0x24 PUSH1 0x44 CALLDATALOAD ADD PUSH2 0xFD0 JUMP JUMPDEST SWAP1 PUSH1 0x44 CALLDATALOAD PUSH1 0x4 ADD CALLDATALOAD PUSH1 0x1 LT ISZERO PUSH2 0xA92 JUMPI PUSH2 0x839 PUSH2 0x84B SWAP3 PUSH2 0x812 PUSH1 0x44 DUP1 CALLDATALOAD ADD PUSH2 0xFD0 JUMP JUMPDEST SWAP1 PUSH32 0x0 PUSH2 0x10BA JUMP JUMPDEST PUSH2 0x842 DUP5 PUSH2 0xFAF JUMP JUMPDEST MLOAD SWAP2 CALLER SWAP1 PUSH2 0xBE0 JUMP JUMPDEST PUSH2 0x861 CALLDATASIZE PUSH1 0x44 CALLDATALOAD PUSH1 0x4 ADD CALLDATALOAD PUSH1 0x24 PUSH1 0x44 CALLDATALOAD ADD PUSH2 0xF51 JUMP JUMPDEST SWAP1 PUSH1 0x0 JUMPDEST DUP3 MLOAD PUSH1 0x0 NOT DUP2 ADD SWAP1 DUP2 GT PUSH2 0x720 JUMPI DUP2 LT ISZERO PUSH2 0xA4C JUMPI PUSH1 0x1 PUSH1 0x1 PUSH1 0xA0 SHL SUB PUSH2 0x88C DUP3 DUP6 PUSH2 0xFBC JUMP JUMPDEST MLOAD AND SWAP1 PUSH1 0x1 DUP2 ADD DUP2 GT PUSH2 0x720 JUMPI PUSH1 0x1 PUSH1 0x1 PUSH1 0xA0 SHL SUB PUSH2 0x8AE PUSH1 0x1 DUP4 ADD DUP7 PUSH2 0xFBC JUMP JUMPDEST MLOAD AND PUSH2 0x8BA DUP2 DUP5 PUSH2 0xFF3 JUMP JUMPDEST POP SWAP1 PUSH2 0x8C9 PUSH1 0x1 DUP5 ADD DUP7 PUSH2 0xFBC JUMP JUMPDEST MLOAD SWAP2 PUSH1 0x1 PUSH1 0x1 PUSH1 0xA0 SHL SUB AND DUP5 SUB PUSH2 0xA44 JUMPI PUSH1 0x0 SWAP2 SWAP4 JUMPDEST DUP7 MLOAD DUP1 PUSH1 0x1 NOT DUP2 ADD GT PUSH2 0x720 JUMPI PUSH1 0x1 NOT ADD DUP5 LT ISZERO PUSH2 0xA38 JUMPI PUSH1 0x2 DUP5 ADD DUP5 GT PUSH2 0x720 JUMPI PUSH2 0x976 PUSH2 0x945 PUSH1 0x1 PUSH1 0x1 PUSH1 0xA0 SHL SUB PUSH2 0x91C PUSH1 0x2 DUP9 ADD DUP12 PUSH2 0xFBC JUMP JUMPDEST MLOAD AND DUP5 PUSH32 0x0 PUSH2 0x10BA JUMP JUMPDEST SWAP3 JUMPDEST PUSH1 0x1 PUSH1 0x1 PUSH1 0xA0 SHL SUB SWAP3 PUSH32 0x0 PUSH2 0x10BA JUMP JUMPDEST AND PUSH1 0x40 MLOAD SWAP5 DUP6 PUSH1 0x20 DUP2 ADD LT PUSH8 0xFFFFFFFFFFFFFFFF PUSH1 0x20 DUP9 ADD GT OR PUSH2 0xA22 JUMPI PUSH1 0x20 DUP7 ADD PUSH1 0x40 MSTORE PUSH1 0x0 DUP7 MSTORE DUP2 EXTCODESIZE ISZERO PUSH2 0x1D0 JUMPI PUSH1 0x0 DUP1 SWAP5 PUSH2 0x9E9 PUSH1 0x40 MLOAD SWAP9 DUP10 SWAP7 DUP8 SWAP6 DUP7 SWAP5 PUSH4 0x22C0D9F PUSH1 0xE0 SHL DUP7 MSTORE PUSH1 0x4 DUP7 ADD MSTORE PUSH1 0x24 DUP6 ADD MSTORE PUSH1 0x1 DUP1 PUSH1 0xA0 SHL SUB AND PUSH1 0x44 DUP5 ADD MSTORE PUSH1 0x80 PUSH1 0x64 DUP5 ADD MSTORE PUSH1 0x84 DUP4 ADD SWAP1 PUSH2 0xE24 JUMP JUMPDEST SUB SWAP3 GAS CALL DUP1 ISZERO PUSH2 0x1DC JUMPI PUSH2 0xA07 JUMPI JUMPDEST PUSH2 0xA02 SWAP2 POP PUSH2 0xFE4 JUMP JUMPDEST PUSH2 0x865 JUMP JUMPDEST PUSH8 0xFFFFFFFFFFFFFFFF DUP3 GT PUSH2 0xA22 JUMPI PUSH2 0xA02 SWAP2 PUSH1 0x40 MSTORE PUSH2 0x9F8 JUMP JUMPDEST PUSH4 0x4E487B71 PUSH1 0xE0 SHL PUSH1 0x0 MSTORE PUSH1 0x41 PUSH1 0x4 MSTORE PUSH1 0x24 PUSH1 0x0 REVERT JUMPDEST PUSH2 0x976 PUSH1 0x64 CALLDATALOAD SWAP3 PUSH2 0x947 JUMP JUMPDEST PUSH1 0x0 SWAP4 PUSH2 0x8DF JUMP JUMPDEST POP PUSH1 0x40 MLOAD DUP1 SWAP2 PUSH1 0x20 DUP3 ADD PUSH1 0x20 DUP4 MSTORE DUP2 MLOAD DUP1 SWAP2 MSTORE PUSH1 0x20 PUSH1 0x40 DUP5 ADD SWAP3 ADD SWAP1 PUSH1 0x0 JUMPDEST DUP2 DUP2 LT PUSH2 0xA79 JUMPI POP POP POP SUB SWAP1 RETURN JUMPDEST DUP3 MLOAD DUP5 MSTORE DUP6 SWAP5 POP PUSH1 0x20 SWAP4 DUP5 ADD SWAP4 SWAP1 SWAP3 ADD SWAP2 PUSH1 0x1 ADD PUSH2 0xA6B JUMP JUMPDEST PUSH4 0x4E487B71 PUSH1 0xE0 SHL PUSH1 0x0 MSTORE PUSH1 0x32 PUSH1 0x4 MSTORE PUSH1 0x24 PUSH1 0x0 REVERT JUMPDEST PUSH1 0x40 MLOAD PUSH3 0x461BCD PUSH1 0xE5 SHL DUP2 MSTORE PUSH1 0x20 PUSH1 0x4 DUP3 ADD MSTORE PUSH1 0x2B PUSH1 0x24 DUP3 ADD MSTORE PUSH32 0x556E69737761705632526F757465723A20494E53554646494349454E545F4F55 PUSH1 0x44 DUP3 ADD MSTORE PUSH11 0x1514155517D05353D55395 PUSH1 0xAA SHL PUSH1 0x64 DUP3 ADD MSTORE PUSH1 0x84 SWAP1 REVERT JUMPDEST PUSH1 0x40 MLOAD PUSH3 0x461BCD PUSH1 0xE5 SHL DUP2 MSTORE PUSH1 0x20 PUSH1 0x4 DUP3 ADD MSTORE PUSH1 0x1E PUSH1 0x24 DUP3 ADD MSTORE PUSH32 0x556E697377617056324C6962726172793A20494E56414C49445F504154480000 PUSH1 0x44 DUP3 ADD MSTORE PUSH1 0x64 SWAP1 REVERT JUMPDEST PUSH1 0x4 CALLDATALOAD SWAP1 PUSH1 0x1 PUSH1 0x1 PUSH1 0xA0 SHL SUB DUP3 AND DUP3 SUB PUSH2 0x1D0 JUMPI JUMP JUMPDEST PUSH1 0x24 CALLDATALOAD SWAP1 PUSH1 0x1 PUSH1 0x1 PUSH1 0xA0 SHL SUB DUP3 AND DUP3 SUB PUSH2 0x1D0 JUMPI JUMP JUMPDEST ISZERO PUSH2 0xB79 JUMPI JUMP JUMPDEST PUSH1 0x40 MLOAD PUSH3 0x461BCD PUSH1 0xE5 SHL DUP2 MSTORE PUSH1 0x20 PUSH1 0x4 DUP3 ADD MSTORE PUSH1 0x18 PUSH1 0x24 DUP3 ADD MSTORE PUSH32 0x556E69737761705632526F757465723A20455850495245440000000000000000 PUSH1 0x44 DUP3 ADD MSTORE PUSH1 0x64 SWAP1 REVERT JUMPDEST SWAP1 PUSH1 0x1F DUP1 NOT SWAP2 ADD AND DUP2 ADD SWAP1 DUP2 LT PUSH8 0xFFFFFFFFFFFFFFFF DUP3 GT OR PUSH2 0xA22 JUMPI PUSH1 0x40 MSTORE JUMP JUMPDEST PUSH1 0x40 DUP1 MLOAD PUSH4 0x23B872DD PUSH1 0xE0 SHL PUSH1 0x20 DUP1 DUP4 ADD SWAP2 DUP3 MSTORE PUSH1 0x1 PUSH1 0x1 PUSH1 0xA0 SHL SUB SWAP6 DUP7 AND PUSH1 0x24 DUP5 ADD MSTORE SWAP6 SWAP1 SWAP5 AND PUSH1 0x44 DUP3 ADD MSTORE PUSH1 0x64 DUP1 DUP3 ADD SWAP7 SWAP1 SWAP7 MSTORE SWAP5 DUP6 MSTORE SWAP4 SWAP5 SWAP4 SWAP2 PUSH1 0x1F NOT SWAP2 PUSH2 0xC2C PUSH1 0x84 DUP9 PUSH2 0xBBE JUMP JUMPDEST DUP4 MLOAD PUSH8 0xFFFFFFFFFFFFFFFF SWAP8 SWAP1 SWAP4 SWAP2 PUSH1 0x1 PUSH1 0x1 PUSH1 0xA0 SHL SUB AND SWAP1 DUP5 DUP7 ADD DUP10 DUP2 GT DUP7 DUP3 LT OR PUSH2 0xA22 JUMPI DUP7 MSTORE DUP7 DUP6 MSTORE PUSH32 0x5361666545524332303A206C6F772D6C6576656C2063616C6C206661696C6564 DUP8 DUP7 ADD MSTORE PUSH1 0x0 DUP1 SWAP5 DUP2 SWAP3 MLOAD SWAP1 DUP3 DUP6 GAS CALL SWAP2 RETURNDATASIZE ISZERO PUSH2 0xD5C JUMPI RETURNDATASIZE SWAP9 DUP10 GT PUSH2 0xD48 JUMPI DUP7 SWAP8 SWAP9 PUSH2 0xCB2 DUP8 SWAP9 PUSH2 0xCC0 SWAP9 MLOAD SWAP4 PUSH1 0x1F DUP5 ADD AND ADD DUP4 PUSH2 0xBBE JUMP JUMPDEST DUP2 MSTORE DUP1 SWAP4 DUP9 RETURNDATASIZE SWAP3 ADD RETURNDATACOPY PUSH2 0xD87 JUMP JUMPDEST DUP1 MLOAD SWAP1 DUP4 DUP3 ISZERO SWAP3 DUP4 ISZERO PUSH2 0xD30 JUMPI JUMPDEST POP POP POP ISZERO PUSH2 0xCDA JUMPI POP POP JUMP JUMPDEST PUSH1 0x84 SWAP3 POP MLOAD SWAP1 PUSH3 0x461BCD PUSH1 0xE5 SHL DUP3 MSTORE PUSH1 0x4 DUP3 ADD MSTORE PUSH1 0x2A PUSH1 0x24 DUP3 ADD MSTORE PUSH32 0x5361666545524332303A204552433230206F7065726174696F6E20646964206E PUSH1 0x44 DUP3 ADD MSTORE PUSH10 0x1BDD081CDD58D8D95959 PUSH1 0xB2 SHL PUSH1 0x64 DUP3 ADD MSTORE REVERT JUMPDEST PUSH2 0xD40 SWAP4 POP DUP3 ADD DUP2 ADD SWAP2 ADD PUSH2 0xD6F JUMP JUMPDEST CODESIZE DUP4 DUP2 PUSH2 0xCCE JUMP JUMPDEST PUSH4 0x4E487B71 PUSH1 0xE0 SHL DUP5 MSTORE PUSH1 0x41 PUSH1 0x4 MSTORE PUSH1 0x24 DUP5 REVERT JUMPDEST POP SWAP2 POP PUSH2 0xCC0 SWAP4 SWAP5 SWAP6 SWAP7 POP PUSH1 0x60 SWAP2 PUSH2 0xD87 JUMP JUMPDEST SWAP1 DUP2 PUSH1 0x20 SWAP2 SUB SLT PUSH2 0x1D0 JUMPI MLOAD DUP1 ISZERO ISZERO DUP2 SUB PUSH2 0x1D0 JUMPI SWAP1 JUMP JUMPDEST SWAP2 SWAP3 SWAP1 ISZERO PUSH2 0xDE9 JUMPI POP DUP2 MLOAD ISZERO PUSH2 0xD9B JUMPI POP SWAP1 JUMP JUMPDEST EXTCODESIZE ISZERO PUSH2 0xDA4 JUMPI SWAP1 JUMP JUMPDEST PUSH1 0x40 MLOAD PUSH3 0x461BCD PUSH1 0xE5 SHL DUP2 MSTORE PUSH1 0x20 PUSH1 0x4 DUP3 ADD MSTORE PUSH1 0x1D PUSH1 0x24 DUP3 ADD MSTORE PUSH32 0x416464726573733A2063616C6C20746F206E6F6E2D636F6E7472616374000000 PUSH1 0x44 DUP3 ADD MSTORE PUSH1 0x64 SWAP1 REVERT JUMPDEST DUP3 MLOAD SWAP1 SWAP2 POP ISZERO PUSH2 0xDFC JUMPI POP DUP1 MLOAD SWAP1 PUSH1 0x20 ADD REVERT JUMPDEST PUSH1 0x40 MLOAD PUSH3 0x461BCD PUSH1 0xE5 SHL DUP2 MSTORE PUSH1 0x20 PUSH1 0x4 DUP3 ADD MSTORE SWAP1 DUP2 SWAP1 PUSH2 0xE20 SWAP1 PUSH1 0x24 DUP4 ADD SWAP1 PUSH2 0xE24 JUMP JUMPDEST SUB SWAP1 REVERT JUMPDEST SWAP2 SWAP1 DUP3 MLOAD SWAP3 DUP4 DUP3 MSTORE PUSH1 0x0 JUMPDEST DUP5 DUP2 LT PUSH2 0xE50 JUMPI POP POP DUP3 PUSH1 0x0 PUSH1 0x20 DUP1 SWAP5 SWAP6 DUP5 ADD ADD MSTORE PUSH1 0x1F DUP1 NOT SWAP2 ADD AND ADD ADD SWAP1 JUMP JUMPDEST PUSH1 0x20 DUP2 DUP4 ADD DUP2 ADD MLOAD DUP5 DUP4 ADD DUP3 ADD MSTORE ADD PUSH2 0xE2F JUMP JUMPDEST SWAP1 DUP2 PUSH1 0x20 SWAP2 SUB SLT PUSH2 0x1D0 JUMPI MLOAD PUSH1 0x1 PUSH1 0x1 PUSH1 0xA0 SHL SUB DUP2 AND DUP2 SUB PUSH2 0x1D0 JUMPI SWAP1 JUMP JUMPDEST ISZERO PUSH2 0xE8A JUMPI JUMP JUMPDEST PUSH1 0x40 MLOAD PUSH3 0x461BCD PUSH1 0xE5 SHL DUP2 MSTORE PUSH1 0x20 PUSH1 0x4 DUP3 ADD MSTORE PUSH1 0x26 PUSH1 0x24 DUP3 ADD MSTORE PUSH32 0x556E69737761705632526F757465723A20494E53554646494349454E545F415F PUSH1 0x44 DUP3 ADD MSTORE PUSH6 0x105353D55395 PUSH1 0xD2 SHL PUSH1 0x64 DUP3 ADD MSTORE PUSH1 0x84 SWAP1 REVERT JUMPDEST ISZERO PUSH2 0xEE5 JUMPI JUMP JUMPDEST PUSH1 0x40 MLOAD PUSH3 0x461BCD PUSH1 0xE5 SHL DUP2 MSTORE PUSH1 0x20 PUSH1 0x4 DUP3 ADD MSTORE PUSH1 0x26 PUSH1 0x24 DUP3 ADD MSTORE PUSH32 0x556E69737761705632526F757465723A20494E53554646494349454E545F425F PUSH1 0x44 DUP3 ADD MSTORE PUSH6 0x105353D55395 PUSH1 0xD2 SHL PUSH1 0x64 DUP3 ADD MSTORE PUSH1 0x84 SWAP1 REVERT JUMPDEST PUSH8 0xFFFFFFFFFFFFFFFF DUP2 GT PUSH2 0xA22 JUMPI PUSH1 0x5 SHL PUSH1 0x20 ADD SWAP1 JUMP JUMPDEST SWAP3 SWAP2 PUSH2 0xF5C DUP3 PUSH2 0xF39 JUMP JUMPDEST SWAP2 PUSH2 0xF6A PUSH1 0x40 MLOAD SWAP4 DUP5 PUSH2 0xBBE JUMP JUMPDEST DUP3 SWAP5 DUP2 DUP5 MSTORE PUSH1 0x20 DUP1 SWAP5 ADD SWAP2 PUSH1 0x5 SHL DUP2 ADD SWAP3 DUP4 GT PUSH2 0x1D0 JUMPI SWAP1 JUMPDEST DUP3 DUP3 LT PUSH2 0xF90 JUMPI POP POP POP POP JUMP JUMPDEST DUP2 CALLDATALOAD PUSH1 0x1 PUSH1 0x1 PUSH1 0xA0 SHL SUB DUP2 AND DUP2 SUB PUSH2 0x1D0 JUMPI DUP2 MSTORE SWAP1 DUP4 ADD SWAP1 DUP4 ADD PUSH2 0xF83 JUMP JUMPDEST DUP1 MLOAD ISZERO PUSH2 0xA92 JUMPI PUSH1 0x20 ADD SWAP1 JUMP JUMPDEST DUP1 MLOAD DUP3 LT ISZERO PUSH2 0xA92 JUMPI PUSH1 0x20 SWAP2 PUSH1 0x5 SHL ADD ADD SWAP1 JUMP JUMPDEST CALLDATALOAD PUSH1 0x1 PUSH1 0x1 PUSH1 0xA0 SHL SUB DUP2 AND DUP2 SUB PUSH2 0x1D0 JUMPI SWAP1 JUMP JUMPDEST PUSH1 0x0 NOT DUP2 EQ PUSH2 0x720 JUMPI PUSH1 0x1 ADD SWAP1 JUMP JUMPDEST SWAP1 SWAP2 PUSH1 0x1 PUSH1 0x1 PUSH1 0xA0 SHL SUB SWAP2 DUP3 DUP5 AND DUP4 DUP3 AND DUP1 DUP3 EQ PUSH2 0x1067 JUMPI LT ISZERO PUSH2 0x1062 JUMPI SWAP3 JUMPDEST SWAP2 DUP4 AND ISZERO PUSH2 0x101D JUMPI JUMP JUMPDEST PUSH1 0x40 MLOAD PUSH3 0x461BCD PUSH1 0xE5 SHL DUP2 MSTORE PUSH1 0x20 PUSH1 0x4 DUP3 ADD MSTORE PUSH1 0x1E PUSH1 0x24 DUP3 ADD MSTORE PUSH32 0x556E697377617056324C6962726172793A205A45524F5F414444524553530000 PUSH1 0x44 DUP3 ADD MSTORE PUSH1 0x64 SWAP1 REVERT JUMPDEST PUSH2 0x1013 JUMP JUMPDEST PUSH1 0x40 MLOAD PUSH3 0x461BCD PUSH1 0xE5 SHL DUP2 MSTORE PUSH1 0x20 PUSH1 0x4 DUP3 ADD MSTORE PUSH1 0x25 PUSH1 0x24 DUP3 ADD MSTORE PUSH32 0x556E697377617056324C6962726172793A204944454E544943414C5F41444452 PUSH1 0x44 DUP3 ADD MSTORE PUSH5 0x4553534553 PUSH1 0xD8 SHL PUSH1 0x64 DUP3 ADD MSTORE PUSH1 0x84 SWAP1 REVERT JUMPDEST SWAP2 PUSH2 0x10C4 SWAP2 PUSH2 0xFF3 JUMP JUMPDEST PUSH1 0x40 SWAP3 SWAP2 SWAP3 MLOAD SWAP3 PUSH1 0x20 DUP5 ADD SWAP1 PUSH12 0xFFFFFFFFFFFFFFFFFFFFFFFF NOT SWAP3 DUP4 DUP1 SWAP3 PUSH1 0x60 SHL AND DUP4 MSTORE PUSH1 0x60 SHL AND PUSH1 0x34 DUP6 ADD MSTORE PUSH1 0x28 DUP5 MSTORE PUSH1 0x60 DUP5 ADD SWAP4 PUSH8 0xFFFFFFFFFFFFFFFF SWAP3 DUP2 DUP7 LT DUP5 DUP8 GT OR PUSH2 0xA22 JUMPI PUSH1 0xE0 SWAP3 DUP7 PUSH1 0x40 MSTORE DUP3 MLOAD SWAP1 KECCAK256 SWAP1 PUSH1 0x80 DUP4 ADD SWAP6 PUSH1 0xFF PUSH1 0xF8 SHL DUP8 MSTORE PUSH1 0x60 SHL AND PUSH1 0x81 DUP4 ADD MSTORE PUSH1 0x95 DUP3 ADD MSTORE PUSH32 0x96E8AC4277198FF8B6F785478AA9A39F403CB768DD02CBEE326C3E7DA348845F PUSH1 0xB5 DUP3 ADD MSTORE PUSH1 0x55 DUP6 MSTORE ADD SWAP1 DUP4 DUP3 LT SWAP1 DUP3 GT OR PUSH2 0xA22 JUMPI PUSH1 0x40 MSTORE SWAP1 MLOAD SWAP1 KECCAK256 PUSH1 0x1 PUSH1 0x1 PUSH1 0xA0 SHL SUB AND SWAP1 JUMP JUMPDEST MLOAD SWAP1 PUSH1 0x1 PUSH1 0x1 PUSH1 0x70 SHL SUB DUP3 AND DUP3 SUB PUSH2 0x1D0 JUMPI JUMP JUMPDEST SWAP1 DUP1 PUSH1 0x60 PUSH1 0x4 SWAP4 PUSH2 0x11B9 PUSH2 0x11A7 DUP8 DUP6 PUSH2 0xFF3 JUMP JUMPDEST POP SWAP7 PUSH1 0x1 PUSH1 0x1 PUSH1 0xA0 SHL SUB SWAP5 DUP6 SWAP4 PUSH2 0x10BA JUMP JUMPDEST AND PUSH1 0x40 MLOAD SWAP5 DUP6 DUP1 SWAP3 PUSH4 0x240BC6B PUSH1 0xE2 SHL DUP3 MSTORE GAS STATICCALL SWAP3 DUP4 ISZERO PUSH2 0x1DC JUMPI PUSH1 0x0 SWAP1 DUP2 SWAP5 PUSH2 0x1201 JUMPI JUMPDEST POP DUP2 SWAP1 PUSH1 0x1 PUSH1 0x1 PUSH1 0x70 SHL SUB DUP1 SWAP2 AND SWAP5 AND SWAP5 AND SWAP2 AND EQ PUSH1 0x0 EQ PUSH2 0x11FD JUMPI SWAP2 JUMP JUMPDEST SWAP1 SWAP2 JUMP JUMPDEST SWAP4 POP PUSH1 0x60 DUP5 RETURNDATASIZE DUP3 GT PUSH2 0x1254 JUMPI JUMPDEST DUP2 PUSH2 0x121B PUSH1 0x60 SWAP4 DUP4 PUSH2 0xBBE JUMP JUMPDEST DUP2 ADD SUB SLT PUSH2 0x1251 JUMPI PUSH2 0x122C DUP5 PUSH2 0x117F JUMP JUMPDEST SWAP1 PUSH1 0x40 PUSH2 0x123B PUSH1 0x20 DUP8 ADD PUSH2 0x117F JUMP JUMPDEST SWAP6 ADD MLOAD PUSH4 0xFFFFFFFF DUP2 AND SUB PUSH2 0x1251 JUMPI POP DUP2 PUSH2 0x11DE JUMP JUMPDEST DUP1 REVERT JUMPDEST RETURNDATASIZE SWAP2 POP PUSH2 0x120E JUMP JUMPDEST ISZERO PUSH2 0x1263 JUMPI JUMP JUMPDEST PUSH1 0x40 MLOAD PUSH3 0x461BCD PUSH1 0xE5 SHL DUP2 MSTORE PUSH1 0x20 PUSH1 0x4 DUP3 ADD MSTORE PUSH1 0x28 PUSH1 0x24 DUP3 ADD MSTORE PUSH32 0x556E697377617056324C6962726172793A20494E53554646494349454E545F4C PUSH1 0x44 DUP3 ADD MSTORE PUSH8 0x4951554944495459 PUSH1 0xC0 SHL PUSH1 0x64 DUP3 ADD MSTORE PUSH1 0x84 SWAP1 REVERT JUMPDEST DUP2 DUP2 MUL SWAP3 SWAP2 DUP2 ISZERO SWAP2 DUP5 DIV EQ OR ISZERO PUSH2 0x720 JUMPI JUMP JUMPDEST DUP2 ISZERO PUSH2 0x12D6 JUMPI DIV SWAP1 JUMP JUMPDEST PUSH4 0x4E487B71 PUSH1 0xE0 SHL PUSH1 0x0 MSTORE PUSH1 0x12 PUSH1 0x4 MSTORE PUSH1 0x24 PUSH1 0x0 REVERT JUMPDEST DUP1 ISZERO PUSH2 0x1322 JUMPI PUSH2 0x1316 SWAP3 PUSH2 0x1311 SWAP2 DUP4 ISZERO ISZERO DUP1 PUSH2 0x1319 JUMPI JUMPDEST PUSH2 0x130C SWAP1 PUSH2 0x125C JUMP JUMPDEST PUSH2 0x12B9 JUMP JUMPDEST PUSH2 0x12CC JUMP JUMPDEST SWAP1 JUMP JUMPDEST POP DUP2 ISZERO ISZERO PUSH2 0x1303 JUMP JUMPDEST PUSH1 0x40 MLOAD PUSH3 0x461BCD PUSH1 0xE5 SHL DUP2 MSTORE PUSH1 0x20 PUSH1 0x4 DUP3 ADD MSTORE PUSH1 0x25 PUSH1 0x24 DUP3 ADD MSTORE PUSH32 0x556E697377617056324C6962726172793A20494E53554646494349454E545F41 PUSH1 0x44 DUP3 ADD MSTORE PUSH5 0x1353D55395 PUSH1 0xDA SHL PUSH1 0x64 DUP3 ADD MSTORE PUSH1 0x84 SWAP1 REVERT INVALID LOG2 PUSH5 0x6970667358 0x22 SLT KECCAK256 0x26 SAR SWAP11 PUSH15 0xDECD50069E6689EA4B70E72B7E3DED PUSH20 0x1597A9CA3918EA30EF75BD5C64736F6C63430008 SGT STOP CALLER "},"methodIdentifiers":{"WETH()":"ad5c4648","addLiquidity(address,address,uint256,uint256,uint256,uint256,address,uint256)":"e8e33700","factory()":"c45a0155","removeLiquidity(address,address,uint256,uint256,uint256,address,uint256)":"baa2abde","swapExactTokensForTokens(uint256,uint256,address[],address,uint256)":"38ed1739"}}}}}