{
  "_format": "hh-sol-artifact-1",
  "contractName": "WETH",
  "sourceName": "contracts/WETH.sol",
  "abi": [
    {
      "inputs": [],
      "stateMutability": "nonpayable",
      "type": "constructor"
    },
    {
      "anonymous": false,
      "inputs": [
        {
          "indexed": true,
          "internalType": "address",
          "name": "owner",
          "type": "address"
        },
        {
          "indexed": true,
          "internalType": "address",
          "name": "spender",
          "type": "address"
        },
        {
          "indexed": false,
          "internalType": "uint256",
          "name": "value",
          "type": "uint256"
        }
      ],
      "name": "Approval",
      "type": "event"
    },
    {
      "anonymous": false,
      "inputs": [
        {
          "indexed": true,
          "internalType": "address",
          "name": "account",
          "type": "address"
        },
        {
          "indexed": false,
          "internalType": "uint256",
          "name": "amount",
          "type": "uint256"
        }
      ],
      "name": "Deposit",
      "type": "event"
    },
    {
      "anonymous": false,
      "inputs": [
        {
          "indexed": true,
          "internalType": "address",
          "name": "from",
          "type": "address"
        },
        {
          "indexed": true,
          "internalType": "address",
          "name": "to",
          "type": "address"
        },
        {
          "indexed": false,
          "internalType": "uint256",
          "name": "value",
          "type": "uint256"
        }
      ],
      "name": "Transfer",
      "type": "event"
    },
    {
      "anonymous": false,
      "inputs": [
        {
          "indexed": true,
          "internalType": "address",
          "name": "account",
          "type": "address"
        },
        {
          "indexed": false,
          "internalType": "uint256",
          "name": "amount",
          "type": "uint256"
        }
      ],
      "name": "Withdrawal",
      "type": "event"
    },
    {
      "inputs": [
        {
          "internalType": "address",
          "name": "owner",
          "type": "address"
        },
        {
          "internalType": "address",
          "name": "spender",
          "type": "address"
        }
      ],
      "name": "allowance",
      "outputs": [
        {
          "internalType": "uint256",
          "name": "",
          "type": "uint256"
        }
      ],
      "stateMutability": "view",
      "type": "function"
    },
    {
      "inputs": [
        {
          "internalType": "address",
          "name": "spender",
          "type": "address"
        },
        {
          "internalType": "uint256",
          "name": "amount",
          "type": "uint256"
        }
      ],
      "name": "approve",
      "outputs": [
        {
          "internalType": "bool",
          "name": "",
          "type": "bool"
        }
      ],
      "stateMutability": "nonpayable",
      "type": "function"
    },
    {
      "inputs": [
        {
          "internalType": "address",
          "name": "account",
          "type": "address"
        }
      ],
      "name": "balanceOf",
      "outputs": [
        {
          "internalType": "uint256",
          "name": "",
          "type": "uint256"
        }
      ],
      "stateMutability": "view",
      "type": "function"
    },
    {
      "inputs": [],
      "name": "decimals",
      "outputs": [
        {
          "internalType": "uint8",
          "name": "",
          "type": "uint8"
        }
      ],
      "stateMutability": "view",
      "type": "function"
    },
    {
      "inputs": [
        {
          "internalType": "address",
          "name": "spender",
          "type": "address"
        },
        {
          "internalType": "uint256",
          "name": "subtractedValue",
          "type": "uint256"
        }
      ],
      "name": "decreaseAllowance",
      "outputs": [
        {
          "internalType": "bool",
          "name": "",
          "type": "bool"
        }
      ],
      "stateMutability": "nonpayable",
      "type": "function"
    },
    {
      "inputs": [],
      "name": "deposit",
      "outputs": [],
      "stateMutability": "payable",
      "type": "function"
    },
    {
      "inputs": [
        {
          "internalType": "address",
          "name": "spender",
          "type": "address"
        },
        {
          "internalType": "uint256",
          "name": "addedValue",
          "type": "uint256"
        }
      ],
      "name": "increaseAllowance",
      "outputs": [
        {
          "internalType": "bool",
          "name": "",
          "type": "bool"
        }
      ],
      "stateMutability": "nonpayable",
      "type": "function"
    },
    {
      "inputs": [],
      "name": "name",
      "outputs": [
        {
          "internalType": "string",
          "name": "",
          "type": "string"
        }
      ],
      "stateMutability": "view",
      "type": "function"
    },
    {
      "inputs": [],
      "name": "symbol",
      "outputs": [
        {
          "internalType": "string",
          "name": "",
          "type": "string"
        }
      ],
      "stateMutability": "view",
      "type": "function"
    },
    {
      "inputs": [],
      "name": "totalSupply",
      "outputs": [
        {
          "internalType": "uint256",
          "name": "",
          "type": "uint256"
        }
      ],
      "stateMutability": "view",
      "type": "function"
    },
    {
      "inputs": [
        {
          "internalType": "address",
          "name": "to",
          "type": "address"
        },
        {
          "internalType": "uint256",
          "name": "amount",
          "type": "uint256"
        }
      ],
      "name": "transfer",
      "outputs": [
        {
          "internalType": "bool",
          "name": "",
          "type": "bool"
        }
      ],
      "stateMutability": "nonpayable",
      "type": "function"
    },
    {
      "inputs": [
        {
          "internalType": "address",
          "name": "from",
          "type": "address"
        },
        {
          "internalType": "address",
          "name": "to",
          "type": "address"
        },
        {
          "internalType": "uint256",
          "name": "amount",
          "type": "uint256"
        }
      ],
      "name": "transferFrom",
      "outputs": [
        {
          "internalType": "bool",
          "name": "",
          "type": "bool"
        }
      ],
      "stateMutability": "nonpayable",
      "type": "function"
    },
    {
      "inputs": [
        {
          "internalType": "uint256",
          "name": "amount",
          "type": "uint256"
        }
      ],
      "name": "withdraw",
      "outputs": [],
      "stateMutability": "nonpayable",
      "type": "function"
    },
    {
      "stateMutability": "payable",
      "type": "receive"
    }
  ],
  "bytecode": "0x6080346200033d576040906001600160401b03908083018281118282101762000327578352600d81526020916c2bb930b83832b21022ba3432b960991b838301528351928484018481108382111762000327578552600493848152630ae8aa8960e31b8282015283519083821162000312576003928354926001968785811c9516801562000307575b83861014620002f2578190601f958681116200029c575b508390868311600114620002355760009262000229575b505060001982871b1c191690871b1784555b8151948511620002145786548681811c9116801562000209575b82821014620001f457838111620001a9575b50809285116001146200013b57509383949184926000956200012f575b50501b92600019911b1c19161790555b51610b7a9081620003438239f35b01519350388062000111565b92919084601f1981168860005285600020956000905b898383106200018e575050501062000173575b50505050811b01905562000121565b01519060f884600019921b161c191690553880808062000164565b85870151895590970196948501948893509081019062000151565b87600052816000208480880160051c820192848910620001ea575b0160051c019087905b828110620001dd575050620000f4565b60008155018790620001cd565b92508192620001c4565b602288634e487b7160e01b6000525260246000fd5b90607f1690620000e2565b604187634e487b7160e01b6000525260246000fd5b015190503880620000b6565b90899350601f1983169188600052856000209260005b878282106200028557505084116200026c575b505050811b018455620000c8565b015160001983891b60f8161c191690553880806200025e565b8385015186558d979095019493840193016200024b565b90915086600052836000208680850160051c820192868610620002e8575b918b91869594930160051c01915b828110620002d85750506200009f565b600081558594508b9101620002c8565b92508192620002ba565b602289634e487b7160e01b6000525260246000fd5b94607f169462000088565b604186634e487b7160e01b6000525260246000fd5b634e487b7160e01b600052604160045260246000fd5b600080fdfe608060408181526004918236101561002a575b505050361561002057600080fd5b610028610a7a565b005b600092833560e01c91826306fdde031461069557508163095ea7b31461066b57816318160ddd1461064c57816323b872dd146105825781632e1a7d4d146103c5578163313ce567146103a9578163395093511461035957816370a082311461032257816395d89b4114610203578163a457c2d71461015e57508063a9059cbb1461012e578063d0e30db0146101145763dd62ed3e146100c95780610012565b34610110578060031936011261011057806020926100e56107b6565b6100ed6107d1565b6001600160a01b0391821683526001865283832091168252845220549051908152f35b5080fd5b828060031936011261012b57610128610a7a565b80f35b80fd5b503461011057806003193601126101105760209061015761014d6107b6565b602435903361080a565b5160018152f35b9050823461012b578260031936011261012b576101796107b6565b918360243592338152600160205281812060018060a01b03861682526020522054908282106101b2576020856101578585038733610978565b608490602086519162461bcd60e51b8352820152602560248201527f45524332303a2064656372656173656420616c6c6f77616e63652062656c6f77604482015264207a65726f60d81b6064820152fd5b838334610110578160031936011261011057805190828454600181811c90808316928315610318575b6020938484108114610305578388529081156102e95750600114610294575b505050829003601f01601f191682019267ffffffffffffffff841183851017610281575082918261027d92528261076d565b0390f35b634e487b7160e01b815260418552602490fd5b8787529192508591837f8a35acfbc15ff81a39ae7d344fd709f28e8600b4aa8c65c6b64bfe7fe36bd19b5b8385106102d5575050505083010185808061024b565b8054888601830152930192849082016102bf565b60ff1916878501525050151560051b840101905085808061024b565b634e487b7160e01b895260228a52602489fd5b91607f169161022c565b5050346101105760203660031901126101105760209181906001600160a01b0361034a6107b6565b16815280845220549051908152f35b5050346101105780600319360112610110576101576020926103a261037c6107b6565b338352600186528483206001600160a01b038216845286529184902054602435906107e7565b9033610978565b5050346101105781600319360112610110576020905160128152f35b90503461057e5760208060031936011261057a578135913385528482528284862054106105395733156104ee5733855284825283852054908382106104a057508290338652858352038385205581600254036002558383518381527fddf252ad1be2c89b69c2b068fc378daa952ba7f163c4a11628f55a4df523b3ef833392a38380838015610496575b8280929181923390f11561048a577f7fcf532c15f0a6db0bd6d0e038bea71d30d808c7d98cb3bf7268a95bf5081b659192519283523392a280f35b505051903d90823e3d90fd5b6108fc915061044f565b845162461bcd60e51b8152908101839052602260248201527f45524332303a206275726e20616d6f756e7420657863656564732062616c616e604482015261636560f01b6064820152608490fd5b60849184519162461bcd60e51b8352820152602160248201527f45524332303a206275726e2066726f6d20746865207a65726f206164647265736044820152607360f81b6064820152fd5b60649184519162461bcd60e51b8352820152601a60248201527f574554483a20696e73756666696369656e742062616c616e63650000000000006044820152fd5b8380fd5b8280fd5b839150346101105760603660031901126101105761059e6107b6565b6105a66107d1565b91846044359460018060a01b0384168152600160205281812033825260205220549060001982036105e0575b60208661015787878761080a565b84821061060957509183916105fe6020969561015795033383610978565b9193948193506105d2565b606490602087519162461bcd60e51b8352820152601d60248201527f45524332303a20696e73756666696369656e7420616c6c6f77616e63650000006044820152fd5b5050346101105781600319360112610110576020906002549051908152f35b50503461011057806003193601126101105760209061015761068b6107b6565b6024359033610978565b8490843461057e578260031936011261057e5782600354600181811c90808316928315610763575b6020938484108114610305578388529081156102e9575060011461070d57505050829003601f01601f191682019267ffffffffffffffff841183851017610281575082918261027d92528261076d565b600387529192508591837fc2575a0e9e593c00f959f8c92f12db2869c3395a3b0502d05e2516446f71f85b5b83851061074f575050505083010185808061024b565b805488860183015293019284908201610739565b91607f16916106bd565b6020808252825181830181905290939260005b8281106107a257505060409293506000838284010152601f8019910116010190565b818101860151848201604001528501610780565b600435906001600160a01b03821682036107cc57565b600080fd5b602435906001600160a01b03821682036107cc57565b919082018092116107f457565b634e487b7160e01b600052601160045260246000fd5b6001600160a01b0390811691821561092557169182156108d45760008281528060205260408120549180831061088057604082827fddf252ad1be2c89b69c2b068fc378daa952ba7f163c4a11628f55a4df523b3ef958760209652828652038282205586815220818154019055604051908152a3565b60405162461bcd60e51b815260206004820152602660248201527f45524332303a207472616e7366657220616d6f756e7420657863656564732062604482015265616c616e636560d01b6064820152608490fd5b60405162461bcd60e51b815260206004820152602360248201527f45524332303a207472616e7366657220746f20746865207a65726f206164647260448201526265737360e81b6064820152608490fd5b60405162461bcd60e51b815260206004820152602560248201527f45524332303a207472616e736665722066726f6d20746865207a65726f206164604482015264647265737360d81b6064820152608490fd5b6001600160a01b03908116918215610a2957169182156109d95760207f8c5be1e5ebec7d5bd14f71427d1e84f3dd0314c0f7b2291e5b200ac8c7c3b925918360005260018252604060002085600052825280604060002055604051908152a3565b60405162461bcd60e51b815260206004820152602260248201527f45524332303a20617070726f766520746f20746865207a65726f206164647265604482015261737360f01b6064820152608490fd5b60405162461bcd60e51b8152602060048201526024808201527f45524332303a20617070726f76652066726f6d20746865207a65726f206164646044820152637265737360e01b6064820152608490fd5b3315610aff57610a8c346002546107e7565b600255336000526000602052604060002034815401905560405134815260007fddf252ad1be2c89b69c2b068fc378daa952ba7f163c4a11628f55a4df523b3ef60203393a36040513481527fe1fffcc4923d04b559f4d29a8bfc6cda04eb5b0d3c460751c2402c5c5cc9109c60203392a2565b60405162461bcd60e51b815260206004820152601f60248201527f45524332303a206d696e7420746f20746865207a65726f2061646472657373006044820152606490fdfea26469706673582212202e104088cd216ab0ebf0d6a6fdbd12d49594e509339ae683e72a39c5e64e723a64736f6c63430008130033",
  "linkReferences": {},
  "deployedLinkReferences": {}
}