{
  "_format": "hh-sol-artifact-1",
  "contractName": "TokenSwap",
  "sourceName": "contracts/TokenSwap.sol",
  "abi": [
    {
      "inputs": [
        {
          "internalType": "address",
          "name": "_token1",
          "type": "address"
        },
        {
          "internalType": "address",
          "name": "_token2",
          "type": "address"
        },
        {
          "internalType": "uint256",
          "name": "_rate",
          "type": "uint256"
        }
      ],
      "stateMutability": "nonpayable",
      "type": "constructor"
    },
    {
      "anonymous": false,
      "inputs": [
        {
          "indexed": true,
          "internalType": "address",
          "name": "user",
          "type": "address"
        },
        {
          "indexed": false,
          "internalType": "uint256",
          "name": "token1Amount",
          "type": "uint256"
        },
        {
          "indexed": false,
          "internalType": "uint256",
          "name": "token2Amount",
          "type": "uint256"
        }
      ],
      "name": "Swap",
      "type": "event"
    },
    {
      "inputs": [],
      "name": "getSwapRate",
      "outputs": [
        {
          "internalType": "uint256",
          "name": "",
          "type": "uint256"
        }
      ],
      "stateMutability": "view",
      "type": "function"
    },
    {
      "inputs": [],
      "name": "rate",
      "outputs": [
        {
          "internalType": "uint256",
          "name": "",
          "type": "uint256"
        }
      ],
      "stateMutability": "view",
      "type": "function"
    },
    {
      "inputs": [
        {
          "internalType": "uint256",
          "name": "amount",
          "type": "uint256"
        }
      ],
      "name": "swap",
      "outputs": [],
      "stateMutability": "nonpayable",
      "type": "function"
    },
    {
      "inputs": [],
      "name": "token1",
      "outputs": [
        {
          "internalType": "contract IERC20",
          "name": "",
          "type": "address"
        }
      ],
      "stateMutability": "view",
      "type": "function"
    },
    {
      "inputs": [],
      "name": "token2",
      "outputs": [
        {
          "internalType": "contract IERC20",
          "name": "",
          "type": "address"
        }
      ],
      "stateMutability": "view",
      "type": "function"
    }
  ],
  "bytecode": "0x60803461013157601f61054e38819003918201601f19168301916001600160401b0383118484101761013657808492606094604052833981010312610131576100478161014c565b9060406100566020830161014c565b9101516001600055916001600160a01b039081169182151580610126575b156100e15783156100ad5760018060a01b031992836001541617600155169060025416176002556003556040516103ed90816101618239f35b60405162461bcd60e51b815260206004820152600c60248201526b496e76616c6964207261746560a01b6044820152606490fd5b60405162461bcd60e51b815260206004820152601760248201527f496e76616c696420746f6b656e206164647265737365730000000000000000006044820152606490fd5b508181161515610074565b600080fd5b634e487b7160e01b600052604160045260246000fd5b51906001600160a01b03821682036101315756fe608060408181526004918236101561001657600080fd5b600092833560e01c918263068eb48f146103465750816325be124e1461031d5781632c4e722e146102fe57816394b918de14610087575063d21220a71461005c57600080fd5b3461008357816003193601126100835760015490516001600160a01b039091168152602090f35b5080fd5b8391503461008357602092836003193601126102fa5781359160028454146102b957600284558215610278576003549081840291848304036102655760015483516323b872dd60e01b81523383820152306024820152604481018690526001600160a01b03918890829060649082908b9087165af190811561025b57879161023e575b50156101fb5786869160025416604486518094819363a9059cbb60e01b835233888401528860248401525af19081156101f15786916101c4575b501561018157507f77f92a1b6a1a11de8ca49515ad4c1fad45632dd3442167d74b90b304a3c7a75892939482519485528401523392a26001815580f35b825162461bcd60e51b8152908101869052601960248201527f5472616e73666572206f6620746f6b656e32206661696c6564000000000000006044820152606490fd5b6101e49150873d89116101ea575b6101dc8183610362565b81019061039a565b87610144565b503d6101d2565b84513d88823e3d90fd5b835162461bcd60e51b8152808301889052601960248201527f5472616e73666572206f6620746f6b656e31206661696c6564000000000000006044820152606490fd5b6102559150883d8a116101ea576101dc8183610362565b8861010a565b85513d89823e3d90fd5b634e487b7160e01b855260119052602484fd5b84606492519162461bcd60e51b8352820152601d60248201527f416d6f756e74206d7573742062652067726561746572207468616e20300000006044820152fd5b84606492519162461bcd60e51b8352820152601f60248201527f5265656e7472616e637947756172643a207265656e7472616e742063616c6c006044820152fd5b8280fd5b5050346100835781600319360112610083576020906003549051908152f35b50503461008357816003193601126100835760025490516001600160a01b039091168152602090f35b8490346100835781600319360112610083576020906003548152f35b90601f8019910116810190811067ffffffffffffffff82111761038457604052565b634e487b7160e01b600052604160045260246000fd5b908160209103126103b2575180151581036103b25790565b600080fdfea2646970667358221220830bb6e1fddaeb47cf41c0385b57f748d0e77adc9a06bcf6ef6a0cb06fca696664736f6c63430008130033",
  "linkReferences": {},
  "deployedLinkReferences": {}
}