{
  "_format": "hh-sol-artifact-1",
  "contractName": "UniswapV2Pair",
  "sourceName": "contracts/UniswapV2Pair.sol",
  "abi": [
    {
      "inputs": [],
      "stateMutability": "nonpayable",
      "type": "constructor"
    },
    {
      "anonymous": false,
      "inputs": [
        {
          "indexed": true,
          "internalType": "address",
          "name": "owner",
          "type": "address"
        },
        {
          "indexed": true,
          "internalType": "address",
          "name": "spender",
          "type": "address"
        },
        {
          "indexed": false,
          "internalType": "uint256",
          "name": "value",
          "type": "uint256"
        }
      ],
      "name": "Approval",
      "type": "event"
    },
    {
      "anonymous": false,
      "inputs": [
        {
          "indexed": true,
          "internalType": "address",
          "name": "sender",
          "type": "address"
        },
        {
          "indexed": false,
          "internalType": "uint256",
          "name": "amount0",
          "type": "uint256"
        },
        {
          "indexed": false,
          "internalType": "uint256",
          "name": "amount1",
          "type": "uint256"
        },
        {
          "indexed": true,
          "internalType": "address",
          "name": "to",
          "type": "address"
        }
      ],
      "name": "Burn",
      "type": "event"
    },
    {
      "anonymous": false,
      "inputs": [
        {
          "indexed": true,
          "internalType": "address",
          "name": "sender",
          "type": "address"
        },
        {
          "indexed": false,
          "internalType": "uint256",
          "name": "amount0",
          "type": "uint256"
        },
        {
          "indexed": false,
          "internalType": "uint256",
          "name": "amount1",
          "type": "uint256"
        }
      ],
      "name": "Mint",
      "type": "event"
    },
    {
      "anonymous": false,
      "inputs": [
        {
          "indexed": true,
          "internalType": "address",
          "name": "sender",
          "type": "address"
        },
        {
          "indexed": false,
          "internalType": "uint256",
          "name": "amount0In",
          "type": "uint256"
        },
        {
          "indexed": false,
          "internalType": "uint256",
          "name": "amount1In",
          "type": "uint256"
        },
        {
          "indexed": false,
          "internalType": "uint256",
          "name": "amount0Out",
          "type": "uint256"
        },
        {
          "indexed": false,
          "internalType": "uint256",
          "name": "amount1Out",
          "type": "uint256"
        },
        {
          "indexed": true,
          "internalType": "address",
          "name": "to",
          "type": "address"
        }
      ],
      "name": "Swap",
      "type": "event"
    },
    {
      "anonymous": false,
      "inputs": [
        {
          "indexed": false,
          "internalType": "uint112",
          "name": "reserve0",
          "type": "uint112"
        },
        {
          "indexed": false,
          "internalType": "uint112",
          "name": "reserve1",
          "type": "uint112"
        }
      ],
      "name": "Sync",
      "type": "event"
    },
    {
      "anonymous": false,
      "inputs": [
        {
          "indexed": true,
          "internalType": "address",
          "name": "from",
          "type": "address"
        },
        {
          "indexed": true,
          "internalType": "address",
          "name": "to",
          "type": "address"
        },
        {
          "indexed": false,
          "internalType": "uint256",
          "name": "value",
          "type": "uint256"
        }
      ],
      "name": "Transfer",
      "type": "event"
    },
    {
      "inputs": [],
      "name": "MINIMUM_LIQUIDITY",
      "outputs": [
        {
          "internalType": "uint256",
          "name": "",
          "type": "uint256"
        }
      ],
      "stateMutability": "view",
      "type": "function"
    },
    {
      "inputs": [
        {
          "internalType": "address",
          "name": "owner",
          "type": "address"
        },
        {
          "internalType": "address",
          "name": "spender",
          "type": "address"
        }
      ],
      "name": "allowance",
      "outputs": [
        {
          "internalType": "uint256",
          "name": "",
          "type": "uint256"
        }
      ],
      "stateMutability": "view",
      "type": "function"
    },
    {
      "inputs": [
        {
          "internalType": "address",
          "name": "spender",
          "type": "address"
        },
        {
          "internalType": "uint256",
          "name": "value",
          "type": "uint256"
        }
      ],
      "name": "approve",
      "outputs": [
        {
          "internalType": "bool",
          "name": "",
          "type": "bool"
        }
      ],
      "stateMutability": "nonpayable",
      "type": "function"
    },
    {
      "inputs": [
        {
          "internalType": "address",
          "name": "owner",
          "type": "address"
        }
      ],
      "name": "balanceOf",
      "outputs": [
        {
          "internalType": "uint256",
          "name": "",
          "type": "uint256"
        }
      ],
      "stateMutability": "view",
      "type": "function"
    },
    {
      "inputs": [
        {
          "internalType": "address",
          "name": "to",
          "type": "address"
        }
      ],
      "name": "burn",
      "outputs": [
        {
          "internalType": "uint256",
          "name": "amount0",
          "type": "uint256"
        },
        {
          "internalType": "uint256",
          "name": "amount1",
          "type": "uint256"
        }
      ],
      "stateMutability": "nonpayable",
      "type": "function"
    },
    {
      "inputs": [],
      "name": "decimals",
      "outputs": [
        {
          "internalType": "uint8",
          "name": "",
          "type": "uint8"
        }
      ],
      "stateMutability": "view",
      "type": "function"
    },
    {
      "inputs": [
        {
          "internalType": "address",
          "name": "spender",
          "type": "address"
        },
        {
          "internalType": "uint256",
          "name": "subtractedValue",
          "type": "uint256"
        }
      ],
      "name": "decreaseAllowance",
      "outputs": [
        {
          "internalType": "bool",
          "name": "",
          "type": "bool"
        }
      ],
      "stateMutability": "nonpayable",
      "type": "function"
    },
    {
      "inputs": [],
      "name": "factory",
      "outputs": [
        {
          "internalType": "address",
          "name": "",
          "type": "address"
        }
      ],
      "stateMutability": "view",
      "type": "function"
    },
    {
      "inputs": [],
      "name": "getReserves",
      "outputs": [
        {
          "internalType": "uint112",
          "name": "_reserve0",
          "type": "uint112"
        },
        {
          "internalType": "uint112",
          "name": "_reserve1",
          "type": "uint112"
        },
        {
          "internalType": "uint32",
          "name": "_blockTimestampLast",
          "type": "uint32"
        }
      ],
      "stateMutability": "view",
      "type": "function"
    },
    {
      "inputs": [
        {
          "internalType": "address",
          "name": "spender",
          "type": "address"
        },
        {
          "internalType": "uint256",
          "name": "addedValue",
          "type": "uint256"
        }
      ],
      "name": "increaseAllowance",
      "outputs": [
        {
          "internalType": "bool",
          "name": "",
          "type": "bool"
        }
      ],
      "stateMutability": "nonpayable",
      "type": "function"
    },
    {
      "inputs": [
        {
          "internalType": "address",
          "name": "_token0",
          "type": "address"
        },
        {
          "internalType": "address",
          "name": "_token1",
          "type": "address"
        }
      ],
      "name": "initialize",
      "outputs": [],
      "stateMutability": "nonpayable",
      "type": "function"
    },
    {
      "inputs": [],
      "name": "kLast",
      "outputs": [
        {
          "internalType": "uint256",
          "name": "",
          "type": "uint256"
        }
      ],
      "stateMutability": "view",
      "type": "function"
    },
    {
      "inputs": [
        {
          "internalType": "address",
          "name": "to",
          "type": "address"
        }
      ],
      "name": "mint",
      "outputs": [
        {
          "internalType": "uint256",
          "name": "liquidity",
          "type": "uint256"
        }
      ],
      "stateMutability": "nonpayable",
      "type": "function"
    },
    {
      "inputs": [],
      "name": "name",
      "outputs": [
        {
          "internalType": "string",
          "name": "",
          "type": "string"
        }
      ],
      "stateMutability": "view",
      "type": "function"
    },
    {
      "inputs": [],
      "name": "price0CumulativeLast",
      "outputs": [
        {
          "internalType": "uint256",
          "name": "",
          "type": "uint256"
        }
      ],
      "stateMutability": "view",
      "type": "function"
    },
    {
      "inputs": [],
      "name": "price1CumulativeLast",
      "outputs": [
        {
          "internalType": "uint256",
          "name": "",
          "type": "uint256"
        }
      ],
      "stateMutability": "view",
      "type": "function"
    },
    {
      "inputs": [
        {
          "internalType": "address",
          "name": "to",
          "type": "address"
        }
      ],
      "name": "skim",
      "outputs": [],
      "stateMutability": "nonpayable",
      "type": "function"
    },
    {
      "inputs": [
        {
          "internalType": "uint256",
          "name": "amount0Out",
          "type": "uint256"
        },
        {
          "internalType": "uint256",
          "name": "amount1Out",
          "type": "uint256"
        },
        {
          "internalType": "address",
          "name": "to",
          "type": "address"
        },
        {
          "internalType": "bytes",
          "name": "data",
          "type": "bytes"
        }
      ],
      "name": "swap",
      "outputs": [],
      "stateMutability": "nonpayable",
      "type": "function"
    },
    {
      "inputs": [],
      "name": "symbol",
      "outputs": [
        {
          "internalType": "string",
          "name": "",
          "type": "string"
        }
      ],
      "stateMutability": "view",
      "type": "function"
    },
    {
      "inputs": [],
      "name": "sync",
      "outputs": [],
      "stateMutability": "nonpayable",
      "type": "function"
    },
    {
      "inputs": [],
      "name": "token0",
      "outputs": [
        {
          "internalType": "address",
          "name": "",
          "type": "address"
        }
      ],
      "stateMutability": "view",
      "type": "function"
    },
    {
      "inputs": [],
      "name": "token1",
      "outputs": [
        {
          "internalType": "address",
          "name": "",
          "type": "address"
        }
      ],
      "stateMutability": "view",
      "type": "function"
    },
    {
      "inputs": [],
      "name": "totalSupply",
      "outputs": [
        {
          "internalType": "uint256",
          "name": "",
          "type": "uint256"
        }
      ],
      "stateMutability": "view",
      "type": "function"
    },
    {
      "inputs": [
        {
          "internalType": "address",
          "name": "to",
          "type": "address"
        },
        {
          "internalType": "uint256",
          "name": "value",
          "type": "uint256"
        }
      ],
      "name": "transfer",
      "outputs": [
        {
          "internalType": "bool",
          "name": "",
          "type": "bool"
        }
      ],
      "stateMutability": "nonpayable",
      "type": "function"
    },
    {
      "inputs": [
        {
          "internalType": "address",
          "name": "from",
          "type": "address"
        },
        {
          "internalType": "address",
          "name": "to",
          "type": "address"
        },
        {
          "internalType": "uint256",
          "name": "value",
          "type": "uint256"
        }
      ],
      "name": "transferFrom",
      "outputs": [
        {
          "internalType": "bool",
          "name": "",
          "type": "bool"
        }
      ],
      "stateMutability": "nonpayable",
      "type": "function"
    }
  ],
  "bytecode": "0x6080346200033b576001600160401b0390604090808201838111828210176200023b578252600a8152602092692ab734b9bbb0b8102b1960b11b84830152825190838201828110828211176200023b57845260068252652aa72496ab1960d11b8583015282518181116200023b576003908154906001958683811c9316801562000330575b898410146200031a578190601f93848111620002c4575b5089908483116001146200025d5760009262000251575b505060001982851b1c191690861b1782555b83519283116200023b576004938454978689811c9916801562000230575b818a10146200021b578883869798999a11620001bf575b508092851160011462000151575060009362000145575b505082851b92600019911b1c19161790555b600555600680546001600160a01b03191633179055516121849081620003418239f35b01519150388062000110565b929190879550601f1985168760005284600020946000905b828210620001a557505085116200018a575b50505050811b01905562000122565b01519060f884600019921b161c19169055388080806200017b565b8484015187558a9890960195938401939081019062000169565b90919293945086600052816000208480880160051c82019284891062000211575b918a91899897969594930160051c01915b82811062000201575050620000f9565b600081558897508a9101620001f1565b92508192620001e0565b602286634e487b7160e01b6000525260246000fd5b98607f1698620000e2565b634e487b7160e01b600052604160045260246000fd5b015190503880620000b2565b90889350601f19831691866000528b6000209260005b8d828210620002ad575050841162000294575b505050811b018255620000c4565b015160001983871b60f8161c1916905538808062000286565b8385015186558c9790950194938401930162000273565b90915084600052896000208480850160051c8201928c861062000310575b918a91869594930160051c01915b828110620003005750506200009b565b600081558594508a9101620002f0565b92508192620002e2565b634e487b7160e01b600052602260045260246000fd5b92607f169262000084565b600080fdfe6080604052600436101561001257600080fd5b6000803560e01c8063022c0d9f146112ad57806306fdde03146111ef5780630902f1ac14611196578063095ea7b31461116f5780630dfe16811461114657806318160ddd1461112857806323b872dd1461106b578063313ce5671461104f5780633950935114610ff5578063485cc95514610f595780635909c0d514610f3b5780635a3d549314610f1d5780636a62784214610c4e57806370a0823114610c165780637464fc3d14610bf857806389afcb441461071c57806395d89b4114610619578063a457c2d714610571578063a9059cbb1461053f578063ba9a7a5614610522578063bc25cf7714610303578063c45a0155146102da578063d21220a7146102b1578063dd62ed3e146102595763fff6cae91461013057600080fd5b34610256578060031936011261025657610148611cfc565b6007546040516370a0823160e01b808252306004830152916020916001600160a01b039183908290602490829086165afa91821561024b578391869361021a575b50600854169360246040518096819382523060048301525afa91821561020f5784926101d8575b506101d09250600954916001600160701b03808460701c16931691611e2d565b600160055580f35b90915082813d8311610208575b6101ef8183611b16565b81010312610203576101d0915190386101b0565b600080fd5b503d6101e5565b6040513d86823e3d90fd5b8281939294503d8311610244575b6102328183611b16565b81010312610203578290519138610189565b503d610228565b6040513d87823e3d90fd5b80fd5b50346102565760403660031901126102565760206102a961027861197c565b610280611992565b9060018060a01b0380911660005260016020526040600020911660005260205260406000205490565b604051908152f35b50346102565780600319360112610256576008546040516001600160a01b039091168152602090f35b50346102565780600319360112610256576006546040516001600160a01b039091168152602090f35b50346102565760208060031936011261051e5761031e61197c565b610326611cfc565b6007546008546040516370a0823160e01b808252306004830152909390926001600160a01b039081169216908585602481865afa9485156105135787956104e4575b506103806001600160701b0395866009541690611cbc565b60405163a9059cbb60e01b8082526001600160a01b0384166004830152602482019290925290938790829060449082908c905af180156104d9576104bc575b50604051938452306004850152868685602481865afa80156104af5787958291610478575b506103fa906104279760095460701c1690611cbc565b6040519485526001600160a01b039092166004850152602484019190915291938492839182906044820190565b03925af1801561046d5761043f575b82600160055580f35b8161045e92903d10610466575b6104568183611b16565b8101906120e1565b503880610436565b503d61044c565b6040513d85823e3d90fd5b958092508691503d83116104a8575b6104918183611b16565b8101031261020357925185939087906104276103e4565b503d610487565b50604051903d90823e3d90fd5b6104d290873d8911610466576104568183611b16565b50386103bf565b6040513d8a823e3d90fd5b9094508581813d831161050c575b6104fc8183611b16565b8101031261020357519338610368565b503d6104f2565b6040513d89823e3d90fd5b5080fd5b503461025657806003193601126102565760206040516103e88152f35b50346102565760403660031901126102565761056661055c61197c565b6024359033611b4e565b602060405160018152f35b50346102565760403660031901126102565761058b61197c565b3360009081526001602090815260408083206001600160a01b0385168452909152902054906024358083106105c65761056692039033611a14565b60405162461bcd60e51b815260206004820152602560248201527f45524332303a2064656372656173656420616c6c6f77616e63652062656c6f77604482015264207a65726f60d81b6064820152608490fd5b5034610256578060031936011261025657604051600090600454600181811c90808316928315610712575b60209384841081146106fe578386529081156106de5750600114610683575b61067f8461067381880382611b16565b604051918291826119a8565b0390f35b600460009081529294507f8a35acfbc15ff81a39ae7d344fd709f28e8600b4aa8c65c6b64bfe7fe36bd19b5b8284106106cb575050508161067f936106739282010193610663565b80548585018701529285019281016106af565b60ff1916858501525050151560051b82010191506106738161067f610663565b634e487b7160e01b87526022600452602487fd5b91607f1691610644565b50346102565760203660031901126102565761073661197c565b61073e611cfc565b61075d6009546001600160701b0391828216928260701c169160e01c90565b506007546008546040516370a0823160e01b81523060048201526001600160a01b039182169694959190921693909290602083602481885afa9283156104af578193610bc4575b506040516370a0823160e01b815230600482015296602088602481845afa958615610bb9578798839897610b82575b503083528260205261080f6108036108036108086107f68860408920549c611fa9565b986002549384918d611cc9565b611cdc565b9a8a611cc9565b9688151580610b79575b15610b23573015610ad45730845283602052604084205490808210610a84578085923084528360205203604083205580600254036002556040519081527fddf252ad1be2c89b69c2b068fc378daa952ba7f163c4a11628f55a4df523b3ef60203092a360405163a9059cbb60e01b81526001600160a01b03871660048201526024810189905260208160448187865af1801561020f57610a65575b5060405163a9059cbb60e01b81526001600160a01b03871660048201526024810188905260208160448187875af1801561020f579160209160249493610a48575b506040516370a0823160e01b815230600482015293849182905afa91821561046d578392610a13575b506020602491604051928380926370a0823160e01b82523060048301525afa928315610a0757926109cc575b50966109599291604098611e2d565b6109a9575b83519083825282602083015260018060a01b0316907fdccd412f0b1252819cb1fd330b93224ca42612892bb3f4f789976e6d81936496853392a3600160055582519182526020820152f35b6109c46009546001600160701b03808260701c169116611cc9565b600c5561095e565b929150966020833d6020116109ff575b816109e960209383611b16565b810103126102035791519196909190604061094a565b3d91506109dc565b604051903d90823e3d90fd5b9091506020813d602011610a40575b81610a2f60209383611b16565b81010312610203575190602061091e565b3d9150610a22565b610a5e90833d8511610466576104568183611b16565b50386108f5565b610a7d9060203d602011610466576104568183611b16565b50386108b4565b60405162461bcd60e51b815260206004820152602260248201527f45524332303a206275726e20616d6f756e7420657863656564732062616c616e604482015261636560f01b6064820152608490fd5b60405162461bcd60e51b815260206004820152602160248201527f45524332303a206275726e2066726f6d20746865207a65726f206164647265736044820152607360f81b6064820152608490fd5b60405162461bcd60e51b815260206004820152602860248201527f556e697377617056323a20494e53554646494349454e545f4c495155494449546044820152671657d0955493915160c21b6064820152608490fd5b50871515610819565b965096506020863d602011610bb1575b81610b9f60209383611b16565b810103126102035787955196386107d3565b3d9150610b92565b6040513d84823e3d90fd5b9092506020813d602011610bf0575b81610be060209383611b16565b81010312610203575191386107a4565b3d9150610bd3565b50346102565780600319360112610256576020600c54604051908152f35b5034610256576020366003190112610256576020906040906001600160a01b03610c3e61197c565b1681528083522054604051908152f35b50346102565760208060031936011261051e57610c6961197c565b610c71611cfc565b610c906009546001600160701b0391828216928260701c169160e01c90565b506007546040516370a0823160e01b808252306004830152939492916001600160a01b03919087908290602490829086165afa9182156104d95787918993610eec575b50600854169460246040518097819382523060048301525afa938415610513578794610ebd575b506001600160701b039182861695610d128784611cbc565b9584831693610d218583611cbc565b98610d2c8585611fa9565b95600254918215600014610db5578d8d610d4e610d498f8f611cc9565b6120f9565b6103e7198101908111610da15760649250506040519062461bcd60e51b82526004820152601f60248201527f45524332303a206d696e7420746f20746865207a65726f2061646472657373006044820152fd5b634e487b7160e01b83526011600452602483fd5b8d91610803610dcf610dd6939c9e9c6108038f8890611cc9565b948c611cc9565b905080821015610eb657505b988915610e605790610dfa8a610dff96959493611d52565b611e2d565b610e42575b50604051918252838201527f4c209b5fc8ad50758f13e2e1088ba56a560dff690a1c6fef26394f4c03821c4f60403392a26001600555604051908152f35b610e579060095490808260701c169116611cc9565b600c5584610e04565b60405162461bcd60e51b8152600481018c9052602860248201527f556e697377617056323a20494e53554646494349454e545f4c495155494449546044820152671657d3525395115160c21b6064820152608490fd5b9050610de2565b9093508581813d8311610ee5575b610ed58183611b16565b8101031261020357519238610cfa565b503d610ecb565b8281939294503d8311610f16575b610f048183611b16565b81010312610203578690519138610cd3565b503d610efa565b50346102565780600319360112610256576020600b54604051908152f35b50346102565780600319360112610256576020600a54604051908152f35b503461025657604036600319011261025657610f7361197c565b610f7b611992565b6006546001600160a01b03919082163303610fb957816bffffffffffffffffffffffff60a01b93168360075416176007551690600854161760085580f35b60405162461bcd60e51b81526020600482015260146024820152732ab734b9bbb0b82b191d102327a92124a22222a760611b6044820152606490fd5b50346102565760403660031901126102565761056661101261197c565b3360009081526001602090815260408083206001600160a01b038516845290915290205461104890602435906119f1565b6119f1565b9033611a14565b5034610256578060031936011261025657602060405160128152f35b50346102565760603660031901126102565761108561197c565b9061108e611992565b60406044359260018060a01b0385168152600160205220336000526020526040600020549260001984036110c7575b6105669350611b4e565b8284106110e3576110de8361056695033383611a14565b6110bd565b60405162461bcd60e51b815260206004820152601d60248201527f45524332303a20696e73756666696369656e7420616c6c6f77616e63650000006044820152606490fd5b50346102565780600319360112610256576020600254604051908152f35b50346102565780600319360112610256576007546040516001600160a01b039091168152602090f35b50346102565760403660031901126102565761056661118c61197c565b6024359033611a14565b5034610256578060031936011261025657606063ffffffff6111cd6009546001600160701b0391828216928260701c169160e01c90565b909291604051936001600160701b038092168552166020840152166040820152f35b5034610256578060031936011261025657604051600090600354600181811c908083169283156112a3575b60209384841081146106fe578386529081156106de57506001146112485761067f8461067381880382611b16565b600360009081529294507fc2575a0e9e593c00f959f8c92f12db2869c3395a3b0502d05e2516446f71f85b5b828410611290575050508161067f936106739282010193610663565b8054858501870152928501928101611274565b91607f169161121a565b5034610256576080366003190112610256576001600160a01b03604435808216900361051e5767ffffffffffffffff6064351161051e5736602360643501121561051e5767ffffffffffffffff606435600401351161051e573660246064356004013560643501011161051e57611322611cfc565b600435159081158092611971575b1561191e576113546009546001600160701b0391828216928260701c169160e01c90565b506001600160701b0382949216600435108061190a575b156118bb5782600754168360085416928185604435161415806118ad575b156118705761180e575b6024356117ae575b606435600401356116e7575b906020602492604051938480926370a0823160e01b82523060048301525afa9182156116a55786926116b0575b506020602493604051948580926370a0823160e01b82523060048301525afa9283156116a5578693611671575b506114176004356001600160701b038716611cbc565b82111561166a5761143c6114366004356001600160701b038816611cbc565b83611cbc565b945b6114536024356001600160701b038416611cbc565b841115611663576114786114726024356001600160701b038516611cbc565b85611cbc565b935b861515871561165a575b1561160957836103e88102046103e814841517156115f55760038702878104600314881517156115e1576114bc906103e88602611cbc565b6103e882028281046103e814831517156115b9576003870290878204600314881517156115cd576114f792916114f191611cbc565b90611cc9565b6115136001600160701b0385166001600160701b038516611cc9565b90620f4240918281029281840414901517156115b957106115855761153793611e2d565b60405192835260208301526004356040830152602435606083015260443516907fd78ad95fa46c994b6551d0da85fc275fe613ce37657fb8d5e3d130840159d82260803392a3600160055580f35b60405162461bcd60e51b815260206004820152600c60248201526b556e697377617056323a204b60a01b6044820152606490fd5b634e487b7160e01b8a52601160045260248afd5b634e487b7160e01b8b52601160045260248bfd5b634e487b7160e01b89526011600452602489fd5b634e487b7160e01b88526011600452602488fd5b60405162461bcd60e51b8152602060048201526024808201527f556e697377617056323a20494e53554646494349454e545f494e5055545f414d60448201526313d5539560e21b6064820152608490fd5b50841515611484565b869361147a565b859461143e565b9092506020813d60201161169d575b8161168d60209383611b16565b8101031261020357519138611401565b3d9150611680565b6040513d88823e3d90fd5b9291506020833d6020116116df575b816116cc60209383611b16565b81010312610203579151909160206113d4565b3d91506116bf565b83604435163b156117aa576040516304347a1760e21b815233600482015260043560248201526024356044820152608060648201526064356004013560848201526064356004013560246064350160a48301378660a46064356004013583010152868160a481601f19601f60643560040135011681010301818389604435165af1801561051357611779575b506113a7565b67ffffffffffffffff819792971161179657604052946020611773565b634e487b7160e01b82526041600452602482fd5b8580fd5b60405163a9059cbb60e01b8152604480356001600160a01b0316600483015260248035908301526020908290818a885af18015610513576117f0575b5061139b565b6118079060203d8111610466576104568183611b16565b50386117ea565b60405163a9059cbb60e01b8152604480356001600160a01b03166004808401919091523560248301526020908290818a865af1801561051357611852575b50611393565b6118699060203d8111610466576104568183611b16565b503861184c565b60405162461bcd60e51b8152602060048201526015602482015274556e697377617056323a20494e56414c49445f544f60581b6044820152606490fd5b508385604435161415611389565b60405162461bcd60e51b815260206004820152602160248201527f556e697377617056323a20494e53554646494349454e545f4c495155494449546044820152605960f81b6064820152608490fd5b506001600160701b0381166024351061136b565b60405162461bcd60e51b815260206004820152602560248201527f556e697377617056323a20494e53554646494349454e545f4f55545055545f416044820152641353d5539560da1b6064820152608490fd5b506024351515611330565b600435906001600160a01b038216820361020357565b602435906001600160a01b038216820361020357565b6020808252825181830181905290939260005b8281106119dd57505060409293506000838284010152601f8019910116010190565b8181018601518482016040015285016119bb565b919082018092116119fe57565b634e487b7160e01b600052601160045260246000fd5b6001600160a01b03908116918215611ac55716918215611a755760207f8c5be1e5ebec7d5bd14f71427d1e84f3dd0314c0f7b2291e5b200ac8c7c3b925918360005260018252604060002085600052825280604060002055604051908152a3565b60405162461bcd60e51b815260206004820152602260248201527f45524332303a20617070726f766520746f20746865207a65726f206164647265604482015261737360f01b6064820152608490fd5b60405162461bcd60e51b8152602060048201526024808201527f45524332303a20617070726f76652066726f6d20746865207a65726f206164646044820152637265737360e01b6064820152608490fd5b90601f8019910116810190811067ffffffffffffffff821117611b3857604052565b634e487b7160e01b600052604160045260246000fd5b6001600160a01b03908116918215611c695716918215611c1857600082815280602052604081205491808310611bc457604082827fddf252ad1be2c89b69c2b068fc378daa952ba7f163c4a11628f55a4df523b3ef958760209652828652038282205586815220818154019055604051908152a3565b60405162461bcd60e51b815260206004820152602660248201527f45524332303a207472616e7366657220616d6f756e7420657863656564732062604482015265616c616e636560d01b6064820152608490fd5b60405162461bcd60e51b815260206004820152602360248201527f45524332303a207472616e7366657220746f20746865207a65726f206164647260448201526265737360e81b6064820152608490fd5b60405162461bcd60e51b815260206004820152602560248201527f45524332303a207472616e736665722066726f6d20746865207a65726f206164604482015264647265737360d81b6064820152608490fd5b919082039182116119fe57565b818102929181159184041417156119fe57565b8115611ce6570490565b634e487b7160e01b600052601260045260246000fd5b600260055414611d0d576002600555565b60405162461bcd60e51b815260206004820152601f60248201527f5265656e7472616e637947756172643a207265656e7472616e742063616c6c006044820152606490fd5b6001600160a01b0316908115611db0577fddf252ad1be2c89b69c2b068fc378daa952ba7f163c4a11628f55a4df523b3ef602082611d946000946002546119f1565b60025584845283825260408420818154019055604051908152a3565b60405162461bcd60e51b815260206004820152601f60248201527f45524332303a206d696e7420746f20746865207a65726f2061646472657373006044820152606490fd5b60701b9060ff60701b8216916001600160781b0360701b1682036119fe57565b906001600160781b03809116918215611ce657160490565b9291926001600160701b03908181111580611f9f575b15611f64576009549063ffffffff9160e01c824216038281116119fe577f1c411e9a96e071241c2f21f7726b17ae89e3cab4c78be50e062b03a9fffbbad19660409685948593169081151580611f59575b80611f4e575b611ee5575b50505050607093841b6dffffffffffffffffffffffffffff60701b1691169081174260e01b6001600160e01b031916176009819055845191825290921c166020820152a1565b611f1f611f3a93611f35611f429685941691611f2d611f258b611f0786611df5565b9316968793611f1f6001600160781b03998a92611e15565b16611cc9565b600a546119f1565b600a55611df5565b611e15565b600b546119f1565b600b5581388080611e9f565b508381161515611e9a565b508383161515611e94565b60405162461bcd60e51b8152602060048201526013602482015272556e697377617056323a204f564552464c4f5760681b6044820152606490fd5b5081831115611e43565b600654604051622fcfcb60e31b815292939291906001600160a01b03906020908490600490829085165afa9283156120d557600093612097575b508216151593600c5491856000146120865782612001575b50505050565b610d4961201e91612024936001600160701b038091169116611cc9565b916120f9565b90818111612033575b80611ffb565b6120436002546114f18484611cbc565b906005810290808204600514901517156119fe5761206a92612064916119f1565b90611cdc565b80612076575b8061202d565b61207f91611d52565b3880612070565b5050905061209057565b6000600c55565b6020939193813d82116120cd575b816120b260209383611b16565b8101031261051e575190838216820361025657509138611fe3565b3d91506120a5565b6040513d6000823e3d90fd5b90816020910312610203575180151581036102035790565b906000600383111561214157508160019080821c8281018091116119fe5791905b84831061212657505050565b90919350612138846110438184611cdc565b821c919061211a565b9161214857565b6001915056fea2646970667358221220b8d019374bd7dfa89682a9173b44a79597143fb200123ba744c9787471b323fd64736f6c63430008130033",
  "linkReferences": {},
  "deployedLinkReferences": {}
}