{
  "_format": "hh-sol-artifact-1",
  "contractName": "UniswapV2Router",
  "sourceName": "contracts/UniswapV2Router.sol",
  "abi": [
    {
      "inputs": [
        {
          "internalType": "address",
          "name": "_factory",
          "type": "address"
        },
        {
          "internalType": "address",
          "name": "_WETH",
          "type": "address"
        }
      ],
      "stateMutability": "nonpayable",
      "type": "constructor"
    },
    {
      "inputs": [],
      "name": "WETH",
      "outputs": [
        {
          "internalType": "address",
          "name": "",
          "type": "address"
        }
      ],
      "stateMutability": "view",
      "type": "function"
    },
    {
      "inputs": [
        {
          "internalType": "address",
          "name": "tokenA",
          "type": "address"
        },
        {
          "internalType": "address",
          "name": "tokenB",
          "type": "address"
        },
        {
          "internalType": "uint256",
          "name": "amountADesired",
          "type": "uint256"
        },
        {
          "internalType": "uint256",
          "name": "amountBDesired",
          "type": "uint256"
        },
        {
          "internalType": "uint256",
          "name": "amountAMin",
          "type": "uint256"
        },
        {
          "internalType": "uint256",
          "name": "amountBMin",
          "type": "uint256"
        },
        {
          "internalType": "address",
          "name": "to",
          "type": "address"
        },
        {
          "internalType": "uint256",
          "name": "deadline",
          "type": "uint256"
        }
      ],
      "name": "addLiquidity",
      "outputs": [
        {
          "internalType": "uint256",
          "name": "amountA",
          "type": "uint256"
        },
        {
          "internalType": "uint256",
          "name": "amountB",
          "type": "uint256"
        },
        {
          "internalType": "uint256",
          "name": "liquidity",
          "type": "uint256"
        }
      ],
      "stateMutability": "nonpayable",
      "type": "function"
    },
    {
      "inputs": [],
      "name": "factory",
      "outputs": [
        {
          "internalType": "address",
          "name": "",
          "type": "address"
        }
      ],
      "stateMutability": "view",
      "type": "function"
    },
    {
      "inputs": [
        {
          "internalType": "address",
          "name": "tokenA",
          "type": "address"
        },
        {
          "internalType": "address",
          "name": "tokenB",
          "type": "address"
        },
        {
          "internalType": "uint256",
          "name": "liquidity",
          "type": "uint256"
        },
        {
          "internalType": "uint256",
          "name": "amountAMin",
          "type": "uint256"
        },
        {
          "internalType": "uint256",
          "name": "amountBMin",
          "type": "uint256"
        },
        {
          "internalType": "address",
          "name": "to",
          "type": "address"
        },
        {
          "internalType": "uint256",
          "name": "deadline",
          "type": "uint256"
        }
      ],
      "name": "removeLiquidity",
      "outputs": [
        {
          "internalType": "uint256",
          "name": "amountA",
          "type": "uint256"
        },
        {
          "internalType": "uint256",
          "name": "amountB",
          "type": "uint256"
        }
      ],
      "stateMutability": "nonpayable",
      "type": "function"
    },
    {
      "inputs": [
        {
          "internalType": "uint256",
          "name": "amountIn",
          "type": "uint256"
        },
        {
          "internalType": "uint256",
          "name": "amountOutMin",
          "type": "uint256"
        },
        {
          "internalType": "address[]",
          "name": "path",
          "type": "address[]"
        },
        {
          "internalType": "address",
          "name": "to",
          "type": "address"
        },
        {
          "internalType": "uint256",
          "name": "deadline",
          "type": "uint256"
        }
      ],
      "name": "swapExactTokensForTokens",
      "outputs": [
        {
          "internalType": "uint256[]",
          "name": "amounts",
          "type": "uint256[]"
        }
      ],
      "stateMutability": "nonpayable",
      "type": "function"
    }
  ],
  "bytecode": "0x60c0346100a357601f61147e38819003918201601f19168301916001600160401b038311848410176100a85780849260409485528339810103126100a357610052602061004b836100be565b92016100be565b9060805260a0526040516113ab90816100d3823960805181818160cc0152818161032f015281816103af0152818161067b01528181610815015281816109210152610952015260a051816105200152f35b600080fd5b634e487b7160e01b600052604160045260246000fd5b51906001600160a01b03821682036100a35756fe6080604052600436101561001257600080fd5b60003560e01c806338ed17391461054f578063ad5c46481461050a578063baa2abde1461035e578063c45a0155146103195763e8e337001461005357600080fd5b346101d0576101003660031901126101d05761006d610b46565b610075610b5c565b6001600160a01b0391906044359060c43584811690606435908290036101d0576100a34260e4351015610b72565b60405163e6a4390560e01b81526001600160a01b038681166004830152841660248201526020947f000000000000000000000000000000000000000000000000000000000000000093888516929091908781604481875afa80156101dc5788958a958c8a9381956000916102fc575b501615610284575b5061012682878a611193565b9080158061027c575b156101e85750509061015f60249697986101536101689695949b8c969e8f936110ba565b80998195339116610be0565b8b339116610be0565b600060405198899485936335313c2160e11b85526004850152165af19182156101dc576000926101a7575b606094506040519384528301526040820152f35b80925084813d83116101d5575b6101be8183610bbe565b810103126101d0576060935191610193565b600080fd5b503d6101b4565b6040513d6000823e3d90fd5b6101f68282889594956112ec565b9282841161022c575050509061015f602496979861015361016896959461022160a435821015610ede565b9b8c969e8f936110ba565b9350935095505061023f929550846112ec565b928311610266576101688793898761015f8a98610153602498610221608435881015610e83565b634e487b7160e01b600052600160045260246000fd5b50811561012f565b6040516364e329cb60e11b81526001600160a01b039788166004820152969092166024870152949591508590816000816044810103925af19384156101dc578689948b928a971561011a576102ee90883d8a116102f5575b6102e68183610bbe565b810190610e64565b503861011a565b503d6102dc565b61031391508a3d8c116102f5576102e68183610bbe565b38610112565b346101d05760003660031901126101d0576040517f00000000000000000000000000000000000000000000000000000000000000006001600160a01b03168152602090f35b346101d05760e03660031901126101d057610377610b46565b61037f610b5c565b6001600160a01b039160a43583811691908290036101d0576103a54260c4351015610b72565b6104106103d384837f00000000000000000000000000000000000000000000000000000000000000006110ba565b6040516323b872dd60e01b81523360048201526001600160a01b038216602482015260448035908201529190861690602090839081906064820190565b03816000855af180156101dc576000946040936024926104dc575b508351958693849263226bf2d160e21b845260048401525af19283156101dc576000926000946104a0575b50938061046560409684610ff3565b501691161460001461049b57905b610481606435831015610e83565b61048f608435821015610ede565b82519182526020820152f35b610473565b925092506040823d6040116104d4575b816104bd60409383610bbe565b810103126101d05781516020909201519284610456565b3d91506104b0565b6104fc9060203d8111610503575b6104f48183610bbe565b810190610d6f565b508861042b565b503d6104ea565b346101d05760003660031901126101d0576040517f00000000000000000000000000000000000000000000000000000000000000006001600160a01b03168152602090f35b346101d05760a03660031901126101d05767ffffffffffffffff604435116101d0573660236044350112156101d05767ffffffffffffffff60443560040135116101d0573660246044356004013560051b6044350101116101d0576064356001600160a01b03811690036101d0576105cb426084351015610b72565b6105e13660443560040135602460443501610f51565b6002815110610b01578051906105f682610f39565b916106046040519384610bbe565b808352610613601f1991610f39565b0136602084013760043561062683610faf565b5260005b8151600019810190811161072057811015610798576001600160a01b036106518284610fbc565b51166001820182116107205761069f906001600160a01b036106766001850186610fbc565b5116907f0000000000000000000000000000000000000000000000000000000000000000611193565b91906106ab8286610fbc565b5192831561073f57811590811580610736575b6106c79061125c565b6103e580860295860403610720576106df90856112b9565b906103e88084029384041417156107205783820182116107205761071b936107089201906112cc565b6107156001830186610fbc565b52610fe4565b61062a565b634e487b7160e01b600052601160045260246000fd5b508015156106be565b60405162461bcd60e51b815260206004820152602b60248201527f556e697377617056324c6962726172793a20494e53554646494349454e545f4960448201526a1394155517d05353d5539560aa1b6064820152608490fd5b82805180600019810111610720576107b7602435916000190183610fbc565b5110610aa8576044356004013515610a92576001600160a01b036107df604435602401610fd0565b166107ee602460443501610fd0565b906044356004013560011015610a925761083961084b926108126044803501610fd0565b907f00000000000000000000000000000000000000000000000000000000000000006110ba565b61084284610faf565b51913390610be0565b6108613660443560040135602460443501610f51565b9060005b8251600019810190811161072057811015610a4c576001600160a01b0361088c8285610fbc565b511690600181018111610720576001600160a01b036108ae6001830186610fbc565b51166108ba8184610ff3565b50906108c96001840186610fbc565b51916001600160a01b03168403610a4457600091935b8651806001198101116107205760011901841015610a3857600284018411610720576109766109456001600160a01b0361091c600288018b610fbc565b5116847f00000000000000000000000000000000000000000000000000000000000000006110ba565b925b6001600160a01b03927f00000000000000000000000000000000000000000000000000000000000000006110ba565b166040519485602081011067ffffffffffffffff602088011117610a22576020860160405260008652813b156101d057600080946109e96040519889968795869463022c0d9f60e01b86526004860152602485015260018060a01b03166044840152608060648401526084830190610e24565b03925af180156101dc57610a07575b610a029150610fe4565b610865565b67ffffffffffffffff8211610a2257610a02916040526109f8565b634e487b7160e01b600052604160045260246000fd5b61097660643592610947565b6000936108df565b5060405180916020820160208352815180915260206040840192019060005b818110610a79575050500390f35b8251845285945060209384019390920191600101610a6b565b634e487b7160e01b600052603260045260246000fd5b60405162461bcd60e51b815260206004820152602b60248201527f556e69737761705632526f757465723a20494e53554646494349454e545f4f5560448201526a1514155517d05353d5539560aa1b6064820152608490fd5b60405162461bcd60e51b815260206004820152601e60248201527f556e697377617056324c6962726172793a20494e56414c49445f5041544800006044820152606490fd5b600435906001600160a01b03821682036101d057565b602435906001600160a01b03821682036101d057565b15610b7957565b60405162461bcd60e51b815260206004820152601860248201527f556e69737761705632526f757465723a204558504952454400000000000000006044820152606490fd5b90601f8019910116810190811067ffffffffffffffff821117610a2257604052565b604080516323b872dd60e01b60208083019182526001600160a01b03958616602484015295909416604482015260648082019690965294855293949391601f1991610c2c608488610bbe565b835167ffffffffffffffff979093916001600160a01b03169084860189811186821017610a225786528685527f5361666545524332303a206c6f772d6c6576656c2063616c6c206661696c656487860152600080948192519082855af1913d15610d5c573d988911610d4857869798610cb28798610cc0985193601f8401160183610bbe565b81528093883d92013e610d87565b805190838215928315610d30575b50505015610cda575050565b60849250519062461bcd60e51b82526004820152602a60248201527f5361666545524332303a204552433230206f7065726174696f6e20646964206e6044820152691bdd081cdd58d8d9595960b21b6064820152fd5b610d409350820181019101610d6f565b388381610cce565b634e487b7160e01b84526041600452602484fd5b509150610cc09394959650606091610d87565b908160209103126101d0575180151581036101d05790565b91929015610de95750815115610d9b575090565b3b15610da45790565b60405162461bcd60e51b815260206004820152601d60248201527f416464726573733a2063616c6c20746f206e6f6e2d636f6e74726163740000006044820152606490fd5b825190915015610dfc5750805190602001fd5b60405162461bcd60e51b815260206004820152908190610e20906024830190610e24565b0390fd5b919082519283825260005b848110610e50575050826000602080949584010152601f8019910116010190565b602081830181015184830182015201610e2f565b908160209103126101d057516001600160a01b03811681036101d05790565b15610e8a57565b60405162461bcd60e51b815260206004820152602660248201527f556e69737761705632526f757465723a20494e53554646494349454e545f415f604482015265105353d5539560d21b6064820152608490fd5b15610ee557565b60405162461bcd60e51b815260206004820152602660248201527f556e69737761705632526f757465723a20494e53554646494349454e545f425f604482015265105353d5539560d21b6064820152608490fd5b67ffffffffffffffff8111610a225760051b60200190565b9291610f5c82610f39565b91610f6a6040519384610bbe565b829481845260208094019160051b81019283116101d057905b828210610f905750505050565b81356001600160a01b03811681036101d0578152908301908301610f83565b805115610a925760200190565b8051821015610a925760209160051b010190565b356001600160a01b03811681036101d05790565b60001981146107205760010190565b90916001600160a01b039182841683821680821461106757101561106257925b9183161561101d57565b60405162461bcd60e51b815260206004820152601e60248201527f556e697377617056324c6962726172793a205a45524f5f4144445245535300006044820152606490fd5b611013565b60405162461bcd60e51b815260206004820152602560248201527f556e697377617056324c6962726172793a204944454e544943414c5f41444452604482015264455353455360d81b6064820152608490fd5b916110c491610ff3565b6040929192519260208401906bffffffffffffffffffffffff199283809260601b16835260601b16603485015260288452606084019367ffffffffffffffff9281861084871117610a225760e092866040528251902090608083019560ff60f81b875260601b16608183015260958201527f96e8ac4277198ff8b6f785478aa9a39f403cb768dd02cbee326c3e7da348845f60b582015260558552019083821090821117610a2257604052905190206001600160a01b031690565b51906001600160701b03821682036101d057565b908060606004936111b96111a78785610ff3565b50966001600160a01b039485936110ba565b1660405194858092630240bc6b60e21b82525afa9283156101dc576000908194611201575b5081906001600160701b03809116941694169116146000146111fd5791565b9091565b93506060843d8211611254575b8161121b60609383610bbe565b810103126112515761122c8461117f565b90604061123b6020870161117f565b95015163ffffffff8116036112515750816111de565b80fd5b3d915061120e565b1561126357565b60405162461bcd60e51b815260206004820152602860248201527f556e697377617056324c6962726172793a20494e53554646494349454e545f4c604482015267495155494449545960c01b6064820152608490fd5b8181029291811591840414171561072057565b81156112d6570490565b634e487b7160e01b600052601260045260246000fd5b801561132257611316926113119183151580611319575b61130c9061125c565b6112b9565b6112cc565b90565b50811515611303565b60405162461bcd60e51b815260206004820152602560248201527f556e697377617056324c6962726172793a20494e53554646494349454e545f416044820152641353d5539560da1b6064820152608490fdfea2646970667358221220261d9a6edecd50069e6689ea4b70e72b7e3ded731597a9ca3918ea30ef75bd5c64736f6c63430008130033",
  "linkReferences": {},
  "deployedLinkReferences": {}
}